:020000041000EA
:1000000000B5324B212058609868022188439860DF
:10001000D860186158612E4B002199600221596106
:100020000121F02299502B49196001219960352056
:1000300000F044F80222904214D00621196600F024
:1000400034F8196E01211966002018661A6600F04E
:100050002CF8196E196E196E052000F02FF8012189
:100060000842F9D1002199601B49196000215960AB
:100070001A491B48016001219960EB211966A021F2
:10008000196600F012F800219960164914480160C1
:100090000121996001BC002800D000471248134993
:1000A000086003C880F30888084703B5996A0420EC
:1000B0000142FBD001200142F8D103BD02B5186610
:1000C0001866FFF7F2FF186E186E02BD00000240BE
:1000D000000000180000070000035F00212200005C
:1000E000F4000018222000A00001001008ED00E03C
:1000F00000000000000000000000000074B24E7A12
:1001000000200420F7010010C3010010C5010010F9
:10011000C1010010C1010010C1010010C101001097
:10012000C1010010C1010010C1010010C701001081
:10013000C1010010C1010010C9010010CB01001065
:10014000CD010010CD010010CD010010CD01001037
:10015000CD010010CD010010CD010010CD01001027
:10016000CD010010CD010010CD010010CD01001017
:10017000CD010010CD010010CD010010CD01001007
:10018000CD010010CD010010CD010010CD010010F7
:10019000CD010010CD010010CD010010CD010010E7
:1001A000CD010010CD010010CD010010CD010010D7
:1001B000CD010010CD010010CD010010CD010010C7
:1001C00000BE00BE00BE00BE00BE00BE00F04BF888
:1001D000103800BEF2EB8871204E00103C4E00102B
:1001E0003402001090A31AE700202149086006C8D5
:1001F00081F3088810471F48006800282FD10DA4FC
:100200000ECC002902D000F012F8F9E71A491B4A77
:10021000002000E001C19142FCD1194988471949E9
:1002200088471949884700BEFDE701C901C29A42C3
:10023000FBD370473C4E0010C0000020B0030020EC
:100240002C51001000000420000004202C5100104C
:1002500000100420001004200000000070470B482C
:1002600002F0F2FC0047EFF30580C0B270470000D7
:1002700008ED00E0000000D0B0030020800800205E
:10028000B9120010790300107512001057560000C3
:1002900006005250ABB360537C4C00100600525025
:1002A000861C03028C4C0010060052505422A29D62
:1002B0009C4C001005005250DE65F4682C51001073
:1002C000F8B5C046054B0648033310B51B1A062B7C
:1002D00003D9044B002B00D0984710BDB003002079
:1002E000B0030020000000000648074910B5091AB5
:1002F0008910CB0F5918491003D0044B002B00D0A4
:10030000984710BDB0030020B0030020000000009B
:1003100010B5074C2378002B09D1FFF7D3FF054B0D
:10032000002B02D0044800E000BF0123237010BD61
:10033000B004002000000000883E0010094B10B5FA
:10034000002B03D00849094800E000BF08480368B3
:10035000002B02D1FFF7C8FF10BD064B002BF9D0D0
:100360009847F7E700000000B4040020883E001022
:10037000B00300200000000010B503F005FD1F21B0
:100380001A2000F023F8002200211A2000F036F88D
:1003900000211A2000F04CF8052000F061F820221E
:1003A000D0231B065A620422054B1A60054B1B68BA
:1003B000DB05FBD5034B5B68034803F07FFCF2E7EA
:1003C00000E0044000C00440883E001010B58300E7
:1003D000084A944663441C6840226240C02414408A
:1003E0008022520113431C60C000034B9C466044B2
:1003F000416010BD04C001400040014080000B4B33
:100400009C46604400290DD00823002A0CD100220C
:100410001343026853400C221340802252011043C0
:10042000036070470023F0E70422F1E704C00140B5
:10043000002909D18000094B9C466044C0239B01E0
:1004400018434023036070478000044B9C4660447F
:1004500080239B01184340230360F4E704C001405C
:1004600010B501238340D0221206936293610521C7
:10047000FFF7ACFF10BD0000EFF3108072B6034B26
:100480001B68002BFBD0BFF35F8F70472C0100D09F
:10049000BFF35F8F0022024B1A6080F31088704711
:1004A0002C0100D070B505000E001400FFF7E4FF2A
:1004B000F208AA1815780721314001238B402B42FE
:1004C00005D1DBB22B431370FFF7E2FF70BD3100A3
:1004D000200000F06DFF0000034B1B680220184055
:1004E000431E9841C0B2704700C00640002307E099
:1004F000054A9A189200BFF35F8F00211160013303
:100500001F2BF5D97047C04640000034054A1078CB
:10051000431CDBB21370172B02D91022014B1A7047
:100520007047C046F002002070B505000C000800BE
:1005300000F082FB200000F053FC0849200000F08E
:1005400093FBFFF7E3FF064B9C4660448000686026
:100550002C75A400034BE55070BDC0464508001043
:10056000400000344C06002010B5002922D003685A
:100570001B7B99421ED8174B9C4661440901836836
:100580009C4661440C684968002A19D003681B7BAB
:100590009A4215D883680F488446624412019A181B
:1005A00010685368020001208B4201D80ED0002051
:1005B000C0B210BD084B094A3B21094800F05EFE5D
:1005C000054B064A3B21064800F058FEA242EFD8F0
:1005D000EDE7C046FFFFFF0F58400010EC3E001053
:1005E0004041001010B500291FD0037B99421CD850
:1005F0004B005B18033B0468A446634400291AD0EF
:10060000002A1ED0914222D0002A26D0047BA2428A
:1006100023D8046850008018033820188170197896
:10062000002920D041701A7010BD104B104A68216B
:10063000104800F023FE104B104A6F310D4800F0B7
:100640001DFE0F4B0D4A70210A4800F017FE0D4B9E
:100650000A4A7121074800F011FE044B044A682140
:10066000044800F00BFE1A70DEE7C0468C40001014
:10067000AC3E0010A8400010FC400010B83E001036
:10068000084100101441001070B506000D00140060
:10069000002916D0002A01D1080013E08068736891
:1006A0009847002806D12A0021003000FFF79AFF62
:1006B000200007E0220029003000FFF793FF280008
:1006C00000E0100070BD000070B5CE4600B583B0EC
:1006D0000500009201930AAB1C780BAB1B7899467E
:1006E000002C28D003685A7B944214D0002C0CD0E4
:1006F0001A7B944209D81A6863001B19033BD3186C
:100700009B78002B08D0012306E0434B434A682125
:10071000434800F0B3FD0123002B06D1002C28D163
:10072000200003B004BC914670BD3E4B3E4A65219B
:100730003E4800F0A3FD03689C7B002CEED012D055
:100740001A7B94420FD862001219033A19688C463A
:10075000624451789973002900D1D97300239370B2
:1007600053701370DAE72C4B2C4A68212C4800F0A8
:1007700085FD002C39D02B681B7B9C4235D82C4B37
:10078000E3181B01AA68944663440099019A196012
:100790005A60089A9A60099ADA602E68002C2AD06A
:1007A0002FD0337B9C422CD863001B19033B32684B
:1007B0009446634400229A705A701A70717B22002A
:1007C0003000FFF761FF70738442A9D1287D009A41
:1007D000019B00F091FA061E02D04B46002B16D06A
:1007E0000C9B002B9CD01E709AE7124B124A3B21A7
:1007F0000E4800F043FD114B114AA521084800F0B6
:100800003DFD054B054A6821054800F037FD286885
:10081000210000F0ADFCE3E78C400010AC3E00107E
:10082000A8400010403F00100C3F00104041001055
:10083000FFFFFF0F58400010EC3E00103C4100103D
:10084000CC3E0010F0B5D6464F464646C0B58CB0FB
:100850000B908200B54BD55837E100230024089354
:1008600009946A68EFF3108672B61368002BFCD007
:10087000BFF35F8F2F687C7B002C41D1002398460B
:10088000002700206B68BFF35F8F00221A6086F399
:100890001088002F00D116E153461E022643414620
:1008A0003000B847069007916A68EFF3108972B676
:1008B0001368002BFCD0BFF35F8F079B002B00DB7E
:1008C00089E02B69002B00D185E0B34271D1089AF1
:1008D000099B08921E0006980799121A8B419E42A6
:1008E00003D805D10899914202D901225242D31767
:1008F000002B64DA8E4B8F4A3F218F4800F0BEFCFC
:10090000002C1AD03A7B944217D88C4BE218120173
:10091000AB689846904443461A685B68121A8B414C
:100920001000002B0FDD43461A685B680B9800F03F
:10093000E3F9002398460027A4E7814B814A3B2135
:10094000814800F09BFC002B01D10028EBD1002155
:10095000380000F003FCA04219D143461A685B68D6
:100960000892099343469F68DB689846002F14D08D
:10097000002C18D02B681B7B9C4214D8631EEA689D
:10098000D35C9A461B021843286100207AE76F4B1C
:100990006F4A8C216C4800F071FC6E4B6C4A9021C0
:1009A000694800F06BFC664B6B4A4021664800F0DA
:1009B00065FC6A4B664A9F21634800F05FFC00219A
:1009C000049101310391029441460191009728005E
:1009D000FFF77AFE6EE0079B002B0EDD2B69002BE4
:1009E00011D0B34225D100F033F9002927DA504B5A
:1009F000504A3F21504800F041FC069A079B002BCB
:100A000001D1002AEAD12B68002C69D05A7B94428C
:100A10003CD0002C34D01A7B944231D86200121999
:100A2000033A19688C4662449278002A2FD001223A
:100A30002DE04A4B464AA221434800F01FFC089093
:100A4000069A079B12184B41994202D804D1904252
:100A500002D901225242D317002B05DA344B354A12
:100A60003F21354800F00AFC002104910131039137
:100A700002944146019100972800FFF725FE19E0F6
:100A8000374B384A6821384800F0F8FB0122002A29
:100A900026D1DA7B002A29D1DC73002C39D02B68CF
:100AA0001B7B9C4235D8013CEB689C466444237810
:100AB0000133237000232B616A68BFF35F8F1360DB
:100AC00089F310880120002829D000F0C1F80029FE
:100AD00000DBC2E6164B174A3F21174800F0CEFB59
:100AE000224B234AF621204800F0C8FB002A0AD0F6
:100AF000197B8A4207D851008A18033A19688C4634
:100B000062445470C8E7164B164A6821164800F034
:100B1000B5FB0B4B104A40210B4800F0AFFB0CB06B
:100B20001CBC90469946A246F0BDC0464C0600202B
:100B3000683F0010943E0010843F0010FFFFFF0F3D
:100B400058400010EC3E001040410010D43F00100F
:100B5000243F0010EC3F0010F83E0010F83F00105A
:100B60008C400010AC3E0010A84000103440001033
:100B7000DC3E001010B50A4B5B68002B04D00A2144
:100B8000084800F04DF910BD054C2300064A10211D
:100B9000206800F013FA03212000FFF7C5FCEEE700
:100BA000F4020020680600206905001070B5EFF31C
:100BB00005833F2018401038EFF3108472B6194BAC
:100BC0001B68002BFBD0BFF35F8F0123190081400E
:100BD000154A5163154A12781500C5402B4214D0AE
:100BE000114B5D6A8300124E9B599D4206D38300D0
:100BF000104D5B598A430D490A7007E00A4A031DEC
:100C00009B0099589950002300E00023BFF35F8FA9
:100C10000021044A116084F31088002B00D098470B
:100C200070BDC046280100D0004005407F0600206E
:100C30006C060020CC04002010B50100024A0348D5
:100C4000FFF730FC10BDC046A04100107D0600201B
:100C5000044B596A00E01900024B986A5B6A99429A
:100C6000F9D170470040054070B504000D00EFF366
:100C7000108672B61B4B1B68002BFBD0BFF35F8F37
:100C8000002D1CD0200000F027FD174B98420BD000
:100C90001900200000F028FD0121200000F014FDC3
:100CA0000123A340114A1360A400114BE550BFF388
:100CB0005F8F00220B4B1A6086F3108870BDA20074
:100CC00000210B4BD1500122A2400A490B789343DB
:100CD0000B700549200000F031FD0021200000F0DC
:100CE000F3FCE4E7280100D0AD0B001038600540AC
:100CF000CC0400207F060020F0B5DE4600B584B0AD
:100D00000500140001921E000293FFF7A1FF039457
:100D10008E422CD9EFF3108B72B6294B1B68002B37
:100D2000FBD0BFF35F8F274A17780124AC40E3B2B2
:100D30003B431370244B5C632A1D92000199D150F0
:100D4000AA002249029850501B6A23421BD11E4B15
:100D50001B6C234211D00020BFF35F8F0022184B81
:100D60001A608BF3108804B004BC9346F0BD8E4229
:100D700001D18442CED80120F5E7154B154AC12197
:100D8000154800F07BFAFFF763FF8E4214D802D1BA
:100D9000039B834210D80B4B1B789F420ED00A4B0B
:100DA0001C625C631F222A40012393400B4A13609C
:100DB000044B1F700120CFE70020CDE70120CBE7D7
:100DC000280100D07F060020004005406C0600206E
:100DD000C441001084410010E841001080E200E0AE
:100DE00010B5EFF3108472B60A4B1B68002BFBD0D2
:100DF000BFF35F8F01238340074A136207490A78D4
:100E00009A430A70BFF35F8F0022024B1A6084F38B
:100E1000108810BD280100D0004005407F0600204A
:100E2000024B9C46614489000160704740000034D9
:100E300010B50400FFF76AFB01002000FFF7F0FF88
:100E4000FF232371BFF35F8F10BD10B50400FFF7C0
:100E50005DFB01002000FFF7E3FFFF232371002368
:100E60006371BFF35F8F10BD10B500291FD0037BE6
:100E700099421CD84B005B18033B0468A4466344AA
:100E800000291AD0002A1ED0914222D0002A26D052
:100E9000047BA24223D8046850008018033820182D
:100EA00081701978002920D041701A7010BD104B44
:100EB000104A6821104800F0E1F9104B104A6F31D8
:100EC0000D4800F0DBF90F4B0D4A70210A4800F085
:100ED000D5F90D4B0A4A7121074800F0CFF9044BB0
:100EE000044A6821044800F0C9F91A70DEE7C046D8
:100EF0008C400010D8420010A8400010FC400010A8
:100F0000E4420010084100101441001070B50600C2
:100F10000D001400002916D0002A01D1080013E0AA
:100F2000806873689847002806D12A0021003000A5
:100F3000FFF79AFF200007E0220029003000FFF7AA
:100F400093FF280000E0100070BD000010B50023E2
:100F5000437301338373037BC373012308E05A0097
:100F6000D218033A01688C4662440133DBB25370F5
:100F7000027B93420AD2002B02D0027B9342EED92D
:100F80000B4B0C4A68210C4800F078F9002A09D074
:100F9000924207D8016853009A18033A8A1800232E
:100FA000537010BD024B034A6821034800F066F9F4
:100FB0008C400010D8420010A840001010B50173FA
:100FC00042608360FFF7C2FF10BD000070B50400EF
:100FD000002901D1080070BD002928D0037B994267
:100FE00025D84B005B18033B0268944663445A784B
:100FF000002AEFD021D0007B82421ED850008018FA
:1010000003382568AC4660444678002545705D701D
:101010002000FFF77BFF050031002000FFF7D6FF1F
:10102000020029002000FFF771FF0100D2E7064B04
:10103000064A6821064800F021F9034B034A68215B
:10104000034800F01BF9C0468C400010D842001045
:10105000A840001070B505000C001600002928D02B
:101060002DD0037B99422AD84B005B18033B0268C2
:10107000944663445A78002A27D19A78002A2AD1C4
:101080001978FFF7A3FF0300002E03D0EA7B002AA4
:1010900027D1EC73002B37D1002C49D02B7B9C42FD
:1010A00046D82A6863001C19033C14190023637096
:1010B00070BD224B224A3821224800F0DFF8224B33
:1010C000224A6821224800F0D9F8224B1C4A3A21D2
:1010D0001C4800F0D3F8204B194A3B21194800F076
:1010E000CDF8002A0AD0297B8A4207D851008A18F5
:1010F000033A29688C4662445470CAE7124B134A7B
:101100006821134800F0BAF8002B0BD02A7B9342D9
:1011100008D843001B18033B2A6894466344002206
:101120009A70B9E7084B094A6821094800F0A6F807
:10113000054B064A6821064800F0A0F84C43001011
:10114000F8420010544300108C400010D8420010A8
:10115000A840001098430010C043001070B5040070
:101160000A00457B2900FFF775FF6073280070BDFA
:1011700010B5040000296AD0437B99420ED00029A3
:1011800011D0037B99420ED84B005B18033B0268D9
:10119000D0188378002B0CD1002059E00121FFF7F3
:1011A000DDFF012054E02B4B2B4A68212B4800F037
:1011B00065F8002B1AD0227B934217D85A00D31817
:1011C000033B2268D2181378994215D0002B16D011
:1011D000227B934213D85A00D318033B2268D218BB
:1011E0005378994211D0002BF0D111E0194B1A4AD3
:1011F00068211A4800F042F8437813700AE0154B52
:10120000154A6821154800F039F8437853700123D6
:10121000002B10D000238370437001222000FFF7C1
:1012200019FF0200617B88420BD02000FFF76EFEA1
:10123000607301200CE00A4B0A4A67210A4800F05B
:101240001DF80A4B074A6D21074800F017F80020E7
:1012500010BDC0468C400010D8420010A8400010BD
:10126000244300100C430010544300102C43001082
:1012700000BEFDE710B5FFF7FBFF000010B582B020
:101280000C001900002A0CD0084B002A0BD0019248
:10129000009323000200064802F042FD0120FFF700
:1012A000E7FF044BF1E7034AF1E7C046E4430010CF
:1012B000F4430010F043001070B52B4A2B4B1A601A
:1012C0002B4A2C4B1A602C4B9A68294B9343FAD12A
:1012D0002A4C01E008CC9847294B9C42FAD300F0F5
:1012E000FFF8284A234B1A60234B9B68DB43DB0142
:1012F000FAD1254B40229A675A671A67DA66234C5F
:1013000003E02000FFF7A1FD0834214B9C420FD2DF
:101310002368002B07D0012BF3D01E4B1E4A8321DC
:101320001E48FFF7ABFF2000FFF782FD0834ECE713
:101330001B4CA1681B4DC022280002F0C3FBA56016
:10134000FEF791FF002800D000BEFFF7CFF800F0B5
:1013500045FBFFF70FFC144C01E008CC9847134BFA
:101360009C42FAD370BDC046BFCDFBFE00E00040FA
:10137000FE7F3C0000F0004000C0004098030020C9
:10138000A8030020FFFFFF0100F0014090030020B0
:1013900098030020484400102444001068440010C2
:1013A00000ED00E000000020A8030020B0030020B2
:1013B0000FB400B583B0084802F080FC049B002BFA
:1013C00007D005A90191180002F088FC034802F03B
:1013D00075FC0120FFF74CFF34440010444400101A
:1013E000F0B5DE46574680B583B007000D00924643
:1013F0000A9A93424DD31A0E110001921B02180053
:1014000000930A9A002301F0B5FC04007B00DB196D
:101410009E002E4B9C4666447368834200D27060E7
:101420003B1FDBB29B46012B39D9C0239B013343C1
:10143000802212011A60BB00254A9958002905D064
:10144000506901F055FC01300138FDD153465B0174
:1014500032685340E022134080225201324313602D
:101460005B46012B26D980239B0133438022120146
:101470001A607460220000230098019901F07AFC40
:10148000BF00134BF850012003B00CBC92469B46A2
:10149000F0BD104B104A2D211048FFF7EFFE012D33
:1014A000C3D1C0239B01334303221A60B368DB0717
:1014B000FCD5CBE73168694003230B401360B36868
:1014C0000122AA401A42FAD0CDE7C046008000406F
:1014D000DC050020C4440010B4440010D8440010BF
:1014E00030B583B00C2000F013FBFEF7F5FF0028A9
:1014F0000DD0002304E099002D482E4A8850013376
:10150000092BF8D92C4A2B4B5A6203B030BD00226C
:101510002A4B9A6700F004FB0122294B1A60274BE3
:101520005B6C012BFBD10322264B1A60234B9B6B78
:10153000012BFBD1022400940533234A01212348C7
:1015400000F05AFA00940523214A0121214800F0B5
:1015500053FA214B0093002202210420FFF740FFA1
:101560001E4D00952B00002201210520FFF738FFBA
:101570000F4C00942300002200210720FFF730FFCA
:1015800000942300002200210820FFF729FF0A4BC6
:1015900000932300002200210920FFF721FF00957E
:1015A0002B00002200210620FFF71AFFADE7C046FE
:1015B000006CDC02DC0500201BB70000008000404E
:1015C0003CB0004030B00040002F6859008002401D
:1015D00000389C1C00C00240001BB7004059730734
:1015E000074B9B68103080001950BFF35F8FBFF32B
:1015F0005F8F0021034B196082F310887047C0464B
:1016000000ED00E0240100D010B5091A0B1F0A4AB2
:1016100094466144094A914208D8DA0706D45B101F
:101620005B055B0D0648184380B210BD054B064AAA
:101630008B210648FFF722FEFC070000FE0F00008A
:1016400000E0FFFF2C470010444500105C470010ED
:1016500010B5091A04394C08090B08D14905490D80
:10166000064A11430180064B2343438010BD054BBE
:10167000054A93210548FFF701FEC04600F0FFFF31
:1016800000F8FFFFA8450010504500105C4700100F
:1016900001238340034A10681840431E9841C0B29A
:1016A0007047C04600E100E0002902D1034B1860FA
:1016B0007047034B1860034B1860F9E780E100E0C6
:1016C00080E200E000E100E010B501238340180053
:1016D000FFF7EAFF10BD0000024B9B68103080004E
:1016E000C058704700ED00E070B504000D00EFF346
:1016F000108672B60C4B1B68002BFBD0BFF35F8FBC
:101700002000FFF7E9FF094B984201D0A84205D11C
:10171000320029002000FFF763FF70BD044B054A2B
:101720006E210548FFF7AAFD240100D0CD0100106D
:10173000F4460010284500105C470010F0B5CE4676
:1017400000B582B005000F00EFF3108972B6564B5A
:101750001B68002BFBD0BFF35F8F544B9A682C00A3
:101760001034A300D658524B9E4200D198E0BE429E
:1017700000D197E000964F4BF31A2F2B08D94A4619
:1017800031002800FFF72CFF02B004BC9146F0BDE9
:101790002800FFF77DFF019000212800FFF794FF4C
:1017A000BFF35F8FFEF75FFD011E01D0844211D1B0
:1017B0000123009C9C430020A3689F4212D0062274
:1017C000A256002A0DDB53009B189A002000394CCA
:1017D000A418F1E7384B394A1E21FF313848FFF78A
:1017E0004DFD20009F4254D10627E757002F36DBDE
:1017F0007A00D21991002F4B5B189A68A260DA79AF
:10180000E27106229A56A2719B795BB2002B23DB10
:10181000201D284A8B181A1D9B88D90A1C2915D10E
:1018200059054915023149005118FFF7EDFEA08016
:101830007B00DB199A001F4B9B18224A1178997183
:10184000177001992800FFF73FFF98E71E4B1F4ACA
:1018500099211B48FFF712FDBD200002E7E7002990
:1018600012D100280ED0FF238371194B8380154AB3
:101870001378A371174B0F49641A644163431B0D1E
:101880001370DEE70A4EF2E7201D1349FFF7E0FE72
:10189000D7E7124B094A5221FF310948FFF7EEFC06
:1018A000034E6CE7024E6AE7240100D000ED00E031
:1018B000CD0100101C030020C84600107845001020
:1018C0005C4700107E0600207C4600106845001032
:1018D00000BDFFFFAAAA000056030020EC4600103E
:1018E000F8B5040001260643304BF31A2F2B28D8F5
:1018F000FEF7B9FC00282BD0EFF3108572B62C4B05
:101900001B68002BFBD0BFF35F8F2A492300274AB7
:101910009B1A5B415943090D49B2274B9B688000D4
:101920001B589E421BD00023032B28D85A00D218E4
:1019300090001E4A1218927952B28A4214D0013392
:10194000F2E71E4B1E4ABB2149001E48FFF796FCDA
:101950001D4B1B4A7A21FF311A48FFF78FFC164BAB
:101960009B681A4A1A500DE010485A00D718BE005A
:101970008619FF27B771164BB380012300E00023BF
:10198000002B0BD0134B1A78A2711970BFF35F8F25
:101990000022074B1A6085F31088F8BD0E4B084AE9
:1019A000C52149000748FFF769FCC0461C03002019
:1019B000240100D0AAAA000000ED00E09446001027
:1019C0008C4500105C470010BC460010CD01001093
:1019D00000BDFFFF7E060020244300100023044AC0
:1019E00003E00449116001330432072BF9D9704731
:1019F00000E400E080808080F0B5CE4600B50500B0
:101A00000C0017001E000C2001F072F981463549C8
:101A10004143380001F06CF90200103A98235B0052
:101A20009A4232D8731E062B35D8069B013B062BF3
:101A300031D8069B9E4234D33F09B94537D8330489
:101A4000069A16031E432B68002B36DB264B9D425D
:101A500044D080214901254B1960254B1960254A46
:101A600092680B009343FAD12C60A8602A1DC02312
:101A70009B01134321221A602A68002AFCDAEE60D7
:101A800008221A6004BC9146F0BD1B4B1B4A16216C
:101A90001B48FFF7F3FB1B4B184A19211848FFF7A7
:101AA000EDFB194B154A1F211548FFF7E7FB174BB4
:101AB000124A22211248FFF7E1FB2A683F23134014
:101AC0009C42C3D1AB681B051B0D9842BED1EB688D
:101AD000EE22D20213409E42B8D1D3E78021890181
:101AE000B9E7C04640420F0000C0024000E000409D
:101AF00000F0004000C00040B0470010A4470010B4
:101B0000CC470010144800106048001078480010BE
:101B100080239B001843014BD8627047008005402A
:101B2000064BAA2212011A602F22DA60044A054BE2
:101B30001A60024B5B68002BFBDA704700400240E2
:101B400000B0FA0000600240704710B5002800D1D4
:101B500010BD0B6849689847FAE710B504000023E8
:101B600007E09800C31858004B1C23600B781B1823
:101B7000303B21680A78303AD2B2092AF1D91800EC
:101B800010BDF0B5D6464F464646C0B582B00500FA
:101B9000009101930A9B99460B9C0C9B98460D9BC8
:101BA0009B0717D04B4691461E0022E0541C019B18
:101BB00000992020B04701372200AF42F6D35446A7
:101BC0000C95350046460C9B98464B460A93B14609
:101BD0001E000EE02700A24643460C9390460600E6
:101BE0001D00EAE7013C571C305D019B0099A847A6
:101BF0003A00002CF6D14E460D9B9B070BD52C00CE
:101C0000474605E0551C019B00992020A0472A006B
:101C1000931B9F42F6D8100002B01CBC9046994618
:101C2000A246F0BDF0B5CE4600B586B0049205934D
:101C30000C9D0D9C0EAE33789946109A119B129E06
:101C4000B7071CD4002B0CD0F7070AD54F46002F3E
:101C500002D10C37374204D0013B02E030272F5528
:101C60000134944205D21F2CF8D902E030272F55B9
:101C70000134F70703D59C4201D21F2CF6D9F70691
:101C800015D5770505D4002C03D094421CD09C4276
:101C90001AD00F9A102A23D00F9A102A28D00F9A00
:101CA000022A2DD01F2C02D830272F5501341F2C8B
:101CB0002FD84A46002A29D1720736D4320728D5B0
:101CC00020272F55013424E0671E002F06D00F9ADD
:101CD000102A01D03C00DCE7023CDAE73C00D8E700
:101CE000B206D9D41F2CD7D878272F550134D9E77D
:101CF000B206D4D51F2CD2D858272F550134D1E79E
:101D00001F2CCFD862272F550134CBE72D272F5515
:101D100001340396029301940095059B049AFFF702
:101D200030FF06B004BC9146F0BD2B272F5501347F
:101D3000EFE7F0B5C64600B594B0089009910A9255
:101D40000B931AAB10CB1B7898461F9D002C01D12A
:101D500010239D438027FF002F4015D0002C20D05A
:101D6000002711E0AA061AD54121C918C9B20A39BB
:101D7000C9B20CABD9551C99200000F0B9FF041E64
:101D800010D037001F2E0DD81C99200000F0B0FF96
:101D9000CBB27E1C092BE5D83033D9B2E9E76121FB
:101DA000E3E7002606951E9B05931D9B04931C9B51
:101DB00003934346029301960CAB00930B9B0A9A44
:101DC00009990898FFF72EFF14B004BC9046F0BDA7
:101DD000F0B5DE46574680B599B00C900D910E9245
:101DE0000F93209C219D22AB1B789B46249B0A933A
:101DF000259B0B93289B9A4623002B4303D110333A
:101E000052469A4392468026F60053461E4006D01C
:101E100023002B432FD000265746099419E057463C
:101E2000099416E0BA0621D54122D218D2B20A3A54
:101E3000D2B210AB9A550A9A0B9B0998290000F070
:101E400099FF09900D000B00034316D026001F2CAC
:101E50000ED80A9A0B9B0998290000F08BFFD3B289
:101E6000741C092BDED83033DAB2E2E76122DCE7FA
:101E7000BA46270003E0002701E0BA462700534690
:101E80000693279B0593269B04930A9B03935B462B
:101E90000293019710AB00930F9B0E9A0D990C982B
:101EA000FFF7C0FE19B00CBC92469B46F0BD000087
:101EB000F0B5DE4657464646C0B594B004000691DC
:101EC000150007931C9E08961D9F099732003B0042
:101ED0003000390001F0DDF9002800D0E9E00122EE
:101EE0005242D04B3000390001F0CEF9002800D02A
:101EF000DFE001225242CC4B3000390001F0AEF954
:101F0000002800D0D5E0002200230898099901F0AC
:101F1000A5F9002800D0E2E0089A099B0A920B93E9
:101F20008023DB00209A1A409246131E01D106330B
:101F30001E930A980B9902000B000C920D9303005C
:101F40000A00024300D1D3E00A00100D4005400D05
:101F5000B64EB44660441203120B1E00B44B13433A
:101F60001F0001F0A9F9B34AB34B01F034F9B34AA9
:101F7000B34B01F009F90C900D910022B14B3000E8
:101F8000390001F0F8F8B04AB04B01F024F9020032
:101F90000B000C980D9901F0F7F801F0A5F9060077
:101FA00001F08AF9AA4AAB4B0C900D9101F013F99C
:101FB0000022A94B01F0E8F801F096F90700A74AC2
:101FC000A74B0C980D9901F006F90C900D91380073
:101FD00001F072F9A34AA44B01F0FDF802000B00D6
:101FE0000C980D9901F0C7F802000B000E900F91AC
:101FF00001F0F1F8109011919C4BFB181B050D930B
:1020000000230C930E980F9902000B0001F0BCF80E
:10201000129013910E9A0F9B00208021C90501F0A8
:10202000AAF80E900F910022914B1098119901F08F
:10203000B4F800228F4B01F0A7F802000B001098B3
:10204000119901F0AAF800228B4B01F09DF80200D3
:102050000B001098119901F0A0F802000B000E98E7
:102060000F9901F091F802000B001298139901F0FA
:1020700094F800226E4B01F087F80C9A0D9B01F04A
:10208000AAF802000B000C920D930E900F91020023
:102090000B000A980B9901F0E1F8002829D0013EC5
:1020A0000022744B0E980F9901F077F80C900D9167
:1020B0001FE0209B04931F9B03931E9B0293089A8F
:1020C000099B00920193079B2A000699200000F0CB
:1020D000F7F814B01CBC90469A46A346F0BD089B86
:1020E0000A93099B80221206944663440B9317E7D8
:1020F000002633006333C62B2BD80427209B1B05F7
:1021000021D50C9A0D9B190011430FD05B4A5C4BF3
:102110000A980B9901F0B0F800281FD00022594B03
:102120000A980B9901F09AF8002817D01E9B9E423E
:1021300011DA9E1B731E1E938023DB00209A1A4324
:102140002092002700261F9B9F4211D2DB1B9B463B
:1021500010E00527D2E700231E93EDE71E9B002B1E
:10216000F1D05346002BEED01E9B013B1E93EAE7B5
:1021700000239B460223209A1A40924603D0002F48
:1021800001D000239B46002E07D00C9A0D9B0A9885
:102190000B9901F002F80A900B9100220023089895
:1021A000099901F05BF8002870D1374B209A134051
:1021B00004935B4603931E9B02930A9A0B9B009227
:1021C0000193079B2A000699200000F079F8002F60
:1021D00000D17EE7209B9B0663D545230893431CD3
:1021E0009846079B020006990898A047F217B11875
:1021F0005140F30F7A1E05200590049200220392AD
:102200000A32029201930091079B424606992000F0
:10221000FFF78FFD5346002B00D15AE702001F9EA7
:1022200048E0C046FFFFEF7FFFFFEFFF01FCFFFF2D
:102230000000F03FFB799F501344D33FB3C8608B3D
:10224000288AC63F0000F83F61436F63A787D23FEB
:1022500071A379094F930A400000E03F1655B5BBC2
:10226000B16B0240EF39FAFE422EE63FFF03000059
:1022700000002C4000002440000018402D431CEBBF
:10228000E2361A3F80842E41FFF7FFFF0A990A00C9
:102290000B9980200006844661440B000A920B9340
:1022A00083E7652308939AE7571C079B069920202C
:1022B000A0473A00531B9E42F6D8100009E7C046DB
:1022C000F0B5D646474680B597B00690079108927C
:1022D0000993209F1E9A1F9B1000190000F0D9FF40
:1022E00000282AD101225242BA4B1E981F9900F0B1
:1022F000B5FF002830D101225242B74B1E981F99DA
:1023000000F0C2FF00283AD00423229A134032D0B2
:10231000B24A002B31D103232299039121990291D2
:1023200001930092099B089A07990698FFF729FCE8
:1023300017B00CBC90469A46F0BD229B0393219B9C
:10234000029303230193A64B0093099B089A0799D4
:102350000698FFF716FCEBE7229B0393219B029361
:10236000042301939F4B0093099B089A07990698B1
:10237000FFF707FCDCE79C4ACBE70423CCE700220D
:102380009A4B1E981F9900F07FFF002817D100225A
:10239000974B1E981F9900F061FF00280FD1002273
:1023A00000231E981F9900F059FF002817D1002321
:1023B0009A46229B5B0500D4062700261FE0229B3D
:1023C0000493219B039302971E9B1F9C00930194EF
:1023D000099B089A07990698FFF76AFDA8E71E9AD5
:1023E0001F9B0020002100F0C6FE1E901F910123BC
:1023F0009A46DEE730220EAB9A55013F01361F2E7A
:1024000001D8092FF6D81E981F9900F06DFF04001F
:1024100000F052FF02000B001E981F9900F0ABFE67
:10242000FA00744B9B181A685B680C920D9300F0CD
:10243000D2FE0A900B9100F07BFF050000F038FF00
:1024400002000B000A980B9900F095FE0A900B9180
:102450000022694B00F018FF00282CD0013528001D
:1024600000F026FF02000B000C980D9900F0FCFE16
:10247000002801D001340025002F2AD1200000F0CF
:102480001BFF02000B001E981F9900F074FE002233
:10249000594B0A900B9100F0E1FE002843D1002235
:1024A000554B0A980B9900F0EFFE00283BD1E3074B
:1024B00039D5013437E000224F4B0A980B9900F0D0
:1024C000CDFE0028D8D1002D01D0EB07D4D50135A1
:1024D000D2E70A941F2E10D8013F741C0A2128004D
:1024E00000F006FC30310EAB99550A21280000F0AF
:1024F000FFFB051E03D02600ECE70A9C08E0A0467F
:102500000A9C464604E030210EAA91551F00013670
:102510001F2E02D87B1E002FF5D11F2E03D82E228E
:102520000EAB9A5501361F2E10D8751C0A212000BB
:1025300000F0B6FB30310EAB99550A21200000F0B7
:10254000AFFB041E01D02E00EDE72E000323229ADC
:102550001340012B16D01F2E06D85346002B28D02F
:102560002D220EAB9A550136229B0393219B029399
:1025700001960EAB0093099B089A07990698FFF7FE
:1025800000FBD5E6219B002B0DD05346002B02D13A
:102590000C33134207D0219B013B219303E03022EF
:1025A0000EAB9A550136219B9E42D4D21F2EF6D9EE
:1025B000D1E7229B5B0704D52B220EAB9A5501363F
:1025C000D2E7229B1B07CFD520220EAB9A550136AE
:1025D000CAE7C046FFFFEFFFFFFFEF7F744A00101E
:1025E000804A0010844A00107C4A001065CDCD411D
:1025F00065CDCDC1904A00100000E03FF0B5DE4649
:1026000057464E464546E0B593B083460B910A9235
:102610001193002912D000275E46119B18780028DC
:1026200000D1E5E225280CD07C1C0A9B3A000B99CE
:10263000B047119B013311932700EEE7CD4B9B462A
:10264000E9E701331193002506E001231D43013220
:1026500011920124002C23D0119A1378203BD9B277
:1026600010291BD88B00C449CB589F4602231D4319
:10267000013211920124EDE704231D43013211922E
:102680000124E7E708231D43013211920124E1E709
:1026900010231D43013211920124DBE70024D9E706
:1026A000119B1A781300303BDBB2092B10D92A2A70
:1026B00013D0A346119B1A782E2A1ED0119A137894
:1026C000683BD9B2122959D88B00AC49CB589F46E8
:1026D00011A8FFF742FA8346ECE71C9B1A1D1C92D7
:1026E0001B68002B04DB9B46119B01331193E1E730
:1026F000022215435B429B46F6E78022D200154337
:102700005A1C11925A781300303BDBB2092B0BD9BB
:102710002A2AD3D11C9B1A1D1C921C68002C08DB92
:10272000119B01331193C9E711A8FFF716FA0400B2
:10273000C4E70024F4E780235B002B43511C119174
:1027400052786C2A01D01D0018E0C0239B001D4365
:102750000131119112E080232B43511C11915278C9
:10276000682A01D01D0009E0C0231D4301311191E9
:1027700004E080235B001D4301321192119B187805
:102780000300253BDAB2532A00D927E293007C4AA2
:10279000D3589F4680239B001D4301321192EDE7E1
:1027A00080235B001D4301321192E7E778280AD0AD
:1027B000582840D06F2841D0622842D010239D4332
:1027C000063B9C4601E010239C4658283CD06928D3
:1027D00003D0642801D00C2295436B0501D501225A
:1027E0009543692833D0642831D0AB0500D5A4E0E7
:1027F000EB0500D5C6E06B0600D5D8E02B0600D46B
:10280000DCE01C9A111D1C9112681204120C059533
:102810005B46049303946346029300230193009262
:102820000A9B3A000B993000FFF783FA0700119BCF
:1028300001331193F1E610239C46C6E708239C461A
:10284000C3E702239C46C0E720221543BFE7AB0540
:102850001ED4EB054DD46B0663D42B0668D51C9AA9
:10286000111D1C910023D25ED317D1185940D20FED
:1028700005955B460493039463460293019200918D
:102880000A9B3A000B993000FFF753FA0700CEE796
:102890001C9BDA1D07218A43110008311C91116825
:1028A00053689846DB170E930F930E9A0F9B1000F8
:1028B00048400C901900404641400D910C980D99EC
:1028C000801A99410C900D914346DA0F08955B46AA
:1028D00007930694634604930023059302920090A5
:1028E00001910A9B3A000B993000FFF771FA07003B
:1028F0009DE71C9A111D1C911268D317D1185940DD
:10290000D20F05955B4604930394634602930192AC
:1029100000910A9B3A000B993000FFF70AFA070072
:1029200085E71C9A111D1C911168FF220A409BE744
:102930001C9A111D1C91126896E71C9BDA1D072139
:102940008A43110008311C91536812680092019368
:10295000002208955B46079306946346049305920C
:1029600002920A9B3A000B993000FFF731FA0700F8
:102970005DE7C046491B001094480010D84800107D
:10298000244900101C9A111D1C9113680093059591
:102990005B460493039463460293002301930A9BCE
:1029A0003A000B993000FFF7C4F907003FE71C9A83
:1029B000111D1C911168FF220A4028E71C9A111D65
:1029C0001C91126823E7462819D01C9B0733072265
:1029D00093431A0008321C921A685B6800920193B4
:1029E00004955B46039302940A9B3A000B993000CE
:1029F000FFF766FC0700119B013311930DE62023BE
:102A00001D43E2E767281FD047281DD045281FD067
:102A100047281DD01C9B0733072293431A00083216
:102A20001C921A685B680092019304955B460393BD
:102A300002940A9B3A000B993000FFF739FA07001D
:102A4000119B01331193E8E580231B011D43DDE752
:102A500020231D43DEE702232B409A461ED001258A
:102A60001C9B1A1D1C927C1C18780A9B3A000B991F
:102A7000B0475346002B22D1119B013311932700FD
:102A8000CBE5541C0A9B0B992020B0472B00220059
:102A90005D1C9F42F5D8BB461700E1E701233A00D1
:102AA0005F46F5E7571C0A9B0B992020C04725007D
:102AB0003A006C1CAE42F5D814004646DCE7220012
:102AC000B0465E46F5E71C9B1A1D1C921B68984693
:102AD000002C02D02300414604E001235B42FAE7C8
:102AE000013113000A78002A02D05A1E002BF7D1B8
:102AF0004346CB1A9A468023DB002B40994602D0EE
:102B0000A24500D9A24602232B40109315D03A00CB
:102B10004546B0464E461CE0571C0A9B0B992020A8
:102B2000B0472B003A005D1C9C42F5D8A3465446A2
:102B3000AA464546B0464E460BE03A005346A246EA
:102B40005C46F0E71C000135571C0A9B0B99C047F7
:102B50003A002878002804D0002EF4D0631E002C00
:102B6000F0D117004646109B002B0FD1119B01336B
:102B7000119352E5551C0A9B0B992020B047230066
:102B80002A005C1C9F42F5D81700EFE75F465346CA
:102B9000F7E721232B431C9A111D1C911268009208
:102BA00005930823049303940833029300230193AD
:102BB0000A9B3A000B993000FFF7BBF80700119B06
:102BC0000133119329E57C1C0A9B3A000B992520BF
:102BD000B047119B0133119327001EE57C1C0A9B13
:102BE0003A000B99B047119B01331193270014E56C
:102BF000B3460A9A97420CD3013A0A9B0B990020DC
:102C0000D847380013B03CBC90469946A246AB4624
:102C1000F0BD3A00F1E7C04600B585B002900391DF
:102C2000009313000122524202A90248FFF7E6FC7A
:102C300005B000BD4B1B001001480421014B184793
:102C400070030020692C001010B5010018231B88A8
:102C500014221088984710BD10B5010018231B8856
:102C600016221088984710BDF0B5C64600B507007B
:102C70000E0000250123984600E00135B5420AD236
:102C8000AC003C192068FFF7DFFF20600028F4D17A
:102C900000239846F1E7404604BC9046F0BD000092
:102CA000124A936F9B0815D29066D166002905D011
:102CB000FFE7FFE7FFE7516F106F704704B5802112
:102CC0000906C2175140002800D0C84301F0C4F8DB
:102CD000002104BDF0B5146E556E576F166FFFF7E7
:102CE000E3FF1466556657671667F0BD000000D015
:102CF000114A936F9B0813D210665166002905D0C4
:102D0000FFE7FFE7FFE7516F106F704704B500283A
:102D100001D00020C04301F09FF8002104BDC0464F
:102D2000F0B5146E556E576F166FFFF7E5FF14661A
:102D3000556657671667F0BD000000D094464E4AAE
:102D4000926F9208624601D230E0C046F0B54A4E1A
:102D5000B56F6D08FCD3346E756E776F366F00F00B
:102D600025F89446444A14665566576716676246C6
:102D7000F0BDC0469446404A926F9208624601D226
:102D800058E0C046F0B53C4EB56F6D08FCD3346ECC
:102D9000756E776F366F00F04DF89446364A1466BC
:102DA0005566576716676246F0BDC046002B24DBA8
:102DB00011D000293EDA00B5C943404200D10131AB
:102DC00000F038F8C943404200D10131DB435242A0
:102DD00000D1013300BD002AEBD1002801D1002928
:102DE00005D00020C90FC90701D1C043410800B573
:102DF00001F02AF80022002300BD00B500290ADBFB
:102E0000DB43524200D1013300F014F8C943404281
:102E100000D1013100BDC943404200D10131DB4343
:102E2000524200D1013300F005F8DB43524200D199
:102E3000013300BD002923D1002B18D1002A0CD06A
:102E4000BC460D4F38667A6600210023FFE7FFE796
:102E5000FFE77A6F386F67467047002801D0074850
:102E6000010000B500F0F0FF0022002300BD0200C9
:102E70000B00002000217047000000D0FFFFFFFF83
:102E8000002B00D0BFE0130C28D1002AE7D080B47B
:102E9000114F39667A66FFE7FFE730B4040C7B6FA9
:102EA000396F1B0423433B667A66FFE7FFE7FFE7C2
:102EB000C04684B27B6F3D6F1B0423433B667A663A
:102EC000FFE7FFE7C04600232C042D0C7A6F386F14
:102ED00000196941B0BC7047000000D0F0B59446BD
:102EE0000025140E01D112020835140F01D1120170
:102EF0000435940F01D192000235D40F01D1520054
:102F00000135D40B0134254F7C66254C3C660E0CF4
:102F100093B2FFE7FFE7FFE73C6F6643360C7703AA
:102F2000BE467343DF0B5B04C01AB941130C7343F5
:102F3000DB18C91ACE086643360CB64493B2734305
:102F40001F0F1B01C01AB941130C73431F0B1B0544
:102F5000C01AB941860D8F023E436643360C092DD7
:102F600024DB520A7243801A7703460A6643360C02
:102F700016235B1BDE40DF40BF1964466643821B9D
:102F80007046043506330100D940A840C01900D36B
:102F90000131A24206D20023F0BD0000000000D0A3
:102FA000FFFFFFFF121B0130F3D3F1E709277F1B5F
:102FB000FE406446A2B27243801A00D20139220C4C
:102FC0007243130C1204821A99410B0070460435A7
:102FD00013370100F940A840801900D30131002BBC
:102FE00002D1A2420AD2F0BD013000D30131121B3E
:102FF000FAD2013BF8D1A24200D2F0BD013000D399
:103000000131121BF7E7F0B51C0C00D080E00CB4C6
:1030100000251C0A04D11B02160E33431202083588
:103020001C0B04D11B01160F3343120104359C0BFA
:1030300004D19B00960F334392000235DC0B02D182
:1030400092185B4101351C00971864410134464FCA
:103050007C66464C3C660E0CFFE7FFE7FFE7C04688
:103060003C6F6643360C7703BE4697B27743C01B6E
:1030700000D20139C01B00D201399FB27743C91B6E
:10308000C91B170C77437E04FF0B801BB941CE0888
:103090006643360C0C2D33DBB644120B1F053A4346
:1030A0001B0B97B27743C01B00D201399FB2774305
:1030B000C91B170C77433E043F0C801BB941860D9A
:1030C0008F023E43664329277F1BFE400C3D774617
:1030D000AF40BF1930BCA2B2ABB272437343801A87
:1030E0009941220C7243130C1204801A9941020078
:1030F0000B000137001BA941F9D2781E0021F0BD59
:103100000C277F1BFE4077467F0BAF40FF19E0E79F
:1031100000245D1C07D0144F7D663966FFE7FFE78A
:10312000FFE7FFE73C6F95B29EB265436643401BE5
:10313000B141150C1E0C6543664336042F0C3E430B
:103140002D04401BB141994204D202000B00200023
:103150000021F0BD01D19042F7D3801A994101348A
:103160009942F2D3F6E70000000000D0FFFFFFFF16
:1031700048404140484018B41B4B5B68FC460193F3
:1031800008BD04DF4B34001018B4174B1B68FC4615
:10319000019308BD00DF553400109446134A926F26
:1031A000920809D2624618B40F4BDB68FC460193C3
:1031B00008BD0CDF0D3700100C4AF0B5146E556ECB
:1031C000576F166F6246FFF7EEFF084A14665566A2
:1031D00057671667F0BD18B4034B9B68FC46019314
:1031E00008BD08DFB135001080060020000000D0C7
:1031F000FFB550404240504059404B40594000E0DC
:10320000FFB5154F4C00640D03D0BC4204D10C0334
:1032100014D80020090D09055C00640D03D0BC42E0
:1032200004D11C030AD800221B0D1B0501264B40AC
:1032300009D44B4003D58B4200D18242FFBD994255
:10324000FCD19042FFBD0B43DB1803431343F5D081
:10325000C9434918FFBD0000FF07000000B5FFF794
:10326000CFFF804100BDC04600B5FFF7C9FF01D9BF
:10327000002000BD012000BD00B5FFF7B9FF01D956
:10328000002000BD012000BD00B5FFF7B1FF804167
:1032900000BD012040054A00121804D85A00121837
:1032A00001D80020704701207047002070470000BF
:1032B0000021002805D17047C1174840401AFAD0B4
:1032C000C90713B5064B1B6898470CBC441CA240A9
:1032D0001005120B0349091B09051943114310BDC1
:1032E000640600201F04000010B54C00620D80230E
:1032F000D218DB00D21A5B057E2A10DD9E3A13DA63
:10330000CC170903490819435242D14064000134E3
:103310001532202A05DAD0400843604310BD002052
:1033200010BD0846604310BDC80FC018013810BD5D
:1033300018B4044B5B6AFC46019308BD24DFBD381A
:10334000001000008006002070B513231C78012CAB
:1033500027D0012C12DD2048FFF77EFC05001F4816
:10336000FFF77AFC023803789B007F2B1BDD80225D
:1033700029001B4800F0A6FB022C1AD0022C02DC0C
:10338000174B184A9A641848FFF75EFC174B1860F1
:1033900070BD9900124A1348885001331F2BF8D989
:1033A000D7E70023FAE7124B124A32211248FDF701
:1033B00065FF124B1A88B5231B029A4209D1104BA4
:1033C0001A88104B9A4204D10F4B1A880F4B9A421D
:1033D000D4D00020FDF7ECFF53440000534600001A
:1033E00080060020113400104C33000064060020D9
:1033F000E04A0010944B0010404B0010543800007D
:10340000D8380000494600009C38000059460000AA
:1034100007B56046002800D100BE01880A0A0230C4
:10342000DF2AFAD1C9B2820804D302884088000496
:10343000104300E00068024A5050039007BD0000AE
:10344000800600200FB403BC0CBCF0B50124E407D7
:10345000634000E0F0B50C0DCF0F661E3605891BEA
:10346000640503D3C943404200D30131640D03D046
:10347000661CF60A07D0E41B00207F00791C890730
:103480008912803C24031D0DDF0F6E1E36059B1B29
:103490006D0503D3DB43524200D301336D0D03D0DE
:1034A0006E1CF60A07D0ED1B00227F007B1C9B07D9
:1034B0009B12803D2D032F1B661B58D4A446202E43
:1034C00046DA20371400BC401D00BD40F2403341B5
:1034D0002A4380185941CB0F05D0C943C04300226D
:1034E00064425041514162464D0D28D10D0D07D126
:1034F00000281FD0241940414941013A0D0DF9D04F
:10350000640006D3013000D30131002C01D1400802
:103510004000013A0BD4941CE40A04D11205114472
:10352000DB071944F0BDD907204B194300E0D90748
:103530000020F0BD0029DDD1002CDBD1F0BD01322F
:10354000C6074008CD0728434908002EE1D0D9E737
:103550003C2E29DA203E40371400BC4000D0012424
:10356000F24014431A00BB401C43D317ACE7AC46EF
:10357000202F08DA20360400B4400D00B540F84092
:1035800039412843A5E73C2F0CDA203F40360400A0
:10359000B44000D00124F84004430800B1400C437B
:1035A000C117EAE710001900002494E70000F07F3B
:1035B000F0B50C0D661E3605891BE60A6405640D20
:1035C00002D0651CED0A04D0002001210905803CD1
:1035D0002403A4461C0D671E3F05DB1BE70A640598
:1035E000640D02D0651CED0A04D0002201231B05E6
:1035F000803C24037740644497B484B296B2744309
:10360000070C7E43150C6F4380B26843361802D313
:10361000012000043F183004350C00197D41844618
:1036200088B29AB250430C0C62431F0C7C438EB29A
:103630007E43921902D301263604A4191604170CEE
:103640003618674101BC81B29AB25143040C6243FF
:103650001B0C5C4380B25843121802D301200004B3
:1036600024181004130C401863412D185E410020EB
:10367000474106BC88B293B258430C0C6343120C0A
:10368000544389B251435B1802D3012109046418E1
:1036900019041A0C091862416D185641002047415F
:1036A00018BCF902720D1143F0026A0D1043ED02CD
:1036B0000A0D03D16D1940414941013B124E9B1B3C
:1036C0007600B3420ED26D0007D30130002671415F
:1036D0006646354301D1400840001B05C918E40780
:1036E0002144F0BD0BDA013306D1013004D10131A0
:1036F0004F0D01D04908F2E7E1070020F0BD013687
:1037000031050020EBE70000FF030000F0B51C0DC1
:10371000671E3F05DB1BE70A6405640D02D0661CCB
:10372000F60A04D0002201231B05803C2403D02587
:103730002D060026F6432E661E096E66CE0FF6197C
:10374000B44649004F0D02D07E1CF60A03D000207B
:103750000021403F3F033E1BB600B444013F7F05BC
:10376000C91B49082E6F013676089C02950D25432A
:103770007543ED137543AD1301356D10F603761BDC
:103780000CB4CC02450D2C43A2B2B3B25A43270C61
:103790007B43350C6F43A4B26C431B1902D3012445
:1037A00024043F191C041D0CA4187D4124196D41EB
:1037B000009A91B2ACB26143170C7C432B0C5F436F
:1037C00092B25A43A41802D301221204BF18220451
:1037D000230C52187B41019C6C431B19520ED901DA
:1037E0000A434401A01A81B2B2B2514303145A43AE
:1037F000360C734387B27743D617D21900277E4120
:1038000036049B191704160C7F185E417316ED18C9
:10381000F301002680337541A90F06D16400690ABF
:10382000E8055B0A184309D22FE004229444803350
:103830007541A90AA8059B0A184326D3404149416E
:103840002404009A019B0D005543641B4343E41A72
:1038500095B286B27543170C7E43030C5F4392B258
:103860005A43B61802D301221204BF183204330C93
:1038700052197B4152429C41002C02D4002201305B
:1038800051414008CA071043490802B06246D707B1
:103890009210084BD218084B9A4203D2120589188D
:1038A000C919F0BD0020002A01DC3900F0BD013348
:1038B0001905F5E7FD030000FE070000002200B532
:1038C000203200F004F8080000BD000000220B15B3
:1038D0000AD410B5944600F031F81414013400DA1B
:1038E0000021CB17144C2047002000217047624470
:1038F000343A0CD40C2A07DA04009140904052422A
:103900002032D440214310BDD843D94310BD2032CA
:1039100007D40C469440524220321141D0402043FB
:1039200010BD0800C917203203D452422032104182
:1039300010BD1800190010BDEF3800100A0DCC0F93
:10394000531E1B05C91A520503D3C943404200D375
:103950000131520D03D0531CDB0A07D0121B00208B
:103960006400611C89078912803A1203014BD21A44
:1039700070470000FF03000070B513231D782A482C
:10398000FFF76AF90400012D11D0012D09DDA31EF6
:103990001B789B007F2B40DD80222100234800F014
:1039A00091F82348FFF750F9224B186070BD54225C
:1039B00001001E4800F086F81F4B1A881F4B9A42E0
:1039C0001CD1A7239B011A881D4B9A4216D11D4B6F
:1039D0001A881D4B9A4211D11C4B1A8894239B01C3
:1039E0009A420BD11A4B1A881A4B9A4206D11A4B9B
:1039F0001A681A4B9A4201D1152307E01848FDF7BF
:103A0000D7FC9900094A1748885001331F2BF8D971
:103A1000144A064B1A62DA61B7E7134B134A422184
:103A20001348FDF72BFCC0465346000080070020DA
:103A30004C33000064060020EE290000C40F000093
:103A4000C20D0000962B0000C0B50000182B00002E
:103A5000CC2A000010B50000FC2C000051ED87645A
:103A6000F0430010753A0010A84B00102C4C0010C9
:103A7000DC4B001007B56046002800D100BE01886D
:103A80000A0A0230DF2AFAD1C9B2820804D30288B6
:103A900040880004104300E00068024A5050039040
:103AA00007BD00008007002001480421014B184792
:103AB00080030020692C0010014B1B681847000090
:103AC00080030020014B5B68184700008003002042
:103AD00010B50C00036811002000984710BD0000CD
:103AE000F8B507000D001600437C002B02D000241F
:103AF00000200CE0036811002800984729E03B7C77
:103B000010E0022116483B689847601C0134B4421B
:103B100014DA002CF3DD2B19013B1B780D3B5942C5
:103B20005941CBB22A5D0A2AF0D1002BEED1A04236
:103B3000E7DA211A28183B689847E2E7B04209DB28
:103B4000002E06DDAD19013D2B780D3B5942594140
:103B50003974F8BD311A28183B689847F0E7C04619
:103B6000A84C001070B505000368002B16D00C4B54
:103B70001C6805E0291D2A682000FFF7B1FFE468F2
:103B8000002C09D02368002BF9D0064B1B68002BB2
:103B9000F0D09C42F3D1EDE700232B6070BDC0460E
:103BA000440600204806002070B505000C000B6894
:103BB000802B05D023685A1C2260E418257170BD43
:103BC0000800FFF7CFFFF5E710B582B0D0231B0642
:103BD00000241C5701A9074800F046F9002806D127
:103BE000019B9C4203D0034800F046F9012002B03B
:103BF00010BDC0469003002010B5024800F01CF92B
:103C000010BDC04690030020F0B5C64600B584B094
:103C100001900D0017001C00FFF7D6FF80466B1CBB
:103C200005D0002C08D0194E194B1C680DE00198E6
:103C300000F0C4F80500F4E7164EF5E72A000199F4
:103C40002000B047002F0CD1E468002C11D023686D
:103C5000002BF9D0104B1B68002BEFD09C42F3D106
:103C6000ECE702ABD91D0A230B7001222000B047FC
:103C7000EAE74346002B06D1681E8541E8B204B04E
:103C800004BC9046F0BDFFF7B7FFF5E7D13A00104E
:103C900044060020E13A00104806002010B5064B0B
:103CA0001C6800E0E468002C04D06368002BF9D0A5
:103CB0009847F7E710BDC0464406002070B50500E0
:103CC00000F07CF804000023012201002800FFF727
:103CD0009BFFFFF7E3FF200070BD000070B5A2B0AE
:103CE00004000E00FFF770FF05008422002101A8E8
:103CF000FFF7E2FE3300220001A90848FEF78CFF1F
:103D0000040001A8FFF72EFFFFF7C8FF002D02D126
:103D1000200022B070BDFFF76FFFF9E7A93B00104C
:103D20000FB400B583B004A901C90191FFF7D6FF14
:103D300003B008BC04B0184710B5024800F004F8FE
:103D400010BDC0465C06002030B589B0040004AD4B
:103D50000D2200212800FFF7AFFE0D22002168464A
:103D6000FFF7AAFE4B232B700D226946280000F0B6
:103D70005BF8002304E05A1D69468A5CE254013373
:103D8000072BF8DD09B030BD0123084A1360084A4B
:103D90001360084B9A6801239343FAD10122064B22
:103DA0001A60054B1B68DB05FBD5704700E000403F
:103DB00000F0004000C0004000C0044010B5830780
:103DC00025D00378002B24D00300032102E01A78C9
:103DD000002A1AD001330B42F9D119680E4A0F4C50
:103DE0008A188A43224206D1043319680A4A8A187B
:103DF0008A432242F8D01A001B78002B03D00132EC
:103E000011780029FBD1101A10BD181AFCE7030025
:103E1000E3E70020F8E7C046FFFEFEFE80808080DA
:103E2000F8B5C0460000000001B40248844601BC59
:103E3000604700BF0502002001B40248844601BC6F
:103E4000604700BF5101002001B40248844601BC14
:103E5000604700BFD902002001B40248844601BC7B
:103E6000604700BFD902002001B40248844601BC6B
:103E7000604700BF0901002001B40248844601BC2C
:083E8000604700BFC1000020F3
:103E8800426C696E6B696E67210D00007570646124
:103E980074655F75735F73696E63655F626F6F7476
:103EA8000000000070685F6765745F6E6F6465008E
:103EB80070685F6164645F6368696C645F6E6F6497
:103EC8006500000070685F696E736572745F6E6F7D
:103ED8006465000070685F667265655F6E6F646533
:103EE800000000006765745F656E747279000000F9
:103EF8006765745F656E7472795F69645F68696726
:103F0800680000006164645F616C61726D5F756E6A
:103F18006465725F6C6F636B00000000616C6172B6
:103F28006D5F706F6F6C5F616C61726D5F63616C08
:103F38006C6261636B0000002170685F636F6E7470
:103F480061696E735F6E6F646528706F6F6C2D3E6C
:103F5800686561702C2072657573655F69642900F6
:103F680075735F73696E63655F626F6F74203C3D44
:103F780020494E5436345F4D415800002F686F6D0C
:103F8800652F6176696E6173682F7270695F7069F9
:103F9800636F2F7069636F2F7069636F2D73646B24
:103FA8002F7372632F636F6D6D6F6E2F7069636F00
:103FB8005F626173652F696E636C7564652F7069E4
:103FC800636F2F74797065732E68000072656D6F6A
:103FD8007665645F6964203D3D206E6578745F692D
:103FE8006400000063616C6C6261636B0000000038
:103FF800706F6F6C2D3E616C61726D5F696E5F7082
:10400800726F6772657373203D3D206D616B655FEC
:104018007075626C69635F69642869645F68696761
:10402800682C206E6578745F6964290069642026AD
:1040380026202170685F636F6E7461696E735F6EAE
:104048006F646528686561702C2069642900000028
:104058006964202626206964203C3D20706F6F6CBF
:104068002D3E686561702D3E6D61785F6E6F646589
:1040780073000000256C6C642028686920253032A4
:10408800782900006964202626206964203C3D20A8
:10409800686561702D3E6D61785F6E6F6465730051
:1040A8002F686F6D652F6176696E6173682F727006
:1040B800695F7069636F2F7069636F2F7069636FD1
:1040C8002D73646B2F7372632F636F6D6D6F6E2F1B
:1040D8007069636F5F7574696C2F696E636C756462
:1040E800652F7069636F2F7574696C2F70686561CF
:1040F800702E6800706172656E745F6964000000FC
:104108006368696C645F69640000000070617265CF
:104118006E745F696420213D206368696C645F691F
:104128006400000072742D3E616C61726D5F696499
:10413800203D3D20696400002F686F6D652F617612
:10414800696E6173682F7270695F7069636F2F7031
:1041580069636F2F7069636F2D73646B2F7372635C
:104168002F636F6D6D6F6E2F7069636F5F74696D0C
:10417800652F74696D652E630000000068617264C4
:10418800776172655F616C61726D5F7365745F748E
:1041980061726765740000004861726477617265D6
:1041A80020616C61726D20256420616C72656164A8
:1041B8007920636C61696D656400000074696D65E0
:1041C800725F68772D3E696E7473202620317520E2
:1041D8003C3C20616C61726D5F6E756D0000000083
:1041E8002F686F6D652F6176696E6173682F7270C5
:1041F800695F7069636F2F7069636F2F7069636F90
:104208002D73646B2F7372632F7270325F636F6DDF
:104218006D6F6E2F68617264776172655F74696D26
:1042280065722F74696D65722E6300006D75746513
:10423800785F657869740000746F74616C000000C1
:104248002F686F6D652F6176696E6173682F727064
:10425800695F7069636F2F7069636F2F7069636F2F
:104268002D73646B2F7372632F636F6D6D6F6E2F79
:104278007069636F5F73796E632F6D757465782EDF
:10428800630000006D74782D3E636F72652E737045
:10429800696E5F6C6F636B006C6F636B5F69735FF4
:1042A8006F776E65725F69645F76616C6964286DAB
:1042B80074782D3E6F776E65722900006D74782DC5
:1042C8003E656E7465725F636F756E740000000002
:1042D80070685F6765745F6E6F64650070685F61C2
:1042E80064645F6368696C645F6E6F646500000096
:1042F80070685F72656D6F76655F616E795F68651E
:104308006164000070685F72656D6F76655F616EED
:10431800645F667265655F6E6F646500666F756E73
:10432800640000006E65775F7375625F747265651F
:1043380020213D20686561702D3E726F6F745F6942
:1043480064000000726F6F745F6964002F686F6D9E
:10435800652F6176696E6173682F7270695F706925
:10436800636F2F7069636F2F7069636F2D73646B50
:104378002F7372632F636F6D6D6F6E2F7069636F2C
:104388005F7574696C2F70686561702E630000003A
:104398002170685F6765745F6E6F64652868656122
:1043A800702C20726F6F745F6964292D3E73696287
:1043B8006C696E67000000002170685F6765745F54
:1043C8006E6F646528686561702C20726F6F745F0A
:1043D8006964292D3E706172656E74002C206675C3
:1043E8006E6374696F6E3A20000000006173736534
:1043F8007274696F6E2022257322206661696C656C
:10440800643A2066696C6520222573222C206C6929
:104418006E65202564257325730A000072756E7415
:10442800696D655F696E6974000000000A2A2A2AAE
:104438002050414E4943202A2A2A0A000A00000037
:1044480031203D3D202875696E747074725F74293F
:104458006C2D3E7370696E5F6C6F636B00000000BB
:104468002F686F6D652F6176696E6173682F727042
:10447800695F7069636F2F7069636F2F7069636F0D
:104488002D73646B2F7372632F7270325F636F6D5D
:104498006D6F6E2F7069636F5F72756E74696D658D
:1044A8002F72756E74696D652E630000636C6F639F
:1044B8006B5F636F6E666967757265007372635FC1
:1044C80066726571203E3D206672657100000000CD
:1044D8002F686F6D652F6176696E6173682F7270D2
:1044E800695F7069636F2F7069636F2F7069636F9D
:1044F8002D73646B2F7372632F7270325F636F6DED
:104508006D6F6E2F68617264776172655F636C6F3F
:10451800636B732F636C6F636B732E630000000013
:104528006972715F7365745F6578636C75736976BA
:10453800655F68616E646C65720000006D616B6533
:104548005F6272616E636800696E736572745F6240
:1045580072616E63685F616E645F6C696E6B0000A8
:104568007265736F6C76655F6272616E6368000076
:104578006972715F72656D6F76655F68616E646C94
:10458800657200006972715F6164645F7461696C6F
:104598005F746F5F667265655F6C697374000000B5
:1045A800212864656C7461203E3E203131752900F4
:1045B8006972715F68616E6465725F636861696E74
:1045C8005F667265655F736C6F745F6865616420B0
:1045D8003E3D203000000000767461626C655F68C3
:1045E800616E646C6572203D3D205F5F756E686129
:1045F8006E646C65645F757365725F6972710000E3
:10460800212828282875696E747074725F74297659
:104618007461626C655F68616E646C657229202DD7
:1046280020282875696E747074725F7429697271B4
:104638005F68616E646C65725F636861696E5F7301
:104648006C6F747329202D2031292573697A656F61
:104658006628737472756374206972715F68616E1D
:10466800646C65725F636861696E5F736C6F7429EF
:104678002900000030783163203D3D20282A696EEA
:104688007374293E3E3131750000000069735F7311
:1046980068617265645F6972715F7261775F686192
:1046A8006E646C657228736C6F745F68616E646C9D
:1046B80065722900657863657074696F6E00000023
:1046C80021657863657074696F6E207C7C206578DD
:1046D80063657074696F6E203D3D206E756D202B8B
:1046E8002031360066616C73650000006375727274
:1046F800656E74203D3D205F5F756E68616E646C09
:1047080065645F757365725F697271207C7C206374
:10471800757272656E74203D3D2068616E646C65CB
:104728007200000064656C7461203E3D202D3230BB
:1047380034382026262064656C7461203C3D203284
:1047480030343620262620212864656C74612026A2
:10475800203129002F686F6D652F6176696E61734E
:10476800682F7270695F7069636F2F7069636F2F4C
:104778007069636F2D73646B2F7372632F7270325D
:104788005F636F6D6D6F6E2F6861726477617265BC
:104798005F6972712F6972712E630000706C6C5FB3
:1047A800696E6974000000006662646976203E3DA7
:1047B800203136202626206662646976203C3D201A
:1047C800333230002F686F6D652F6176696E6173C3
:1047D800682F7270695F7069636F2F7069636F2FDC
:1047E8007069636F2D73646B2F7372632F727032ED
:1047F8005F636F6D6D6F6E2F68617264776172654C
:104808005F706C6C2F706C6C2E63000028706F7377
:10481800745F64697631203E3D2031202626207061
:104828006F73745F64697631203C3D2037292026F8
:10483800262028706F73745F64697632203E3D20AD
:104848003120262620706F73745F64697632203CAD
:104858003D20372900000000706F73745F6469762B
:1048680032203C3D20706F73745F646976310000BC
:104878007265665F6D687A203C3D202876636F5FBD
:1048880066726571202F20313629000084260010B9
:104898009C2600109C260010902600109C260010D4
:1048A8009C2600109C2600109C2600109C260010B8
:1048B8009C2600109C260010782600109C260010CC
:1048C8006C2600109C2600109C2600104A2600101A
:1048D800562700107C270010942700107C27001012
:1048E800362700107C2700107C2700107C2700103A
:1048F8007C2700107C2700107C2700107C270010E4
:10490800722700107C2700107C2700107C270010DD
:104918007C2700107C270010A0270010C62B001051
:10492800DC2B0010DC2B0010DC2B0010DC2B001023
:10493800DC2B0010DC2B0010DC2B0010DC2B001013
:10494800DC2B0010DC2B0010DC2B0010DC2B001003
:10495800DC2B0010DC2B0010DC2B0010DC2B0010F3
:10496800DC2B0010DC2B0010DC2B0010DC2B0010E3
:10497800DC2B0010DC2B0010DC2B0010DC2B0010D3
:10498800DC2B0010DC2B0010DC2B0010DC2B0010C3
:10499800DC2B0010DC2B0010DC2B0010042A00108C
:1049A800C6290010042A0010DC2B0010DC2B001094
:1049B800DC2B0010DC2B0010DC2B0010DC2B001093
:1049C800DC2B0010DC2B0010DC2B0010DC2B001083
:1049D800DC2B0010DC2B0010DC2B0010DC2B001073
:1049E800DC2B0010DC2B0010AC270010DC2B001097
:1049F800DC2B0010DC2B0010DC2B0010DC2B001053
:104A0800DC2B0010DC2B0010DC2B0010DC2B001042
:104A1800AC270010562A0010AC270010042A0010FA
:104A2800C6290010042A0010DC2B0010AC27001047
:104A3800DC2B0010DC2B0010DC2B0010DC2B001012
:104A4800DC2B0010AC270010922B0010DC2B001080
:104A5800DC2B0010C62A0010DC2B0010AC2700103D
:104A6800DC2B0010DC2B0010AC270010666E692BC5
:104A780000000000666E69006E616E00666E692D4A
:104A88000000000000000000000000000000F03FEF
:104A98000000000000002440000000000000594011
:104AA8000000000000408F40000000000088C34064
:104AB80000000000006AF8400000000080842E41D9
:104AC80000000000D01263410000000084D7974125
:104AD8000000000065CDCD412A282875696E74381C
:104AE8005F74202A29282828766F6964202A297269
:104AF8006F6D5F646174615F6C6F6F6B7570287246
:104B08006F6D5F7461626C655F636F6465282753BE
:104B1800272C202746272929292D322929202A20F0
:104B280034203E3D2053465F5441424C455F563247
:104B38005F53495A450000002F686F6D652F6176F5
:104B4800696E6173682F7270695F7069636F2F7027
:104B580069636F2F7069636F2D73646B2F73726352
:104B68002F7270325F636F6D6D6F6E2F7069636F38
:104B78005F646F75626C652F646F75626C655F69E1
:104B88006E69745F726F6D2E630000005F5F616510
:104B98006162695F646F75626C655F696E697400F4
:104BA8002A282875696E74385F74202A2928726F3C
:104BB8006D5F7461626C652D322929202A203420AA
:104BC8003E3D2053465F5441424C455F56325F5349
:104BD800495A45002F686F6D652F6176696E61735C
:104BE800682F7270695F7069636F2F7069636F2FC8
:104BF8007069636F2D73646B2F7372632F727032D9
:104C08005F636F6D6D6F6E2F7069636F5F666C6F3A
:104C180061742F666C6F61745F696E69745F726F1F
:104C28006D2E63005F5F61656162695F666C6F61CD
:104C3800745F696E6974000006005250BBFF3CB691
:104C4800844C001006005250E182887F6C4C0010A2
:104C580006005250D3F07542644C001044656275EA
:104C680067000000626F6F74325F773235713038D9
:104C780030000000312E332E310000007069636F60
:104C8800000000007069636F5F616C6C6567726F2C
:104C98004D5200004D6179203237203230323200D7
:104CA8000D0A0000666C6173685F646F5F636D6412
:104CB80000000000666C6173685F6F666673202B86
:104CC80020636F756E74203C3D205049434F5F460A
:104CD8004C4153485F53495A455F42595445530024
:104CE8002F686F6D652F6176696E6173682F7270BA
:104CF800695F7069636F2F7069636F2F7069636F85
:104D08002D73646B2F7372632F7270325F636F6DD4
:104D18006D6F6E2F68617264776172655F666C6132
:104D280073682F666C6173682E630000636F6E6E24
:104D38006563745F696E7465726E616C5F666C61E1
:104D4800736820262620666C6173685F65786974CD
:104D58005F78697020262620666C6173685F7261CF
:104D68006E67655F657261736520262620666C61D3
:104D780073685F666C7573685F636163686500007C
:104D8800636F6E6E6563745F696E7465726E616C75
:104D98005F666C61736820262620666C6173685FA5
:104DA800657869745F78697020262620666C61735F
:104DB800685F72616E67655F70726F6772616D20A0
:104DC800262620666C6173685F666C7573685F631E
:104DD8006163686500000000636F6E6E6563745FF1
:104DE800696E7465726E616C5F666C6173682026AB
:104DF8002620666C6173685F657869745F7869708E
:104E080020262620666C6173685F666C7573685F20
:084E180063616368650000009E
:104E2000B4020010A80200109C020010404C0010B8
:0C4E3000900200104C4C0010584C001078
:104E3C0010B5D0231B0600241C570268EFF3108119
:104E4C0072B61368002BFCD0BFF35F8F0423C356DC
:104E5C00002B08DB0368BFF35F8F00221A6081F31D
:104E6C00108820BFE9E704710368BFF35F8F00224D
:104E7C001A6081F3108810BD10B50268EFF310842E
:104E8C0072B61368002BFCD0BFF35F8F0423C3569C
:104E9C00002B0CDB002911D00B6000210368BFF341
:104EAC005F8F00221A6084F31088080010BDD02395
:104EBC001B061B785BB203710121EFE70021EDE7C4
:104ECC0010B50268EFF3108172B61368002BFCD09A
:104EDC00BFF35F8F0423C356002B0ADBFF23037140
:104EEC000368BFF35F8F00221A6081F3108840BF04
:104EFC0010BD034B034AA921034800F0A9F8C04692
:104F0C00A04200103442001048420010094B1B789C
:104F1C00002B08D00CE09A00802149055118086834
:104F2C000549505001333F2BF5DD0122014B1A701E
:104F3C007047C0467C060020DC04002010B5024BF4
:104F4C000133984710BDC046DC04002000280AD16C
:104F5C0002231B02054A12685340C02292001340E0
:104F6C00034A136070470323F3E7C0460C800140EB
:104F7C000C900140F0B5D6464F464646C0B50600EB
:104F8C000D001400182398461B88142738882849CC
:104F9C009847824643461B8838882649984781465D
:104FAC0043461B8838882449984707005346002BF2
:104FBC000DD04B46002B0AD0002808D0FFF7A6FFD7
:104FCC00D047C8470020FFF7C1FF21000FE01B4B63
:104FDC001B4A80211B4800F03BF8002B07D000290E
:104FEC0005D0C0235B051B6E2B70013901352300E6
:104FFC000B4312D0C0235B059A6A08231340920717
:10500C00EBD5002CE9D00A1B0D2AE6D83078C0224B
:10501C0052051066013C0136DFE70120FFF796FFD1
:10502C00B847FFF78BFF1CBC90469946A246F0BDD3
:10503C00494600004558000046430000E04D001072
:10504C00AC4C0010E84C00107047C046000000004B
:10505C0001B40248844601BC604700BF7D120010B9
:10506C00100000000C03002000000000B003002022
:10507C0004060020000000000000000014060020C0
:10508C000000000000000000100000000000000004
:10509C000000010000000000000000000000020001
:1050AC0000000000000000000000030000000000F1
:1050BC00000000000000FF000000000000B5486880
:1050CC0001318E460047704609380149884700BDBA
:1050DC00E1180010000000000000000000000000BB
:1050EC00503300004C3300005433000052330000A6
:1050FC004D5300004D430000533400004334000076
:10510C000000000000000000A93A0010392C00102B
:10511C0049330010793900103D030010393D00105F
:04000005100001E9FD
:00000001FF
