:020000041000EA
:1000000000B5324B212058609868022188439860DF
:10001000D860186158612E4B002199600221596106
:100020000121F02299502B49196001219960352056
:1000300000F044F80222904214D00621196600F024
:1000400034F8196E01211966002018661A6600F04E
:100050002CF8196E196E196E052000F02FF8012189
:100060000842F9D1002199601B49196000215960AB
:100070001A491B48016001219960EB211966A021F2
:10008000196600F012F800219960164914480160C1
:100090000121996001BC002800D000471248134993
:1000A000086003C880F30888084703B5996A0420EC
:1000B0000142FBD001200142F8D103BD02B5186610
:1000C0001866FFF7F2FF186E186E02BD00000240BE
:1000D000000000180000070000035F00212200005C
:1000E000F4000018222000A00001001008ED00E03C
:1000F00000000000000000000000000074B24E7A12
:1001000000200420F7010010C3010010C5010010F9
:10011000C1010010C1010010C1010010C101001097
:10012000C1010010C1010010C1010010C701001081
:10013000C1010010C1010010C9010010CB01001065
:10014000CD010010CD010010CD010010CD01001037
:10015000CD010010CD010010CD010010CD01001027
:10016000CD010010CD010010CD010010CD01001017
:10017000CD010010CD010010CD010010CD01001007
:10018000CD010010CD010010CD010010CD010010F7
:10019000CD010010CD010010CD010010CD010010E7
:1001A000CD010010CD010010CD010010CD010010D7
:1001B000CD010010CD010010CD010010CD010010C7
:1001C00000BE00BE00BE00BE00BE00BE00F04BF888
:1001D000103800BEF2EB8871F48500101486001010
:1001E0003402001090A31AE700202149086006C8D5
:1001F00081F3088810471F48006800282FD10DA4FC
:100200000ECC002902D000F012F8F9E71A491B4A77
:10021000002000E001C19142FCD1194988471949E9
:1002200088471949884700BEFDE701C901C29A42C3
:10023000FBD3704714860010C0000020000500208A
:10024000548A00100000042000000420548A00108A
:1002500000100420001004200000000070470B482C
:1002600002F064FF0047EFF30580C0B27047000062
:1002700008ED00E0000000D0000500207C12002006
:10028000C5160010790300108116001057560000A3
:1002900006005250ABB360538C7E001006005250E3
:1002A000861C03029C7E0010060052505422A29D20
:1002B000AC7E001005005250DE65F468548A0010D0
:1002C000F8B5C046054B0648033310B51B1A062B7C
:1002D00003D9044B002B00D0984710BD0005002027
:1002E00000050020000000000648074910B5091A63
:1002F0008910CB0F5918491003D0044B002B00D0A4
:10030000984710BD000500200005002000000000F7
:1003100010B5074C2378002B09D1FFF7D3FF054B0D
:10032000002B02D0044800E000BF0123237010BD61
:100330000806002000000000D86F0010094B10B51F
:10034000002B03D00849094800E000BF08480368B3
:10035000002B02D1FFF7C8FF10BD064B002BF9D0D0
:100360009847F7E7000000000C060020D86F001047
:10037000000500200000000010B506F0A5FD1F21BB
:100380001C2000F047F8002200211C2000F05AF841
:1003900000211C2000F070F8174B1A6880239B0185
:1003A0005340E022D2011340144A1360052000F0AC
:1003B0007BF82022D0231B065A6203F0A7FF0422F9
:1003C0000F4B1A600C4B1B68DB05FBD50A4B5868BA
:1003D00080B203F05CFD03F081FD0A4A0A4B03F092
:1003E0006CF90022094B03F04AF902000B0008489F
:1003F00003F080FFE3E7C04600C0044000D00440A3
:1004000000E004406666666666660A4000FEAF402D
:10041000D86F001010B58300084A944663441C68E6
:1004200040226240C02414408022520113431C60C9
:10043000C000034B9C466044416010BD04C00140B5
:100440000040014080000B4B9C46604400290DD0C9
:100450000823002A0CD100221343026853400C22C7
:100460001340802252011043036070470023F0E7DD
:100470000422F1E704C00140002909D18000094BA2
:100480009C466044C0239B0118434023036070478F
:100490008000044B9C46604480239B01184340230A
:1004A0000360F4E704C0014010B501238340D0226B
:1004B0001206936293610521FFF7ACFF10BD0000A7
:1004C000EFF3108072B6034B1B68002BFBD0BFF319
:1004D0005F8F70472C0100D0BFF35F8F0022024B6B
:1004E0001A6080F3108870472C0100D070B50500A9
:1004F0000E001400FFF7E4FFF208AA181578072190
:10050000314001238B402B4205D1DBB22B431370CA
:10051000FFF7E2FF70BD3100200001F04FF9F0B5A8
:1005200083B00700019114001E00FFF7C9FFB44219
:100530000ED8E208BA1815780721214001238B4014
:100540002B4201D00134F2E7DBB22B43137001E000
:1005500001246442FFF7C0FF002C02DB200003B03F
:10056000F0BD019B002BF9D0089801F027F900009D
:10057000034B1B6802201840431E9841C0B27047CD
:1005800000C00640002307E0054A9A189200BFF316
:100590005F8F0021116001331F2BF5D97047C046D2
:1005A00040000034054A1078431CDBB21370172B4F
:1005B00002D91022014B1A707047C046080400206F
:1005C00000B583B00100044B00931F231822034899
:1005D000FFF7A5FF03B000BDE06F0010C80A0020C0
:1005E00070B505000C00080000F018FD200000F0B8
:1005F000E9FD0849200000F029FDFFF7D3FF064B75
:100600009C466044800068602C75A400034BE55054
:1006100070BDC0462D090010400000346C0F002052
:100620000A4B1A68EFF3108172B61368002BFCD0E6
:10063000BFF35F8F054B1B68BFF35F8F00221A600B
:1006400081F3108840BF002000217047880F0020F0
:1006500010B5002922D003681B7B99421ED8174B86
:100660009C466144090183689C4661440C68496862
:10067000002A19D003681B7B9A4215D883680F485B
:100680008446624412019A181068536802000120DF
:100690008B4201D80ED00020C0B210BD084B094AD1
:1006A0003B21094800F0F0FF054B064A3B21064874
:1006B00000F0EAFFA242EFD8EDE7C046FFFFFF0FD0
:1006C00018720010547000102473001010B5002927
:1006D0001FD0037B99421CD84B005B18033B046876
:1006E000A446634400291AD0002A1ED0914222D089
:1006F000002A26D0047BA24223D804685000801828
:100700000338201881701978002920D041701A70A0
:1007100010BD104B104A6821104800F0B5FF104B77
:10072000104A6F310D4800F0AFFF0F4B0D4A70219A
:100730000A4800F0A9FF0D4B0A4A7121074800F052
:10074000A3FF044B044A6821044800F09DFF1A707F
:10075000DEE7C04670720010147000108C7200103A
:10076000E072001020700010EC720010F87200109F
:1007700070B506000D001400002916D0002A01D122
:10078000080013E0806873689847002806D12A00A3
:1007900021003000FFF79AFF200007E02200290027
:1007A0003000FFF793FF280000E0100070BD00004C
:1007B00070B5CE4600B583B00500009201930AAB38
:1007C0001C780BAB1B789946002C28D003685A7B09
:1007D000944214D0002C0CD01A7B944209D81A6889
:1007E00063001B19033BD3189B78002B08D001230F
:1007F00006E0434B434A6821434800F045FF01238C
:10080000002B06D1002C28D1200003B004BC914657
:1008100070BD3E4B3E4A65213E4800F035FF0368FF
:100820009C7B002CEED012D01A7B94420FD8620031
:100830001219033A19688C46624451789973002959
:1008400000D1D9730023937053701370DAE72C4BE7
:100850002C4A68212C4800F017FF002C39D02B6857
:100860001B7B9C4235D82C4BE3181B01AA6894468D
:1008700063440099019A19605A60089A9A60099A2B
:10088000DA602E68002C2AD02FD0337B9C422CD8E3
:1008900063001B19033B32689446634400229A703C
:1008A0005A701A70717B22003000FFF761FF70737D
:1008B0008442A9D1287D009A019B00F00FFC061EFE
:1008C00002D04B46002B16D00C9B002B9CD01E70E8
:1008D0009AE7124B124A3B210E4800F0D5FE114B0D
:1008E000114AA521084800F0CFFE054B054A6821B2
:1008F000054800F0C9FE2868210000F03FFEE3E74C
:1009000070720010147000108C720010D8700010FB
:100910008C70001024730010FFFFFF0F187200107E
:10092000547000102073001034700010F0B5D646DB
:100930004F464646C0B58CB00B908200B54BD5589B
:1009400037E100230024089309946A68EFF31086C6
:1009500072B61368002BFCD0BFF35F8F2F687C7BCF
:10096000002C41D100239846002700206B68BFF37C
:100970005F8F00221A6086F31088002F00D116E1E5
:1009800053461E02264341463000B8470690079161
:100990006A68EFF3108972B61368002BFCD0BFF3BE
:1009A0005F8F079B002B00DB89E02B69002B00D1B8
:1009B00085E0B34271D1089A099B08921E000698FF
:1009C0000799121A8B419E4203D805D1089991428A
:1009D00002D901225242D317002B64DA8E4B8F4A80
:1009E0003F218F4800F050FE002C1AD03A7B9442F1
:1009F00017D88C4BE2181201AB68984690444346D6
:100A00001A685B68121A8B411000002B0FDD4346F9
:100A10001A685B680B9800F061FB0023984600277A
:100A2000A4E7814B814A3B21814800F02DFE002B39
:100A300001D10028EBD10021380000F095FDA04243
:100A400019D143461A685B680892099343469F6828
:100A5000DB689846002F14D0002C18D02B681B7B25
:100A60009C4214D8631EEA68D35C9A461B02184362
:100A7000286100207AE76F4B6F4A8C216C4800F0A8
:100A800003FE6E4B6C4A9021694800F0FDFD664BF9
:100A90006B4A4021664800F0F7FD6A4B664A9F2189
:100AA000634800F0F1FD00210491013103910294AB
:100AB0004146019100972800FFF77AFE6EE0079B00
:100AC000002B0EDD2B69002B11D0B34225D100F095
:100AD000B1FA002927DA504B504A3F21504800F024
:100AE000D3FD069A079B002B01D1002AEAD12B687F
:100AF000002C69D05A7B94423CD0002C34D01A7B15
:100B0000944231D862001219033A19688C46624443
:100B10009278002A2FD001222DE04A4B464AA2218A
:100B2000434800F0B1FD0890069A079B12184B410C
:100B3000994202D804D1904202D901225242D317DD
:100B4000002B05DA344B354A3F21354800F09CFD37
:100B500000210491013103910294414601910097D3
:100B60002800FFF725FE19E0374B384A682138483E
:100B700000F08AFD0122002A26D1DA7B002A29D141
:100B8000DC73002C39D02B681B7B9C4235D8013C90
:100B9000EB689C46644423780133237000232B6167
:100BA0006A68BFF35F8F136089F310880120002803
:100BB00029D000F03FFA002900DBC2E6164B174AA5
:100BC0003F21174800F060FD224B234AF6212048C0
:100BD00000F05AFD002A0AD0197B8A4207D851003A
:100BE0008A18033A19688C4662445470C8E7164B59
:100BF000164A6821164800F047FD0B4B104A402169
:100C00000B4800F041FD0CB01CBC90469946A24632
:100C1000F0BDC0466C0F002000710010FC6F00108A
:100C20001C710010FFFFFF0F1872001054700010AD
:100C3000247300106C710010A470001084710010F7
:100C4000607000109071001070720010147000102D
:100C50008C720010CC7100104470001010B50A4B5B
:100C60005B68002B04D00A21084800F0CBFA10BDC5
:100C7000054C2300064A1021206800F0A5FB032143
:100C80002000FFF7ADFCEEE70C040020880F0020E9
:100C90005106001010B5064B5B68002B01D00448CC
:100CA00010BD044B044A5C21044800F0EDFCC04632
:100CB0000C0400204C72001074700010247300109B
:100CC000F0B5DE4657464E464546E0B589B080460B
:100CD00016001F00129B994614AB1B789A460022FF
:100CE0001F236B441A7030E000280AD04246126875
:100CF000127B904205D8421E4146C9688A5C9346E1
:100D000043E0424B424A4021424800F0BDFC00F023
:100D100091F9002905DA404B404A3F21404800F054
:100D2000B3FC24184D41A94202D804D1A04202D9F3
:100D300001246442E517002D05DA374B374A3F217D
:100D4000374800F0A1FC26002F0043465B68EFF314
:100D5000108572B61A6854425441E4B2002CF9D19D
:100D6000BFF35F8F1F236B4404930023039302930D
:100D7000139B01934B46009332003B004046FFF724
:100D800017FD031EB0D10022934641464968BFF3C8
:100D90005F8F00220A6085F31088002B2AD01F2362
:100DA0006B441B78002B02D15A4614020443002BDB
:100DB00022D05346002B1FD013992000C8470400AF
:100DC0000D0003000B431FD00029A0DA32003B00C6
:100DD000361BAF41BB4202D804D1B24202D9012630
:100DE0007642F717002FB0DA0B4B0C4A3F210C4824
:100DF00000F04AFC01246442200009B03CBC90464B
:100E00009946A246AB46F0BD0024F5E718720010E3
:100E1000607000102473001000710010FC6F00104F
:100E20001C71001070B504004268EFF3108572B6B3
:100E30001368002BFCD0BFF35F8FCAB22668737BA8
:100E40009A4215D0002A0DD0337B9A420AD853001B
:100E50009B18033B3068844663449B78002B23D166
:100E6000002006E0214B224A6821224800F00CFCB9
:100E70000120002834D02369994217D0090AC9B249
:100E8000002A1AD023681B7B9A4216D8531EE068AA
:100E9000C35C994217D000206368BFF35F8F0022C4
:100EA0001A6085F3108870BD0120E2E7124B134AE7
:100EB00085214900124800F0E7FB124B124A4021FD
:100EC0000F4800F0E1FB1100300000F057FB002854
:100ED000E2D10E4B094A1221FF31094800F0D4FB40
:100EE00023699942D8D100232361D5E7707200109D
:100EF000147000108C720010F0710010C07000109F
:100F0000247300101872001060700010147200102A
:100F100070B584B005000C00FFF7BCFE00230293FF
:100F20000193194B00932A002300FFF7C9FE061E08
:100F300011DD20BFFFF7AEFE3100FFF773FF134B4B
:100F40005B6A9C421BD8114A926AAA421AD29C42FE
:100F500013D0012014E00D4B5B6A9C4209D80B4A68
:100F6000926AAA4207D29C4201D0012008E00020E8
:100F700006E0002004E0012002E0002000E0002064
:100F800004B070BD0120FBE72106001000400540C1
:100F900070B5EFF305833F2018401038EFF310844D
:100FA00072B6194B1B68002BFBD0BFF35F8F012378
:100FB00019008140154A5163154A12781500C54041
:100FC0002B4214D0114B5D6A8300124E9B599D42F7
:100FD00006D38300104D5B598A430D490A7007E020
:100FE0000A4A031D9B0099589950002300E00023F2
:100FF000BFF35F8F0021044A116084F31088002B37
:1010000000D0984770BDC046280100D00040054080
:10101000BB0F0020940F0020B809002010B501007C
:10102000024A0348FFF762FA10BDC04684730010FD
:10103000B80F0020044B596A00E01900024B986A6F
:101040005B6A9942F9D170470040054070B50400D1
:101050000D00EFF3108672B61B4B1B68002BFBD004
:10106000BFF35F8F002D1CD0200000F043FD174B15
:1010700098420BD01900200000F044FD012120000F
:1010800000F028FD0123A340114A1360A400114B76
:10109000E550BFF35F8F00220B4B1A6086F3108878
:1010A00070BDA20000210B4BD1500122A2400A4981
:1010B0000B7893430B700549200000F04DFD002193
:1010C000200000F007FDE4E7280100D0910F001098
:1010D00038600540B8090020BB0F0020F0B5DE469F
:1010E00000B584B00500140001921E000293FFF7C2
:1010F000A1FF03948E422CD9EFF3108B72B6294BCB
:101100001B68002BFBD0BFF35F8F274A17780124A1
:10111000AC40E3B23B431370244B5C632A1D920046
:101120000199D150AA002249029850501B6A2342CB
:101130001BD11E4B1B6C234211D00020BFF35F8FCD
:101140000022184B1A608BF3108804B004BC93463D
:10115000F0BD8E4201D18442CED80120F5E7154B77
:10116000154AC121154800F08FFAFFF763FF8E4240
:1011700014D802D1039B834210D80B4B1B789F429B
:101180000ED00A4B1C625C631F222A40012393404D
:101190000B4A1360044B1F700120CFE70020CDE7FE
:1011A0000120CBE7280100D0BB0F00200040054004
:1011B000940F0020A873001068730010CC73001007
:1011C00080E200E010B5EFF3108472B60A4B1B68A2
:1011D000002BFBD0BFF35F8F01238340074A1362CC
:1011E00007490A789A430A70BFF35F8F0022024BC7
:1011F0001A6084F3108810BD280100D0004005401B
:10120000BB0F0020024B9C4661448900016070477F
:101210004000003410B50400FFF7C4F901002000BD
:10122000FFF7F0FFFF232371BFF35F8F10BD10B5F1
:101230000400FFF7B7F901002000FFF7E3FFFF23E9
:10124000237100236371BFF35F8F10BD034B9C4676
:10125000614489000160BFF35F8F70474000003434
:1012600010B504000120FFF7ABF901002000FFF7E3
:10127000EDFF10BD10B500291FD0037B99421CD88B
:101280004B005B18033B0468A446634400291AD052
:10129000002A1ED0914222D0002A26D0047BA242EE
:1012A00023D80468500080180338201881701978FA
:1012B000002920D041701A7010BD104B104A6821CF
:1012C000104800F0E1F9104B104A6F310D4800F062
:1012D000DBF90F4B0D4A70210A4800F0D5F90D4B90
:1012E0000A4A7121074800F0CFF9044B044A6821EB
:1012F000044800F0C9F91A70DEE7C04670720010A9
:10130000EC7400108C720010E0720010F874001081
:10131000EC720010F872001070B506000D00140099
:10132000002916D0002A01D1080013E080687368F4
:101330009847002806D12A0021003000FFF79AFFC5
:10134000200007E0220029003000FFF793FF28006B
:1013500000E0100070BD000010B50023437301339E
:101360008373037BC373012308E05A00D218033A46
:1013700001688C4662440133DBB25370027B9342B6
:101380000AD2002B02D0027B9342EED90B4B0C4ABF
:1013900068210C4800F078F9002A09D0924207D859
:1013A000016853009A18033A8A180023537010BD3D
:1013B000024B034A6821034800F066F9707200107E
:1013C000EC7400108C72001010B5017342608360E1
:1013D000FFF7C2FF10BD000070B50400002901D165
:1013E000080070BD002928D0037B994225D84B0006
:1013F0005B18033B0268944663445A78002AEFD096
:1014000021D0007B82421ED8500080180338256806
:10141000AC4660444678002545705D702000FFF7BB
:101420007BFF050031002000FFF7D6FF02002900F6
:101430002000FFF771FF0100D2E7064B064A682142
:10144000064800F021F9034B034A6821034800F0E5
:101450001BF9C04670720010EC7400108C72001002
:1014600070B505000C001600002928D02DD0037B94
:1014700099422AD84B005B18033B026894466344A8
:101480005A78002A27D19A78002A2AD11978FFF7AA
:10149000A3FF0300002E03D0EA7B002A27D1EC73C0
:1014A000002B37D1002C49D02B7B9C4246D82A6890
:1014B00063001C19033C14190023637070BD224B98
:1014C000224A3821224800F0DFF8224B224A6821C4
:1014D000224800F0D9F8224B1C4A3A211C4800F05F
:1014E000D3F8204B194A3B21194800F0CDF8002AC7
:1014F0000AD0297B8A4207D851008A18033A296802
:101500008C4662445470CAE7124B134A6821134850
:1015100000F0BAF8002B0BD02A7B934208D8430086
:101520001B18033B2A689446634400229A70B9E76B
:10153000084B094A6821094800F0A6F8054B064AFD
:101540006821064800F0A0F8607500100C750010C6
:101550006875001070720010EC7400108C7200102E
:10156000AC750010D475001070B504000A00457BFE
:101570002900FFF775FF6073280070BD10B50400E7
:1015800000296AD0437B99420ED0002911D0037BF9
:1015900099420ED84B005B18033B0268D018837841
:1015A000002B0CD1002059E00121FFF7DDFF0120C5
:1015B00054E02B4B2B4A68212B4800F065F8002B98
:1015C0001AD0227B934217D85A00D318033B2268C3
:1015D000D2181378994215D0002B16D0227B934253
:1015E00013D85A00D318033B2268D2185378994273
:1015F00011D0002BF0D111E0194B1A4A68211A487A
:1016000000F042F8437813700AE0154B154A682140
:10161000154800F039F8437853700123002B10D09F
:1016200000238370437001222000FFF719FF02009E
:10163000617B88420BD02000FFF76EFE60730120B3
:101640000CE00A4B0A4A67210A4800F01DF80A4BD1
:10165000074A6D21074800F017F8002010BDC0466A
:1016600070720010EC7400108C720010387500104D
:1016700020750010687500104075001000BEFDE771
:1016800010B5FFF7FBFF000010B582B00C00190089
:10169000002A0CD0084B002A0BD0019200932300A3
:1016A0000200064802F026FE0120FFF7E7FF044B88
:1016B000F1E7034AF1E7C046F8750010087600101C
:1016C0000476001070B52B4A2B4B1A602B4A2C4B1A
:1016D0001A602C4B9A68294B9343FAD12A4C01E0AB
:1016E00008CC9847294B9C42FAD300F0FFF8284ACF
:1016F000234B1A60234B9B68DB43DB01FAD1254B5C
:1017000040229A675A671A67DA66234C03E0200082
:10171000FFF78DFD0834214B9C420FD22368002B2C
:1017200007D0012BF3D01E4B1E4A83211E48FFF722
:10173000ABFF2000FFF76EFD0834ECE71B4CA168FF
:101740001B4DC022280002F091FCA560FEF78BFD26
:10175000002800D000BEFEF715FF00F04DFBFFF79C
:101760007DFA144C01E008CC9847134B9C42FAD305
:1017700070BDC046BFCDFBFE00E00040FE7F3C00D8
:1017800000F0004000C00040E8040020F804002001
:10179000FFFFFF0100F00140E0040020E80400200A
:1017A0005C760010387600107C76001000ED00E0CA
:1017B00000000020F8040020000500200FB400B550
:1017C00083B0084802F064FD049B002B07D005A9F4
:1017D0000191180002F06CFD034802F059FD012050
:1017E000FFF74CFF4876001058760010F0B5DE4643
:1017F000574680B583B007000D0092460A9A93427F
:101800004DD31A0E110001921B02180000930A9A80
:10181000002301F021FD04007B00DB199E002E4B0C
:101820009C4666447368834200D270603B1FDBB203
:101830009B46012B39D9C0239B01334380221201DF
:101840001A60BB00254A9958002905D0506901F05B
:10185000C1FC01300138FDD153465B013268534071
:10186000E022134080225201324313605B46012B79
:1018700026D980239B013343802212011A607460B1
:10188000220000230098019901F0E6FCBF00134BF1
:10189000F850012003B00CBC92469B46F0BD104BA3
:1018A000104A2D211048FFF7EFFE012DC3D1C023B0
:1018B0009B01334303221A60B368DB07FCD5CBE7F7
:1018C0003168694003230B401360B3680122AA40CA
:1018D0001A42FAD0CDE7C04600800040CC0A002072
:1018E000D8760010C8760010EC76001030B583B0C2
:1018F0000C2000F01BFBFEF73BFE00280DD0002360
:1019000004E099002D482E4A88500133092BF8D95C
:101910002C4A2B4B5A6203B030BD00222A4B9A67E7
:1019200000F070FB0122294B1A60274B5B6C012BE6
:10193000FBD10322264B1A60234B9B6B012BFBD15F
:10194000022400940533234A0121234800F062FA5F
:1019500000940523214A0121214800F05BFA214B24
:101960000093002202210420FFF740FF1E4D009546
:101970002B00002201210520FFF738FF0F4C0094B7
:101980002300002200210720FFF730FF00942300EE
:10199000002200210820FFF729FF0A4B00932300B3
:1019A000002200210920FFF721FF00952B000022D3
:1019B00000210620FFF71AFFADE7C046006CDC02ED
:1019C000CC0A00201BB70000008000403CB0004063
:1019D00030B00040002F68590080024000389C1C45
:1019E00000C00240001BB70040597307074B9B68BB
:1019F000103080001950BFF35F8FBFF35F8F00215D
:101A0000034B196082F310887047C04600ED00E078
:101A1000240100D010B5091A0B1F0A4A94466144EC
:101A2000094A914208D8DA0706D45B105B055B0DC2
:101A30000648184380B210BD054B064A8B21064864
:101A4000FFF722FEFC070000FE0F000000E0FFFF92
:101A500040790010587700107079001010B5091AFD
:101A600004394C08090B08D14905490D064A1143B0
:101A70000180064B2343438010BD054B054A93214B
:101A80000548FFF701FEC04600F0FFFF00F8FFFF2A
:101A9000BC77001064770010707900100123834038
:101AA000034A10681840431E9841C0B27047C046B0
:101AB00000E100E0002902D1034B18607047034B9E
:101AC0001860034B1860F9E780E100E080E200E075
:101AD00000E100E010B5012383401800FFF7EAFFA2
:101AE00010BD000001238340014A13607047C046C7
:101AF00000E200E0024B9B6810308000C058704745
:101B000000ED00E070B504000D00EFF3108672B632
:101B10000C4B1B68002BFBD0BFF35F8F2000FFF73F
:101B2000E9FF094B984201D0A84205D132002900B3
:101B30002000FFF75BFF70BD044B054A6E2105488E
:101B4000FFF7A2FD240100D0CD010010087900109C
:101B50003C77001070790010F0B5CE4600B582B029
:101B600005000F00EFF3108972B6564B1B68002B6F
:101B7000FBD0BFF35F8F544B9A682C001034A30046
:101B8000D658524B9E4200D198E0BE4200D197E019
:101B900000964F4BF31A2F2B08D94A4631002800E4
:101BA000FFF724FF02B004BC9146F0BD2800FFF708
:101BB00075FF019000212800FFF78CFFBFF35F8FB6
:101BC000FEF751FB011E01D0844211D10123009C7C
:101BD0009C430020A3689F4212D00622A256002AEE
:101BE0000DDB53009B189A002000394CA418F1E734
:101BF000384B394A1E21FF313848FFF745FD200098
:101C00009F4254D10627E757002F36DB7A00D219BE
:101C100091002F4B5B189A68A260DA79E271062274
:101C20009A56A2719B795BB2002B23DB201D284AB8
:101C30008B181A1D9B88D90A1C2915D159054915DD
:101C4000023149005118FFF7E5FEA0807B00DB1947
:101C50009A001F4B9B18224A1178997117700199AD
:101C60002800FFF737FF98E71E4B1F4A99211B48B2
:101C7000FFF70AFDBD200002E7E7002912D1002886
:101C80000ED0FF238371194B8380154A1378A371FB
:101C9000174B0F49641A644163431B0D1370DEE751
:101CA0000A4EF2E7201D1349FFF7D8FED7E7124B83
:101CB000094A5221FF310948FFF7E6FC034E6CE761
:101CC000024E6AE7240100D000ED00E0CD010010D3
:101CD00034040020DC7800108C770010707900103C
:101CE000B90F0020907800107C77001000BDFFFF36
:101CF000AAAA00006E04002000790010F8B50400C4
:101D000001260643304BF31A2F2B28D8FEF7ABFAE7
:101D100000282BD0EFF3108572B62C4B1B68002BDC
:101D2000FBD0BFF35F8F2A492300274A9B1A5B41F0
:101D30005943090D49B2274B9B6880001B589E42AE
:101D40001BD00023032B28D85A00D21890001E4A1B
:101D50001218927952B28A4214D00133F2E71E4B24
:101D60001E4ABB2149001E48FFF78EFC1D4B1B4A33
:101D70007A21FF311A48FFF787FC164B9B681A4AF5
:101D80001A500DE010485A00D718BE008619FF27D8
:101D9000B771164BB380012300E00023002B0BD05A
:101DA000134B1A78A2711970BFF35F8F0022074B93
:101DB0001A6085F31088F8BD0E4B084AC52149000A
:101DC0000748FFF761FCC04634040020240100D01E
:101DD000AAAA000000ED00E0A8780010A07700108B
:101DE00070790010D0780010CD01001000BDFFFF09
:101DF000B90F0020387500100023044A03E004499D
:101E0000116001330432072BF9D9704700E400E078
:101E100080808080F0B5CE4600B505000C0017002C
:101E20001E000C2001F0D6F98146354941433800A7
:101E300001F0D0F90200103A98235B009A4232D8A0
:101E4000731E062B35D8069B013B062B31D8069B0B
:101E50009E4234D33F09B94537D83304069A160356
:101E60001E432B68002B36DB264B9D4244D080213D
:101E70004901254B1960254B1960254A92680B00D2
:101E80009343FAD12C60A8602A1DC0239B01134301
:101E900021221A602A68002AFCDAEE6008221A6001
:101EA00004BC9146F0BD1B4B1B4A16211B48FFF793
:101EB000EBFB1B4B184A19211848FFF7E5FB194BA0
:101EC000154A1F211548FFF7DFFB174B124A222145
:101ED0001248FFF7D9FB2A683F2313409C42C3D125
:101EE000AB681B051B0D9842BED1EB68EE22D202F7
:101EF00013409E42B8D1D3E780218901B9E7C0469B
:101F000040420F0000C0024000E0004000F00040EE
:101F100000C00040C4790010B8790010E0790010CA
:101F2000287A0010747A00108C7A001080239B00AD
:101F30001843014BD862704700800540024B1A6875
:101F4000024B5A607047C046640F00200080054075
:101F500010B58022D205144B1A60144A144B1A6033
:101F6000002917D0E022D204124B1A60002816D0A4
:101F7000FA23DB005843104B1860104B984202D9EB
:101F80001A000D4B1A60FFF7D9FF8022D205094BCA
:101F90001A6010BDE022D204034B1A60E6E78022EB
:101FA0001206044B1A60F4E700B00540FCFF010084
:101FB0000820014000A00540640F0020FFFFFF0043
:101FC00010B58024E4050B4B1C60002807D10021CC
:101FD000094BD96100211000FFF7BAFF10BD0123A2
:101FE00003430548054CC461054C5C4004624162F2
:101FF0008362EFE700B0054000800540D3C007B022
:102000002D3FF84F064BAA2212011A602F22DA60E8
:10201000044A054B1A60024B5B68002BFBDA7047E1
:102020000040024000B0FA0000600240704710B566
:10203000002800D110BD0B6849689847FAE710B531
:102040000400002307E09800C31858004B1C2360CD
:102050000B781B18303B21680A78303AD2B2092A33
:10206000F1D9180010BDF0B5D6464F464646C0B56A
:1020700082B00500009101930A9B99460B9C0C9B32
:1020800098460D9B9B0717D04B4691461E0022E0B9
:10209000541C019B00992020B04701372200AF4219
:1020A000F6D354460C95350046460C9B98464B4655
:1020B0000A93B1461E000EE02700A24643460C9349
:1020C000904606001D00EAE7013C571C305D019B6D
:1020D0000099A8473A00002CF6D14E460D9B9B076D
:1020E0000BD52C00474605E0551C019B009920208C
:1020F000A0472A00931B9F42F6D8100002B01CBCD8
:1021000090469946A246F0BDF0B5CE4600B586B0E1
:10211000049205930C9D0D9C0EAE33789946109A4F
:10212000119B129EB7071CD4002B0CD0F7070AD5C1
:102130004F46002F02D10C37374204D0013B02E05A
:1021400030272F550134944205D21F2CF8D902E0D4
:1021500030272F550134F70703D59C4201D21F2C9D
:10216000F6D9F70615D5770505D4002C03D094428F
:102170001CD09C421AD00F9A102A23D00F9A102AF2
:1021800028D00F9A022A2DD01F2C02D830272F5585
:1021900001341F2C2FD84A46002A29D1720736D481
:1021A000320728D520272F55013424E0671E002F41
:1021B00006D00F9A102A01D03C00DCE7023CDAE797
:1021C0003C00D8E7B206D9D41F2CD7D878272F5592
:1021D0000134D9E7B206D4D51F2CD2D858272F55B1
:1021E0000134D1E71F2CCFD862272F550134CBE71C
:1021F0002D272F5501340396029301940095059BDA
:10220000049AFFF730FF06B004BC9146F0BD2B27BF
:102210002F550134EFE7F0B5C64600B594B00890ED
:1022200009910A920B931AAB10CB1B7898461F9D0D
:10223000002C01D110239D438027FF002F4015D093
:10224000002C20D0002711E0AA061AD54121C91878
:10225000C9B20A39C9B20CABD9551C99200000F09B
:10226000B9FF041E10D037001F2E0DD81C99200076
:1022700000F0B0FFCBB27E1C092BE5D83033D9B2C9
:10228000E9E76121E3E7002606951E9B05931D9B68
:1022900004931C9B03934346029301960CAB00935B
:1022A0000B9B0A9A09990898FFF72EFF14B004BCFB
:1022B0009046F0BDF0B5DE46574680B599B00C901B
:1022C0000D910E920F93209C219D22AB1B789B4673
:1022D000249B0A93259B0B93289B9A4623002B4310
:1022E00003D1103352469A4392468026F600534655
:1022F0001E4006D023002B432FD0002657460994BA
:1023000019E05746099416E0BA0621D54122D218A1
:10231000D2B20A3AD2B210AB9A550A9A0B9B0998DC
:10232000290000F099FF09900D000B00034316D01F
:1023300026001F2C0ED80A9A0B9B0998290000F042
:102340008BFFD3B2741C092BDED83033DAB2E2E74C
:102350006122DCE7BA46270003E0002701E0BA4625
:10236000270053460693279B0593269B04930A9BBD
:1023700003935B460293019710AB00930F9B0E9A59
:102380000D990C98FFF7C0FE19B00CBC92469B4605
:10239000F0BD0000F0B5DE4657464646C0B594B0E5
:1023A00004000691150007931C9E08961D9F09972F
:1023B00032003B003000390001F0DDF9002800D088
:1023C000E9E001225242D04B3000390001F0CEF951
:1023D000002800D0DFE001225242CC4B300039000F
:1023E00001F0AEF9002800D0D5E0002200230898C3
:1023F000099901F0A5F9002800D0E2E0089A099BAC
:102400000A920B938023DB00209A1A409246131EF7
:1024100001D106331E930A980B9902000B000C920F
:102420000D9303000A00024300D1D3E00A00100D0F
:102430004005400DB64EB44660441203120B1E0018
:10244000B44B13431F0001F0A9F9B34AB34B01F099
:1024500034F9B34AB34B01F009F90C900D91002205
:10246000B14B3000390001F0F8F8B04AB04B01F040
:1024700024F902000B000C980D9901F0F7F801F017
:10248000A5F9060001F08AF9AA4AAB4B0C900D9110
:1024900001F013F90022A94B01F0E8F801F096F9D8
:1024A0000700A74AA74B0C980D9901F006F90C906C
:1024B0000D91380001F072F9A34AA44B01F0FDF828
:1024C00002000B000C980D9901F0C7F802000B00F8
:1024D0000E900F9101F0F1F8109011919C4BFB18A8
:1024E0001B050D9300230C930E980F9902000B000F
:1024F00001F0BCF8129013910E9A0F9B00208021DE
:10250000C90501F0AAF80E900F910022914B109886
:10251000119901F0B4F800228F4B01F0A7F80200E6
:102520000B001098119901F0AAF800228B4B01F0D2
:102530009DF802000B001098119901F0A0F802001C
:102540000B000E980F9901F091F802000B00129801
:10255000139901F094F800226E4B01F087F80C9A61
:102560000D9B01F0AAF802000B000C920D930E9047
:102570000F9102000B000A980B9901F0E1F8002876
:1025800029D0013E0022744B0E980F9901F077F884
:102590000C900D911FE0209B04931F9B03931E9BA7
:1025A0000293089A099B00920193079B2A000699BF
:1025B000200000F0F7F814B01CBC90469A46A346E1
:1025C000F0BD089B0A93099B80221206944663443F
:1025D0000B9317E7002633006333C62B2BD8042751
:1025E000209B1B0521D50C9A0D9B190011430FD080
:1025F0005B4A5C4B0A980B9901F0B0F800281FD099
:102600000022594B0A980B9901F09AF8002817D02C
:102610001E9B9E4211DA9E1B731E1E938023DB00BD
:10262000209A1A432092002700261F9B9F4211D216
:10263000DB1B9B4610E00527D2E700231E93EDE746
:102640001E9B002BF1D05346002BEED01E9B013B6E
:102650001E93EAE700239B460223209A1A409246E3
:1026600003D0002F01D000239B46002E07D00C9AE8
:102670000D9B0A980B9901F002F80A900B91002229
:1026800000230898099901F05BF8002870D1374BB6
:10269000209A134004935B4603931E9B02930A9A6D
:1026A0000B9B00920193079B2A000699200000F0E3
:1026B00079F8002F00D17EE7209B9B0663D5452348
:1026C0000893431C9846079B020006990898A04768
:1026D000F217B1185140F30F7A1E052005900492AD
:1026E000002203920A32029201930091079B424614
:1026F00006992000FFF78FFD5346002B00D15AE7C3
:1027000002001F9E48E0C046FFFFEF7FFFFFEFFF84
:1027100001FCFFFF0000F03FFB799F501344D33FC3
:10272000B3C8608B288AC63F0000F83F61436F63DF
:10273000A787D23F71A379094F930A400000E03F79
:102740001655B5BBB16B0240EF39FAFE422EE63F9B
:10275000FF03000000002C4000002440000018404F
:102760002D431CEBE2361A3F80842E41FFF7FFFF1A
:102770000A990A000B9980200006844661440B00E8
:102780000A920B9383E7652308939AE7571C079BEC
:1027900006992020A0473A00531B9E42F6D810000D
:1027A00009E7C046F0B5D646474680B597B00690D3
:1027B000079108920993209F1E9A1F9B10001900F1
:1027C00000F0D9FF00282AD101225242BA4B1E98AC
:1027D0001F9900F0B5FF002830D101225242B74BBB
:1027E0001E981F9900F0C2FF00283AD00423229AB5
:1027F000134032D0B24A002B31D1032322990391E6
:102800002199029101930092099B089A07990698D1
:10281000FFF729FC17B00CBC90469A46F0BD229BEE
:102820000393219B029303230193A64B0093099BDF
:10283000089A07990698FFF716FCEBE7229B03938B
:10284000219B0293042301939F4B0093099B089AB9
:1028500007990698FFF707FCDCE79C4ACBE70423BF
:10286000CCE700229A4B1E981F9900F07FFF0028AA
:1028700017D10022974B1E981F9900F061FF002886
:102880000FD1002200231E981F9900F059FF002845
:1028900017D100239A46229B5B0500D40627002609
:1028A0001FE0229B0493219B039302971E9B1F9C76
:1028B00000930194099B089A07990698FFF76AFD0F
:1028C000A8E71E9A1F9B0020002100F0C6FE1E9064
:1028D0001F9101239A46DEE730220EAB9A55013F45
:1028E00001361F2E01D8092FF6D81E981F9900F027
:1028F0006DFF040000F052FF02000B001E981F99AC
:1029000000F0ABFEFA00744B9B181A685B680C92DF
:102910000D9300F0D2FE0A900B9100F07BFF0500B2
:1029200000F038FF02000B000A980B9900F095FEAA
:102930000A900B910022694B00F018FF00282CD060
:102940000135280000F026FF02000B000C980D99BD
:1029500000F0FCFE002801D001340025002F2AD110
:10296000200000F01BFF02000B001E981F9900F0D2
:1029700074FE0022594B0A900B9100F0E1FE0028F2
:1029800043D10022554B0A980B9900F0EFFE002826
:102990003BD1E30739D5013437E000224F4B0A9889
:1029A0000B9900F0CDFE0028D8D1002D01D0EB0707
:1029B000D4D50135D2E70A941F2E10D8013F741CDC
:1029C0000A21280000F006FC30310EAB99550A218F
:1029D000280000F0FFFB051E03D02600ECE70A9C50
:1029E00008E0A0460A9C464604E030210EAA915514
:1029F0001F0001361F2E02D87B1E002FF5D11F2E7F
:102A000003D82E220EAB9A5501361F2E10D8751CF6
:102A10000A21200000F0B6FB30310EAB99550A2197
:102A2000200000F0AFFB041E01D02E00EDE72E00C9
:102A30000323229A1340012B16D01F2E06D853468B
:102A4000002B28D02D220EAB9A550136229B0393E2
:102A5000219B029301960EAB0093099B089A07995C
:102A60000698FFF700FBD5E6219B002B0DD05346BF
:102A7000002B02D10C33134207D0219B013B219341
:102A800003E030220EAB9A550136219B9E42D4D2F0
:102A90001F2EF6D9D1E7229B5B0704D52B220EAB64
:102AA0009A550136D2E7229B1B07CFD520220EABC9
:102AB0009A550136CAE7C046FFFFEFFFFFFFEF7FE1
:102AC000887C0010947C0010987C0010907C001092
:102AD00065CDCD4165CDCDC1A07C00100000E03FAB
:102AE000F0B5DE4657464E464546E0B593B08346C0
:102AF0000B910A921193002912D000275E46119B78
:102B00001878002800D1E5E225280CD07C1C0A9B0F
:102B10003A000B99B047119B013311932700EEE760
:102B2000CD4B9B46E9E701331193002506E00123D5
:102B30001D43013211920124002C23D0119A1378E5
:102B4000203BD9B210291BD88B00C449CB589F46D3
:102B500002231D43013211920124EDE704231D439A
:102B6000013211920124E7E708231D43013211923B
:102B70000124E1E710231D43013211920124DBE718
:102B80000024D9E7119B1A781300303BDBB2092BE4
:102B900010D92A2A13D0A346119B1A782E2A1ED0A8
:102BA000119A1378683BD9B2122959D88B00AC49D5
:102BB000CB589F4611A8FFF742FA8346ECE71C9BCF
:102BC0001A1D1C921B68002B04DB9B46119B0133D2
:102BD0001193E1E7022215435B429B46F6E7802210
:102BE000D20015435A1C11925A781300303BDBB2C5
:102BF000092B0BD92A2AD3D11C9B1A1D1C921C68A5
:102C0000002C08DB119B01331193C9E711A8FFF7D2
:102C100016FA0400C4E70024F4E780235B002B438A
:102C2000511C119152786C2A01D01D0018E0C0236C
:102C30009B001D430131119112E080232B43511C55
:102C400011915278682A01D01D0009E0C0231D436C
:102C50000131119104E080235B001D430132119288
:102C6000119B18780300253BDAB2532A00D927E2DA
:102C700093007C4AD3589F4680239B001D4301321A
:102C80001192EDE780235B001D4301321192E7E7CB
:102C900078280AD0582840D06F2841D0622842D0E6
:102CA00010239D43063B9C4601E010239C46582878
:102CB0003CD0692803D0642801D00C2295436B05D1
:102CC00001D501229543692833D0642831D0AB0562
:102CD00000D5A4E0EB0500D5C6E06B0600D5D8E032
:102CE0002B0600D4DCE01C9A111D1C911268120402
:102CF000120C05955B4604930394634602930023EC
:102D0000019300920A9B3A000B993000FFF783FA77
:102D10000700119B01331193F1E610239C46C6E78F
:102D200008239C46C3E702239C46C0E720221543A4
:102D3000BFE7AB051ED4EB054DD46B0663D42B0661
:102D400068D51C9A111D1C910023D25ED317D1188F
:102D50005940D20F05955B46049303946346029352
:102D6000019200910A9B3A000B993000FFF753FA49
:102D70000700CEE71C9BDA1D07218A4311000831AA
:102D80001C91116853689846DB170E930F930E9AA7
:102D90000F9B100048400C901900404641400D9197
:102DA0000C980D99801A99410C900D914346DA0FB9
:102DB00008955B46079306946346049300230593A6
:102DC0000292009001910A9B3A000B993000FFF7A4
:102DD00071FA07009DE71C9A111D1C911268D31708
:102DE000D1185940D20F05955B460493039463466E
:102DF0000293019200910A9B3A000B993000FFF771
:102E00000AFA070085E71C9A111D1C911168FF2220
:102E10000A409BE71C9A111D1C91126896E71C9BA7
:102E2000DA1D07218A43110008311C91536812688A
:102E300000920193002208955B460793069463462F
:102E40000493059202920A9B3A000B993000FFF717
:102E500031FA07005DE7C0462D200010A87A001067
:102E6000EC7A0010387B00101C9A111D1C9113681D
:102E7000009305955B4604930394634602930023F5
:102E800001930A9B3A000B993000FFF7C4F9070041
:102E90003FE71C9A111D1C911168FF220A4028E788
:102EA0001C9A111D1C91126823E7462819D01C9BFF
:102EB0000733072293431A0008321C921A685B6892
:102EC0000092019304955B46039302940A9B3A0097
:102ED0000B993000FFF766FC0700119B013311933B
:102EE0000DE620231D43E2E767281FD047281DD0A9
:102EF00045281FD047281DD01C9B0733072293432A
:102F00001A0008321C921A685B68009201930495BB
:102F10005B46039302940A9B3A000B993000FFF73B
:102F200039FA0700119B01331193E8E580231B0157
:102F30001D43DDE720231D43DEE702232B409A4695
:102F40001ED001251C9B1A1D1C927C1C18780A9B04
:102F50003A000B99B0475346002B22D1119B013305
:102F600011932700CBE5541C0A9B0B992020B047F6
:102F70002B0022005D1C9F42F5D8BB461700E1E7FD
:102F800001233A005F46F5E7571C0A9B0B99202066
:102F9000C04725003A006C1CAE42F5D814004646E6
:102FA000DCE72200B0465E46F5E71C9B1A1D1C922A
:102FB0001B689846002C02D02300414604E0012300
:102FC0005B42FAE7013113000A78002A02D05A1E48
:102FD000002BF7D14346CB1A9A468023DB002B40C7
:102FE000994602D0A24500D9A24602232B40109355
:102FF00015D03A004546B0464E461CE0571C0A9B89
:103000000B992020B0472B003A005D1C9C42F5D85C
:10301000A3465446AA464546B0464E460BE03A0003
:103020005346A2465C46F0E71C000135571C0A9B3C
:103030000B99C0473A002878002804D0002EF4D01D
:10304000631E002CF0D117004646109B002B0FD1B9
:10305000119B0133119352E5551C0A9B0B992020BB
:10306000B04723002A005C1C9F42F5D81700EFE709
:103070005F465346F7E721232B431C9A111D1C91F1
:103080001268009205930823049303940833029373
:10309000002301930A9B3A000B993000FFF7BBF81D
:1030A0000700119B0133119329E57C1C0A9B3A0010
:1030B0000B992520B047119B0133119327001EE582
:1030C0007C1C0A9B3A000B99B047119B013311936A
:1030D000270014E5B3460A9A97420CD3013A0A9B9B
:1030E0000B990020D847380013B03CBC9046994655
:1030F000A246AB46F0BD3A00F1E7C04600B585B048
:1031000002900391009313000122524202A9024847
:10311000FFF7E6FC05B000BD2F2000100148042198
:10312000014B1847800400204D31001010B50100FC
:1031300018231B8814221088984710BD10B5010071
:1031400018231B8816221088984710BDF0B5C64674
:1031500000B507000E0000250123984600E0013568
:10316000B5420AD2AC003C192068FFF7DFFF2060AF
:103170000028F4D100239846F1E7404604BC90466D
:10318000F0BD0000124A936F9B0815D29066D1667D
:10319000002905D0FFE7FFE7FFE7516F106F704789
:1031A00004B580210906C2175140002800D0C84349
:1031B00003F0F2FE002104BDF0B5146E556E576F9A
:1031C000166FFFF7E3FF1466556657671667F0BD85
:1031D000000000D0114A936F9B0813D2106651660D
:1031E000002905D0FFE7FFE7FFE7516F106F704739
:1031F00004B5002801D00020C04303F0CDFE00211B
:1032000004BDC046F0B5146E556E576F166FFFF7CC
:10321000E5FF1466556657671667F0BD000000D0DD
:1032200094464E4A926F9208624601D230E0C04600
:10323000F0B54A4EB56F6D08FCD3346E756E776F7E
:10324000366F00F025F89446444A14665566576771
:1032500016676246F0BDC0469446404A926F920897
:10326000624601D258E0C046F0B53C4EB56F6D08DD
:10327000FCD3346E756E776F366F00F04DF8944660
:10328000364A14665566576716676246F0BDC046F3
:10329000002B24DB11D000293EDA00B5C94340429F
:1032A00000D1013100F038F8C943404200D101316A
:1032B000DB43524200D1013300BD002AEBD100288C
:1032C00001D1002905D00020C90FC90701D1C04391
:1032D000410800B503F058FE0022002300BD00B5F0
:1032E00000290ADBDB43524200D1013300F014F81D
:1032F000C943404200D1013100BDC943404200D121
:103300000131DB43524200D1013300F005F8DB43C9
:10331000524200D1013300BD002923D1002B18D126
:10332000002A0CD0BC460D4F38667A660021002377
:10333000FFE7FFE7FFE77A6F386F674670470028BF
:1033400001D00748010000B503F01EFE0022002353
:1033500000BD02000B00002000217047000000D0DB
:10336000FFFFFFFF002B00D0BFE0130C28D1002A85
:10337000E7D080B4114F39667A66FFE7FFE730B4D3
:10338000040C7B6F396F1B0423433B667A66FFE7AF
:10339000FFE7FFE7C04684B27B6F3D6F1B0423430A
:1033A0003B667A66FFE7FFE7C04600232C042D0C3E
:1033B0007A6F386F00196941B0BC7047000000D0C7
:1033C000F0B594460025140E01D112020835140FF1
:1033D00001D112010435940F01D192000235D40FAE
:1033E00001D152000135D40B0134254F7C66254CA8
:1033F0003C660E0C93B2FFE7FFE7FFE73C6F6643C6
:10340000360C7703BE467343DF0B5B04C01AB94129
:10341000130C7343DB18C91ACE086643360CB64446
:1034200093B273431F0F1B01C01AB941130C7343AE
:103430001F0B1B05C01AB941860D8F023E43664320
:10344000360C092D24DB520A7243801A7703460A90
:103450006643360C16235B1BDE40DF40BF19644613
:103460006643821B7046043506330100D940A840EC
:10347000C01900D30131A24206D20023F0BD0000E2
:10348000000000D0FFFFFFFF121B0130F3D3F1E774
:1034900009277F1BFE406446A2B27243801A00D205
:1034A0000139220C7243130C1204821A99410B0049
:1034B0007046043513370100F940A840801900D345
:1034C0000131002B02D1A2420AD2F0BD013000D35B
:1034D0000131121BFAD2013BF8D1A24200D2F0BD59
:1034E000013000D30131121BF7E7F0B51C0C00D0FE
:1034F00080E00CB400251C0A04D11B02160E3343D5
:10350000120208351C0B04D11B01160F33431201A4
:1035100004359C0B04D19B00960F33439200023577
:10352000DC0B02D192185B4101351C0097186441F5
:103530000134464F7C66464C3C660E0CFFE7FFE7C5
:10354000FFE7C0463C6F6643360C7703BE4697B232
:103550007743C01B00D20139C01B00D201399FB292
:103560007743C91BC91B170C77437E04FF0B801BD5
:10357000B941CE086643360C0C2D33DBB644120B32
:103580001F053A431B0B97B27743C01B00D201398A
:103590009FB27743C91B170C77433E043F0C801B37
:1035A000B941860D8F023E43664329277F1BFE40AB
:1035B0000C3D7746AF40BF1930BCA2B2ABB27243EC
:1035C0007343801A9941220C7243130C1204801A1F
:1035D000994102000B000137001BA941F9D2781E66
:1035E0000021F0BD0C277F1BFE4077467F0BAF40CC
:1035F000FF19E0E700245D1C07D0144F7D66396693
:10360000FFE7FFE7FFE7FFE73C6F95B29EB2654338
:103610006643401BB141150C1E0C654366433604DE
:103620002F0C3E432D04401BB141994204D20200AD
:103630000B0020000021F0BD01D19042F7D3801A89
:10364000994101349942F2D3F6E70000000000D01E
:10365000FFFFFFFF48404140484018B41B4B5B68E8
:10366000FC46019308BD04DF2F39001018B4174B36
:103670001B68FC46019308BD00DF393900109446F1
:10368000134A926F920809D2624618B40F4BDB6856
:10369000FC46019308BD0CDFF13B00100C4AF0B56D
:1036A000146E556E576F166F6246FFF7EEFF084AAD
:1036B0001466556657671667F0BD18B4034B9B68D0
:1036C000FC46019308BD08DF953A0010BC0F0020AE
:1036D000000000D0FFB550404240504059404B40A0
:1036E000594000E0FFB5154F4C00640D03D0BC42BB
:1036F00004D10C0314D80020090D09055C00640DE9
:1037000003D0BC4204D11C030AD800221B0D1B05A8
:1037100001264B4009D44B4003D58B4200D1824255
:10372000FFBD9942FCD19042FFBD0B43DB18034320
:103730001343F5D0C9434918FFBD0000FF0700003F
:1037400000B5FFF7CFFF804100BDC04600B5FFF7D1
:10375000C9FF01D9002000BD012000BD00B5FFF761
:10376000B9FF01D9002000BD012000BD00B5FFF761
:10377000B1FF804100BD012040054A00121804D865
:103780005A00121801D8002070470120704700200D
:10379000704700000021002805D17047C11748403C
:1037A000401AFAD0C90713B5064B1B6898470CBCE2
:1037B000441CA2401005120B0349091B09051943BB
:1037C000114310BD840F00201F04000010B54C00F1
:1037D000620D8023D218DB00D21A5B057E2A10DD31
:1037E0009E3A13DACC170903490819435242D140D3
:1037F000640001341532202A05DAD04008436043C2
:1038000010BD002010BD0846604310BDC80FC01891
:10381000013810BD18B4044B5B6AFC46019308BD27
:1038200024DFA13D00100000BC0F002070B5132361
:103830001C78012C27D0012C12DD2048FFF77EFCDC
:1038400005001F48FFF77AFC023803789B007F2BA6
:103850001BDD802229001B4800F008FC022C1AD036
:10386000022C02DC174B184A9A641848FFF75EFCDA
:10387000174B186070BD9900124A134888500133E5
:103880001F2BF8D9D7E70023FAE7124B124A32214F
:103890001248FDF7F9FE124B1A88B5231B029A4213
:1038A00009D1104B1A88104B9A4204D10F4B1A8839
:1038B0000F4B9A42D4D00020FDF780FF5344000004
:1038C00053460000BC0F0020F53800104C330000B8
:1038D000840F0020F07C0010A47D0010507D0010AB
:1038E00054380000D8380000494600009C380000D9
:1038F0005946000007B56046002800D100BE018887
:103900000A0A0230DF2AFAD1C9B2820804D3028837
:1039100040880004104300E00068024A50500390C1
:1039200007BD0000BC0F00200FB403BC0CBCF0B5F9
:103930000124E407634000E0F0B50C0DCF0F661ED4
:103940003605891B640503D3C943404200D30131C6
:10395000640D03D0661CF60A07D0E41B00207F002C
:10396000791C89078912803C24031D0DDF0F6E1E10
:1039700036059B1B6D0503D3DB43524200D3013355
:103980006D0D03D06E1CF60A07D0ED1B00227F00E0
:103990007B1C9B079B12803D2D032F1B661B58D45D
:1039A000A446202E46DA20371400BC401D00BD403E
:1039B000F24033412A4380185941CB0F05D0C94307
:1039C000C043002264425041514162464D0D28D10E
:1039D0000D0D07D100281FD0241940414941013A5B
:1039E0000D0DF9D0640006D3013000D30131002C55
:1039F00001D140084000013A0BD4941CE40A04D1E0
:103A000012051144DB071944F0BDD907204B1943B7
:103A100000E0D9070020F0BD0029DDD1002CDBD16A
:103A2000F0BD0132C6074008CD0728434908002EE3
:103A3000E1D0D9E73C2E29DA203E40371400BC40C3
:103A400000D00124F24014431A00BB401C43D3179A
:103A5000ACE7AC46202F08DA20360400B4400D0055
:103A6000B540F84039412843A5E73C2F0CDA203F08
:103A700040360400B44000D00124F840044308005C
:103A8000B1400C43C117EAE710001900002494E785
:103A90000000F07FF0B50C0D661E3605891BE60AA6
:103AA0006405640D02D0651CED0A04D000200121DC
:103AB0000905803C2403A4461C0D671E3F05DB1B43
:103AC000E70A6405640D02D0651CED0A04D00022EB
:103AD00001231B05803C24037740644497B484B2DF
:103AE00096B27443070C7E43150C6F4380B2684353
:103AF000361802D3012000043F183004350C001999
:103B00007D41844688B29AB250430C0C62431F0C2C
:103B10007C438EB27E43921902D301263604A41947
:103B20001604170C3618674101BC81B29AB2514392
:103B3000040C62431B0C5C4380B25843121802D33E
:103B40000120000424181004130C401863412D18A0
:103B50005E410020474106BC88B293B258430C0C2A
:103B60006343120C544389B251435B1802D30121C1
:103B70000904641819041A0C091862416D18564199
:103B80000020474118BCF902720D1143F0026A0D82
:103B90001043ED020A0D03D16D1940414941013B2B
:103BA000124E9B1B7600B3420ED26D0007D301303C
:103BB000002671416646354301D1400840001B058F
:103BC000C918E4072144F0BD0BDA013306D10130F6
:103BD00004D101314F0D01D04908F2E7E10700207F
:103BE000F0BD013631050020EBE70000FF030000C7
:103BF000F0B51C0D671E3F05DB1BE70A6405640D6D
:103C000002D0661CF60A04D0002201231B05803C6A
:103C10002403D0252D060026F6432E661E096E6667
:103C2000CE0FF619B44649004F0D02D07E1CF60A9D
:103C300003D000200021403F3F033E1BB600B444A8
:103C4000013F7F05C91B49082E6F013676089C028B
:103C5000950D25437543ED137543AD1301356D1077
:103C6000F603761B0CB4CC02450D2C43A2B2B3B2C2
:103C70005A43270C7B43350C6F43A4B26C431B198A
:103C800002D3012424043F191C041D0CA4187D41F7
:103C900024196D41009A91B2ACB26143170C7C4378
:103CA0002B0C5F4392B25A43A41802D30122120490
:103CB000BF182204230C52187B41019C6C431B1932
:103CC000520ED9010A434401A01A81B2B2B2514343
:103CD00003145A43360C734387B27743D617D2196D
:103CE00000277E4136049B191704160C7F185E418D
:103CF0007316ED18F301002680337541A90F06D124
:103D00006400690AE8055B0A184309D22FE004221F
:103D1000944480337541A90AA8059B0A184326D309
:103D2000404149412404009A019B0D005543641B06
:103D30004343E41A95B286B27543170C7E43030CD5
:103D40005F4392B25A43B61802D301221204BF183D
:103D50003204330C52197B4152429C41002C02D454
:103D60000022013051414008CA071043490802B0FF
:103D70006246D7079210084BD218084B9A4203D2DA
:103D800012058918C919F0BD0020002A01DC39008C
:103D9000F0BD01331905F5E7FD030000FE07000043
:103DA000002200B5203200F004F8080000BD000039
:103DB00000220B150AD410B5944600F031F8141403
:103DC000013400DA0021CB17144C204700200021D9
:103DD00070476244343A0CD40C2A07DA040091404C
:103DE000904052422032D440214310BDD843D943A1
:103DF00010BD203207D40C4694405242203211416B
:103E0000D040204310BD0800C917203203D45242CD
:103E10002032104110BD1800190010BDD33D001014
:103E20000A0DCC0F531E1B05C91A520503D3C943F3
:103E3000404200D30131520D03D0531CDB0A07D09E
:103E4000121B00206400611C89078912803A12034A
:103E5000014BD21A70470000FF0300005143434357
:103E6000C9188C46110C83B24B4310B4040C614347
:103E700092B280B2504362431C041B0C001910BC68
:103E800059411304120CC018514161447047491A3A
:103E9000002807D108467047C10FC90700D5404226
:103EA000002817D0F44603B40B4B1B68984706BC98
:103EB00081409E384042803107D20B0607D049002E
:103EC000490AC0051043084360470130F8E7490A32
:103ED0008902F5E770470000840F0020034BDB6F79
:103EE000FC4618477CDF214000100000BC10002079
:103EF00070B513231D782A48FFF720F90400012D1F
:103F000011D0012D09DDA31E1B789B007F2B40DD06
:103F100080222100234800F0A9F82348FFF706F982
:103F2000224B186070BD542201001E4800F09EF81C
:103F30001F4B1A881F4B9A421CD1A7239B011A883A
:103F40001D4B9A4216D11D4B1A881D4B9A4211D116
:103F50001C4B1A8894239B019A420BD11A4B1A8846
:103F60001A4B9A4206D11A4B1A681A4B9A4201D13F
:103F7000152307E01848FDF721FC9900094A174866
:103F8000885001331F2BF8D9144A064B1A62DA61A4
:103F9000B7E7134B134A42211348FDF775FBC046A0
:103FA00053460000BC1000204C330000840F00205A
:103FB000EE290000C40F0000C20D0000962B000087
:103FC000C0B50000182B0000CC2A000010B500007E
:103FD000FC2C000051ED876404760010ED3F0010CA
:103FE000B87D00103C7E0010EC7D001007B56046E7
:103FF000002800D100BE01880A0A0230DF2AFAD167
:10400000C9B2820804D3028840880004104300E04B
:104010000068024A5050039007BD0000BC10002009
:10402000C30FDB0741000A0E07D0FF2A08D0090999
:10403000054A891819434007704719000020704746
:104040000249C918FAE70000000000380000F07FBC
:1040500001480421014B1847900400204D31001005
:10406000014B1B681847000090040020014B5B685F
:10407000184700009004002010B50C0003681100E0
:104080002000984710BD0000F8B507000D0016008D
:10409000437C002B02D0002400200CE003681100B8
:1040A0002800984729E03B7C10E0022116483B6835
:1040B0009847601C0134B44214DA002CF3DD2B194C
:1040C000013B1B780D3B59425941CBB22A5D0A2A6C
:1040D000F0D1002BEED1A042E7DA211A28183B6874
:1040E0009847E2E7B04209DB002E06DDAD19013D3D
:1040F0002B780D3B594259413974F8BD311A2818B3
:104100003B689847F0E7C046B87E001070B50500E0
:104110000368002B16D00C4B1C6805E0291D2A688B
:104120002000FFF7B1FFE468002C09D02368002BC2
:10413000F9D0064B1B68002BF0D09C42F3D1EDE781
:1041400000232B6070BDC0465C0B0020600B00207C
:1041500070B505000C000B68802B05D023685A1C35
:104160002260E418257170BD0800FFF7CFFFF5E766
:1041700010B582B0D0231B0600241C5701A90748A4
:1041800002F012FF002806D1019B9C4203D0034895
:1041900002F01AFF012002B010BDC046E00400206A
:1041A00010B5024802F0E8FE10BDC046E004002051
:1041B000F0B5C64600B584B001900D0017001C0094
:1041C000FFF7D6FF80466B1C05D0002C08D0194E97
:1041D000194B1C680DE0019802F090FE0500F4E711
:1041E000164EF5E72A0001992000B047002F0CD1A8
:1041F000E468002C11D02368002BF9D0104B1B6809
:10420000002BEFD09C42F3D1ECE702ABD91D0A237F
:104210000B7001222000B047EAE74346002B06D18D
:10422000681E8541E8B204B004BC9046F0BDFFF7BB
:10423000B7FFF5E7794000105C0B002089400010C3
:10424000600B0020094A1368002B0BD0834202D078
:104250000C331A00F7E7002907D1C3681360002365
:10426000C36002E0002900D0106070475C0B0020A2
:1042700010B5064B1C6800E0E468002C04D06368AD
:10428000002BF9D09847F7E710BDC0465C0B002023
:1042900070B5050002F032FE040000230122010087
:1042A0002800FFF785FFFFF7E3FF200070BD000047
:1042B00070B5A2B004000E00FFF75AFF050084227B
:1042C000002101A8FFF7CCFE3300220001A9084815
:1042D000FEF714FF040001A8FFF718FFFFF7C8FF5F
:1042E000002D02D1200022B070BDFFF759FFF9E781
:1042F000514100100FB400B583B004A901C9019168
:10430000FFF7D6FF03B008BC04B0184710B500F0A3
:1043100035F910BD704700000022014B1A7070473C
:10432000BA0F00204B79FF2B01D0002070478B790A
:10433000002B0BD1CB79012B01D00020F6E7082A06
:1043400006D98A78034B1A700920EFE70020EDE7C1
:104350000020EBE7BA0F00200120704770B500295C
:104360002BD1117953791B020B43154909788B42E4
:1043700001D0002022E05378012B03D0022B15D06E
:1043800000201BE09178D3781B020B43DA0503D59C
:104390005A0A0125954000E000257F241C40094869
:1043A000FEF7C4FE03002100280098476422002184
:1043B0000020FDF705FE012000E0012070BDC04691
:1043C000BA0F0020554200000123037000487047D7
:1043D000BC7E001010B50B784A7812021A438B7815
:1043E0001B041A43CB781B0613439622D200934238
:1043F00000D010BD0348FEF799FE0300002108001D
:104400009847C0465542000030B583B004000D0007
:1044100001A9184802F0C8FD002808D1D0231B06C6
:104420001B68019A934221D0124802F0CDFD002072
:1044300001F030FE002807D1032464420D4802F049
:104440009BFD200003B030BD002001F045FE002898
:1044500002D103246442F1E72A002100002001F088
:1044600049FE041EEAD103246442E7E703246442C0
:10447000E7E7C0468C0F002010B50021054802F088
:1044800093FD002800D110BD01F096FB014802F019
:1044900073FDF8E78C0F0020F0B5C64600B582B07A
:1044A00080460D0001A92E4802F07EFD002808D1AB
:1044B000D0231B061B68019A93420FD0284802F0B4
:1044C00083FD002001F0E6FD002847D100200021F7
:1044D000244B18605960224802F04EFD02B004BC23
:1044E0009046F0BD01F068FB002001F017FE0020AF
:1044F00001F0D0FD0028EED0002001F091FE002850
:104500001DD0AC42E7DA2E1B002001F089FE864266
:1045100000DC30000028E5D04346191902000020D5
:1045200001F062FE060001F047FB002001F0F6FDFD
:10453000A419FCF77FFD0B4B18605960E1E7FCF70D
:1045400079FD084B1E685F68074A002392197B417A
:104550009942C0D8D5D19042D3D9BCE70024D0E746
:104560008C0F00200006002020A1070010B51F209E
:10457000FDF7B8FAFA208000002110BD70B584B0B4
:10458000234B1B7802F092F822491F20FDF7BAFA5C
:1045900001211F20FDF79EFA1F48FCF73BFEFCF7A8
:1045A00079FB0400FCF746FD002905DA1B4B1C4A89
:1045B0003F211C48FDF768F8FA22920000231218E8
:1045C0004B41994202D804D1904202D90122524271
:1045D000D317002B05DA114B114A3F211148FDF783
:1045E00053F801210291002101910F49009120000F
:1045F000FCF766FB0400631E9C41E4B2002802D174
:10460000200004B070BD01210848FFF71BFEF7E74A
:1046100010860010794400108C0F002000710010EB
:10462000E07E00101C7100106D450010A0040020F9
:10463000004870478C7F001000487047387F00109A
:1046400010B50400144B1B78002B0DD0002C10D19A
:10465000124A134B5A80012301335B00C02292009F
:1046600013430F48038010BD11210B4802F0DCFBFF
:10467000ECE7052C0ED8A4000A4BE4580023122BBB
:10468000EAD8E25C002AE7D00133590004484252DC
:10469000DBB2F4E70020E6E7A40F002009040000E5
:1046A000340B0020A07F00107F230340C209580074
:1046B00080184001014B18187047C046640B002059
:1046C00010B582B001AB00221A7080325A700024FB
:1046D00006E001AB185DFFF7E7FF0123C37001346B
:1046E000012CF6D902B010BD10B5838B3F333F22A9
:1046F0009343022915D0124C2268C260D31823605C
:104700009C0610D10F4C6240634080246401A34298
:104710000FD88906114380231B061943436819608B
:1047200010BD5B00E7E7084B084A54210848FCF736
:10473000ABFF084B054A56210548FCF7A5FFC046CC
:10474000680F00200000105018800010B87F001083
:1047500048800010A8800010F8B505000E00140075
:10476000FFF7A2FF7F232B406FB28570FA43D20F71
:1047700042700022C27086838477002F15DBDA0036
:1047800012498C4662448260826800211160002BCD
:1047900011D0002F13DB013BDB000D4A944663442C
:1047A00043602100FFF7A0FFF8BDDA0009498C46FD
:1047B00062448260E8E74360074BC360F4E7013B73
:1047C000DB00064A944663444360EAE784001050E5
:1047D0000C001050800010500001105008001050C4
:1047E00010B5002308E00133DA0000210948115018
:1047F000844662445160DBB20E2BF4D9F022920061
:10480000002105484030FFF72BFC044A044B1A6096
:1048100010BDC04600001050640B002080011050F5
:10482000680F0020F0B5CE46474680B583B01D4BDB
:104830009E6D0024012503E0AE436D000134E4B217
:10484000002E29D01F2C27D83542F6D0164B9D6557
:10485000630898460127674001231F4043465B00D9
:10486000DB195B01114A91469944484600F0AAFAC7
:104870000028E1D043465B00DF197F010B4BDF19B5
:10488000BA8AB978012300930023002000F00FFEBC
:10489000484600F007FACFE703B00CBC90469946B3
:1048A000F0BDC0460000115000301150640B0020D4
:1048B00070B59823294AD458E3030BD40025E306A6
:1048C00016D4E30419D4630429D4230433D4A542B1
:1048D0003ED170BDFFF7F4FE01222149002000F017
:1048E000CDFD802292021F4B1A6580256D02E6E7FE
:1048F00010231D43FFF796FFE3E780235B011D4371
:104900000022164B1A60FFF76BFF012200210020E6
:1049100000F09FFD80221203124B1A65D3E780231B
:10492000DB011D4301220421002000F07FFD102245
:104930000C4B1A65C9E780231B021D430122052188
:10494000002000F073FD80221201064B1A65BEE7BD
:10495000290061400448FCF731FFC04600001150B7
:104960000000105000301150E880001070B50C00AD
:104970001500FFF799FE2A00210000F0FFF970BD35
:1049800010B5002804D101210520FDF7A3F810BDC2
:10499000034B044AB92149000348FCF775FEC046A1
:1049A000DC800010D87F00104880001010B500286F
:1049B00005D1002200218020FFF7D8FF10BD034B56
:1049C000034ABF2149000348FCF75EFEDC8000106B
:1049D000E87F00104880001080225202014BDA6408
:1049E0007047C0460020115070B5051E25D100F05B
:1049F00033F9154C0C23A36714490520FDF782F801
:104A0000402200211248FFF72BFB0022402100200A
:104A1000FFF7A2FE002240218020FFF79DFEFFF756
:104A2000DFFE0123236480239B05E364094A90236E
:104A3000E2502800FFF7D0FF70BD074B074A4E2118
:104A4000FF310748FCF720FE00001150B14800106C
:104A5000640B002010D00100DC800010CC7F00101F
:104A6000488000100B785B0602D14B78052B00D0F4
:104A700070478A78014B1A60FAE7C046000011506F
:104A800010B50C0000280DD1097962790723134075
:104A90001B021943E2789207920FA078FFF75CFEA1
:104AA000012010BD034B044AD62149000348FCF7FE
:104AB000EBFDC046DC800010F87F0010488000103D
:104AC00010B5FFF78DFE10BD10B50C0011000028C9
:104AD00005D11A002000FFF749FF012010BD034B4C
:104AE000034ABC21FF310348FCF7CEFDDC800010F7
:104AF000088000104880001010B54B0605D14BB25D
:104B0000002B0BDB0222064B9A660800FFF7CCFD58
:104B100080221201002100F0CBF810BD0122F2E743
:104B20000020115010B54B0600D110BD0800FFF752
:104B3000BBFD0023C3700022014900F0B9F8F4E77F
:104B4000FFF7FFFFF8B504000F00438A828B1E1C9D
:104B5000934200D9161CB6B29B1B63828025ED00E0
:104B60003543E378002B13D08022920115430122B4
:104B70005340E3706378002B0CD0638A002B02D182
:104B80008023DB011D43002F00D02D042800F8BD39
:104B90000022EBE7B801E3689C4660443200A1695B
:104BA000FFF764FAA3699C466644A66180231B0252
:104BB0001D43E2E770B5040083681B68002900D03C
:104BC0001B0C9D05AD0D6278002A11D11B0409D480
:104BD000A38AEB18A382A38B9D4201D20023638298
:104BE000280070BD0E4B0F4AD7210F48FCF74CFD33
:104BF0001B040ED58901E3689C4661442A00A06924
:104C0000FFF734FAA38AEB18A382A3695B19A361A7
:104C1000E1E7064B034ADE210348FCF735FDC046B9
:104C200098810010FC800010B881001018820010DC
:104C300010B5040083681B680021FFF7BBFF6368A1
:104C40001B685B0002D5A38B984200D010BD0121E8
:104C50002000FFF7AFFFF9E710B580235B040C4A93
:104C600013600C4A13600C4B9A6880235B049343D7
:104C7000F9D10A4C9C2200212000FFF7F1F9802293
:104C8000520100210648FFF7EBF90923636710BDC5
:104C900000E0004000F0004000C000400000115063
:104CA00000001050002303744382838283617047A5
:104CB00010B5002902D083681B681940002A0FD064
:104CC000114353050CD5826813685B050BD40B4B5D
:104CD0000B401360FFE7FFE7FFE7FFE7FFE7FFE7B2
:104CE0008368196010BD83787F211940DB099B0020
:104CF000034A9A580348FCF761FDC046FFFBFFFFDB
:104D0000B40400200C81001070B5040043681E68D4
:104D10000021FFF717FF80256D010543144B1B6C25
:104D20009B0705D40223E356002B14DB012300E08C
:104D30000023628A002A01D0002B0ED00D4B1E40AA
:104D400080239B053343626813602A000021200002
:104D5000FFF7AEFF70BD0023EBE701212000FFF756
:104D6000F1FE0543044B1E40A023DB053343EAE775
:104D700000001150FFFFFFAFFFFFFFDF70B5040021
:104D80000D001600037C002B09D166820023A3824C
:104D900001332374A5612000FFF7B6FF70BD83784F
:104DA0007F211940DB099B00044A9A580448FFF709
:104DB000A1FA2000FFF776FFE7E7C046B404002021
:104DC0005881001070B50400057C002D06D0FFF757
:104DD0002FFF638A002B08D1280070BD81787F23C4
:104DE0001940044A0448FCF7E9FC2000FFF78CFF57
:104DF0000025F1E7B40400202C81001070B50500F7
:104E000000240DE0E31ADBB2002B1CD15A00D318AA
:104E1000DA00174B9B185B68280098470134E4B20E
:104E2000144B1B785A1C94420FDA134A002A08D0FC
:104E30009C42E7D262001219D100104B1B685B182C
:104E4000E9E72300E0E70023E5E70D4C53220021CA
:104E50002000FFF705F9E01C1022FF21FFF700F901
:104E6000200013302022FF21FFF7FAF870BDC04662
:104E700058830010B50F0020C943001024060020FD
:104E80005C09002010B5FFF7B9FF01F03FF810BD35
:104E900070B505000C001600C86801F041F8E36821
:104EA000320000212800984770BD0000F0B5DE46B2
:104EB000474680B585B003900139C8B2FFF7BCFB07
:104EC000002802D04378022B0AD0574A5749584845
:104ED000FFF710FA002005B00CBC90469B46F0BDD1
:104EE000C5796B090122534C134019012378102610
:104EF000B343AD092A4052010B4320218B43134396
:104F00002370050009358278C3781B02134380465D
:104F1000984467E0EB789B462B78ED1869E0464AA9
:104F200042494348FFF7E6F90020D4E7F31ADBB221
:104F3000002B25D15A00D318DB00404CE418019A0D
:104F400029000398A768B8470700082802D9019BE1
:104F5000834217D20136F6B20296394B1B785A1C9F
:104F6000964239DA374A002A08D09E42DED27300D0
:104F70009B19DB00344A1468E418E0E73300D7E7F4
:104F80000024DCE75B46012B10D0002293451BD99F
:104F9000AB78D318DBB22749C918C978FF290CD1DF
:104FA0002449CB18DE700132D2B2EFE7A268274B5A
:104FB0009A42EAD102239B46E7E7254A1B491C484F
:104FC000FFF798F9002086E733003A0029001948D6
:104FD000133001F0D9FBED19194B1B780133029AFC
:104FE0009A420FDA454515D26B780B2B92D00123EC
:104FF0009B466B78042B92D143465C1BA3B2019372
:105000000026A9E7F322920008490948FFF772F940
:10501000002060E70F4B002B03D000E000BF012011
:1050200059E7012057E7C0467B030000F8820010D3
:10503000708300105C090020960300005883001064
:10504000B50F0020C9430010240600204163001062
:10505000BD0300000000000070B504000D008B7857
:10506000C87800021843020AC0B20F2A55D893002C
:105070003049CB589F46FFF7DBFA02001223290084
:10508000200000F0F1FE70BD2B4B002B47D000E05C
:1050900000BF02008178C3781B020B432900200067
:1050A00000F0E2FEEFE7022A10D0244B002B38D0AC
:1050B00000E000BF00280CD08278C3781B021343A5
:1050C00002002900200000F0CFFEDCE7FFF7B4FA71
:1050D000F0E71B4A1B491C48FFF70CF90020D2E7F8
:1050E0002B79697909021943FFF7AAFA00281AD027
:1050F000037802002900200000F0B6FEC3E7134B3E
:10510000002B12D000E000BF002810D0037802006E
:105110002900200000F0A8FEB5E70020B3E700203A
:10512000B1E70020AFE70020ADE70020ABE70020AB
:10513000A9E7C0463882001000000000000000000F
:10514000140400000C8300107083001000000000A5
:10515000024B5878431E9841C0B270475C0900204A
:10516000024B18784007C00F7047C0465C0900200A
:10517000014B18787047C046B60F002070B5050087
:10518000284B1878002800D070BD532200212648F3
:10519000FEF766FF254C2000FCF73CF8244B1C6012
:1051A000244C20001C30FCF75BF8200001F0EEFDE1
:1051B000214B1C60214B002B04D02148FFF704F940
:1051C000204B1860002410E0E31ADBB2002B07D15B
:1051D0005A00D318DA001C4B9B1802E02300F5E7B5
:1051E00000231B6898470134E4B2154B1B785A1C06
:1051F00094420BDA114A002AF0D09C42E4D26200B9
:105200001219D1000F4B1B685B18EAE72800FFF763
:10521000EBFB2800FFF7B4FB0122024B1A700120C0
:10522000B2E7C046B60F00205C0900201409002038
:10523000B0090020BC040020B4090020C9430010BC
:10524000B50F0020240600205883001030B585B02B
:1052500004004378032B00D18BE02DD9042B5DD0C3
:10526000052B00D0B8E06D4B1B78DB075AD56B4A95
:10527000137804218B431370694B1D68EA69EFF3BF
:10528000108172B61368002BFCD0BFF35F8F2962C8
:105290002100280001F03EFDEA692B6ABFF35F8F11
:1052A0000021116083F3108800283BD1A8225D49BA
:1052B0005D48FFF71FF835E0022B00D08CE0574B1C
:1052C0001A7801218A431A701A7801318A431A70B8
:1052D00000225A701A7802318A431A70504B1D68A6
:1052E000EA69EFF3108172B61368002BFCD0BFF3AC
:1052F0005F8F29622100280001F00CFDEA692B6A0A
:10530000BFF35F8F0021116083F31088002809D15B
:10531000A82244494448FEF7EDFF03E03F4B1B78C9
:10532000DB0701D405B030BD3C4A137804210B43A0
:1053300013703B4B1D68EA69EFF3108172B6136876
:10534000002BFCD0BFF35F8F29622100280001F001
:10535000E1FCEA692B6ABFF35F8F0021116083F3E0
:1053600010880028DED1A8222E492F48FEF7C2FF60
:10537000D8E72A4B1B785B07D4D5284A1378042139
:105380008B43137001AD0C2200212800FEF768FE4C
:1053900023782B7005236B70214B1C68E269EFF3B7
:1053A000108172B61368002BFCD0BFF35F8F2162AF
:1053B00001A9200001F0AEFCE269236ABFF35F8F10
:1053C0000021116083F310880028ABD1A822154971
:1053D0001548FEF78FFFA5E7114B1D68EA69EFF34B
:1053E000108172B61368002BFCD0BFF35F8F296267
:1053F0002100280001F08EFCEA692B6ABFF35F8F61
:105400000021116083F31088002800D08AE7A822C9
:1054100004490548FEF76EFF84E7C0465C0900209A
:10542000B4090020C482001070830010F0B585B06C
:1054300007000E00150001AC0C2200212000FEF731
:105440000FFE2770667029002000FFF7FFFE05B0F1
:10545000F0BDF0B585B007000E00150001AC0C22C0
:1054600000212000FEF7FCFD2770012363702671E8
:1054700029002000FFF7EAFE05B0F0BDF0B585B0C9
:1054800007000E00150001AC0C2200212000FEF7E1
:10549000E7FD2770062363700822310002A8FEF79B
:1054A000E5FD29002000FFF7D1FE05B0F0BDF0B505
:1054B000CE46474680B585B08146884617001E0017
:1054C0000CAB1D7801AC0C2200212000FEF7C8FDBA
:1054D0004B4623700723637043462371A7606671B0
:1054E00029002000FFF7B2FE05B00CBC904699469B
:1054F000F0BD000070B506000D008A787F231340D0
:105500000F2B0CD80D4B9978280001F0E9F8041EF8
:105510000DD029003000FFF7B3FA040005E0084A77
:1055200008490948FEF7E6FE0024200070BD074A3E
:1055300004490548FEF7DEFEF7E7C0465C09002097
:10554000C20400003883001070830010C304000000
:10555000F0B5CE46474680B583B001900C0090462A
:105560001D000A9B9946002716E0184A1849194859
:10557000FEF7C0FE0026300003B00CBC90469946F2
:10558000F0BD154A12491348FEF7B4FEF3E70B9A33
:1055900013702378E4180137474514DA6378052B34
:1055A000E3D1E3789B079B0FAB42DED1210001984A
:1055B000FFF7A0FF061EE4D0A3785AB2002AE6DB6C
:1055C0004A461370E5E70126D5E7C0469C04000073
:1055D00024830010708300109D04000070B57F26A6
:1055E0000E40CD0972001E4B9B185B193033D878E2
:1055F000C007C00F31D11A4B9B185B193033DB78D1
:105600005B072BD4174B18680121494201F0D4FCE9
:105610007200134B9B185B193033DB78DB0708D41F
:105620000F4B9B185B193033DB785B0713D50020D9
:1056300000E00020041E08D0760009498E19751973
:105640003035EB7804221343EB70064B186801F0F9
:1056500093FC200002E00120ECE7002070BDC04672
:105660005C090020B009002070B57F240C40CD09F2
:10567000154B18680121494201F09EFC6200134B52
:105680009B185B193033DB78DB0708D40F4B9B1872
:105690005B193033DB785B0713D4002600E000266B
:1056A000002E08D0640009490C1965193035EB78D3
:1056B00004229343EB70044B186801F05DFC30004A
:1056C00070BD0126ECE7C046B00900205C0900204F
:1056D000F0B5C64600B582B001937F250D40CE09D6
:1056E0006F00174CE419A4193034E478E4071DD492
:1056F0006F00134CE419A4193034E3780127BC4639
:1057000067463B43E370019BFFF7DEF9002813D1A6
:105710006B000B4DED18AE193036F3780122934330
:10572000F370F37803329343F37005E0054A0649BA
:105730000648FEF7DFFD002002B004BC9046F0BD35
:105740005C0900200A0500004883001070830010E7
:1057500070B57F240C40CD0962000C4B9B185B197F
:105760003033DB789B0700D570BDFFF7C5F96300C8
:10577000064CE41864193034E37802221343E370D2
:10578000E37801221343E370EEE7C0465C09002092
:1057900070B57F240C40CD0962000C4B9B185B193F
:1057A0003033DB789B0700D470BDFFF7BBF9630093
:1057B000064CE41864193034E37802229343E37012
:1057C000E378013A9343E370EEE7C0465C090020BA
:1057D0007F230B40CA095B000349C918891830317F
:1057E000C8788007C00F70475C090020F0B5C64636
:1057F00000B582B004000D00002000F091FB2B7872
:105800005B069B0F022B11DC2B7860221A40402A8A
:1058100017D02B78DB06DB0E012B00D1DCE0002B50
:105820001DD0022B00D123E1002605E0B94ABA4978
:10583000BA48FEF75FFD0026300002B004BC904677
:10584000F0BDB74B002B00D1A1E1180000F068FBC0
:105850002A000021200000E000BF0600ECE7202A1B
:105860000AD0002A00D098E16B78092B00D996E184
:105870009B00AC4AD3589F462B790F2B00D988E167
:10588000A94AD318DB78A94A002A14D0A84A12786A
:1058900093420ED25A00D318DA00A64B1968891821
:1058A000002900D177E12A002000FFF7F1FA060075
:1058B000C2E79B1ADBB2002B05D15A00D318DA00DD
:1058C0009D498918ECE70021EAE7280000F02EFB4B
:1058D000A9782000FFF76AF8934A137802210B4356
:1058E00013700126A8E7904B5B786A460632137066
:1058F00001232900200000F0B7FA01269CE7AF78C9
:10590000894B5B78DBB29F4205D0874B5B78002BDD
:1059100009D1002F13D1844B5F702900200000F0C3
:1059200087FA012688E72000FFF7CAF87E4EB37891
:1059300098462000FFF762FA4346B370E9E7390062
:105940002000FFF7B3FA061EE5D17C4A724973487E
:10595000FEF7D0FC70E729002000FFF77DFB060072
:105960006AE7AA78EB781B021343012B01D00026CB
:1059700062E76D4A137808210B4313702900200059
:1059800000F056FA012657E7AA78EB781B0213437A
:10599000012B01D000264FE7634A137808218B437F
:1059A00013702900200000F043FA012644E75E4B03
:1059B00019784A0901231A400B070BD4002313431B
:1059C0006A460632138002232900200000F04CFAB8
:1059D000012631E70223F2E72B790F2B00D9E0E013
:1059E000514AD318DB78514A002A2CD0504A1278F9
:1059F000934226D25A00D318DA004E4B1968891800
:105A0000002900D1CFE02A002000FFF741FA061E4E
:105A100000D011E72B7860221A4200D00CE76B7897
:105A20000A3BDBB2012B00D906E7002000F078FA30
:105A30006B780A2B11D02900200000F0F9F901261B
:105A4000FAE69B1ADBB2002B05D15A00D318DA0014
:105A500039498918D4E70021D2E76B469A1D002303
:105A6000137001332900200000F0FEF90136E3E64F
:105A700029796B791B020B43D9B27F200840CB09EF
:105A80000F281DD84000284E3018C318DB7C27484B
:105A900000281ED026480078834218D25800C31828
:105AA000D800244B1E683618002A1CD0002E00D1C6
:105AB0007BE02A0031002000FFF7EAF90600BBE690
:105AC0001F4A15491548FEF715FC0026B4E61B1AB7
:105AD000DBB2002B05D15800C318D800164E36187B
