:020000041000EA
:1000000000B5324B212058609868022188439860DF
:10001000D860186158612E4B002199600221596106
:100020000121F02299502B49196001219960352056
:1000300000F044F80222904214D00621196600F024
:1000400034F8196E01211966002018661A6600F04E
:100050002CF8196E196E196E052000F02FF8012189
:100060000842F9D1002199601B49196000215960AB
:100070001A491B48016001219960EB211966A021F2
:10008000196600F012F800219960164914480160C1
:100090000121996001BC002800D000471248134993
:1000A000086003C880F30888084703B5996A0420EC
:1000B0000142FBD001200142F8D103BD02B5186610
:1000C0001866FFF7F2FF186E186E02BD00000240BE
:1000D000000000180000070000035F00212200005C
:1000E000F4000018222000A00001001008ED00E03C
:1000F00000000000000000000000000074B24E7A12
:1001000000200420F7010010C3010010C5010010F9
:10011000C1010010C1010010C1010010C101001097
:10012000C1010010C1010010C1010010C701001081
:10013000C1010010C1010010C9010010CB01001065
:10014000CD010010CD010010CD010010CD01001037
:10015000CD010010CD010010CD010010CD01001027
:10016000CD010010CD010010CD010010CD01001017
:10017000CD010010CD010010CD010010CD01001007
:10018000CD010010CD010010CD010010CD010010F7
:10019000CD010010CD010010CD010010CD010010E7
:1001A000CD010010CD010010CD010010CD010010D7
:1001B000CD010010CD010010CD010010CD010010C7
:1001C00000BE00BE00BE00BE00BE00BE00F04BF888
:1001D000103800BEF2EB8871888E0010A48E0010DB
:1001E0003402001090A31AE700202149086006C8D5
:1001F00081F3088810471F48006800282FD10DA4FC
:100200000ECC002902D000F012F8F9E71A491B4A77
:10021000002000E001C19142FCD1194988471949E9
:1002200088471949884700BEFDE701C901C29A42C3
:10023000FBD37047A48E0010C00000203C1A0020A1
:1002400020A80010000004200000042020A80010B6
:1002500000100420001004200000000070470B482C
:1002600002F0E6FE0047EFF30580C0B270470000E1
:1002700008ED00E0000000D0401A0020101F002010
:10028000A1160010E50300105D160010575600007F
:1002900006005250ABB360532C7C00100600525045
:1002A000861C03023C7C0010060052505422A29D82
:1002B000447C001005005250DE65F46820A8001050
:1002C000F8B5C046054B0648033310B51B1A062B7C
:1002D00003D9044B002B00D0984710BD3C1A0020D6
:1002E0003C1A0020000000000648074910B5091A12
:1002F0008910CB0F5918491003D0044B002B00D0A4
:10030000984710BD3C1A00203C1A00200000000055
:1003100010B5074C2378002B09D1FFF7D3FF054B0D
:10032000002B02D0044800E000BF0123237010BD61
:10033000401B002000000000986D0010094B10B514
:10034000002B03D00849094800E000BF08480368B3
:10035000002B02D1FFF7C8FF10BD064B002BF9D0D0
:100360009847F7E700000000441B0020986D00103C
:100370003C1A00200000000070470000F8B504009F
:100380000F004B680A689E1AB01000232360636058
:10039000A36000281BD0124B984216D8800003F0AF
:1003A000BBFD050025606560AE19A66038687E68F3
:1003B000FFF7E2FF07003000FFF7DEFFC61BB310B8
:1003C00007D1AD1965602000F8BD03F0DDFF002501
:1003D000E8E732003900280005F084FFF1E7C04665
:1003E000FFFFFF3FF0B58DB0192000F06BF88022C1
:1003F0009204D0231B065A620023069307930893A6
:10040000102003F089FD0690040010340894102297
:100410001D4903F07BFD079406A909A8FFF7AEFF6D
:1004200009A9684603F0B8FE0998002801D003F036
:1004300077FD684603F016FF1449684603F032FF63
:10044000D02424068025AD046561FA27BF0038005A
:1004500000F066FD684603F065FFA561FA267600A8
:10046000300000F05DFD0A49684603F01BFF65613E
:10047000380000F055FD684603F054FFA5613000D8
:1004800000F04EFDD8E7C046986D00106A180000D5
:1004900096E7FFFF10B58300084A944663441C6842
:1004A00040226240C02414408022520113431C6049
:1004B000C000034B9C466044416010BD04C0014035
:1004C0000040014010B501238340D0221206936200
:1004D00093610521FFF7DEFF10BD0000EFF31080F0
:1004E00072B6034B1B68002BFBD0BFF35F8F7047C6
:1004F0002C0100D0BFF35F8F0022024B1A6080F303
:10050000108870472C0100D070B505000E00140053
:10051000FFF7E4FFF208AA181578072131400123FC
:100520008B402B4205D1DBB22B431370FFF7E2FF68
:1005300070BD3100200001F02FF90000034B1B6853
:1005400002201840431E9841C0B2704700C00640C8
:10055000002307E0054A9A189200BFF35F8F00213D
:10056000116001331F2BF5D97047C046400000349D
:10057000054A1078431CDBB21370172B02D91022E6
:10058000014B1A707047C0461C11002070B5050061
:100590000C00080000F014FD200000F0F9FD0849EF
:1005A000200000F039FDFFF7E3FF064B9C46604456
:1005B000800068602C75A400034BE55070BDC046F8
:1005C000D908001040000034E01C00200A4B1A68D3
:1005D000EFF3108172B61368002BFCD0BFF35F8F6E
:1005E000054B1B68BFF35F8F00221A6081F31088F0
:1005F00040BF002000217047F41C002010B50029E6
:1006000022D003681B7B99421ED8174B9C4661443D
:10061000090183689C4661440C684968002A19D026
:1006200003681B7B9A4215D883680F48844662444E
:1006300012019A1810685368020001208B4201D8F9
:100640000ED00020C0B210BD084B094A3B2109481A
:1006500001F008F8054B064A3B21064801F002F874
:10066000A242EFD8EDE7C046FFFFFF0F846F0010F6
:10067000006E00109070001010B500291FD0037B91
:1006800099421CD84B005B18033B0468A4466344A2
:1006900000291AD0002A1ED0914222D0002A26D04A
:1006A000047BA24223D80468500080180338201825
:1006B00081701978002920D041701A7010BD104B3C
:1006C000104A6821104800F0CDFF104B104A6F31DE
:1006D0000D4800F0C7FF0F4B0D4A70210A4800F08B
:1006E000C1FF0D4B0A4A7121074800F0BBFF044BC4
:1006F000044A6821044800F0B5FF1A70DEE7C046DE
:10070000DC6F0010C06D0010F86F00104C7000100E
:10071000CC6D0010587000106470001070B50600A9
:100720000D001400002916D0002A01D1080013E0A2
:10073000806873689847002806D12A00210030009D
:10074000FFF79AFF200007E0220029003000FFF7A2
:1007500093FF280000E0100070BD000070B5CE4689
:1007600000B583B00500009201930AAB1C780BAB77
:100770001B789946002C28D003685A7B944214D0E9
:10078000002C0CD01A7B944209D81A6863001B19FC
:10079000033BD3189B78002B08D0012306E0434B82
:1007A000434A6821434800F05DFF0123002B06D136
:1007B000002C28D1200003B004BC914670BD3E4BF4
:1007C0003E4A65213E4800F04DFF03689C7B002CAB
:1007D000EED012D01A7B94420FD862001219033A5D
:1007E00019688C46624451789973002900D1D973F5
:1007F0000023937053701370DAE72C4B2C4A682156
:100800002C4800F02FFF002C39D02B681B7B9C421A
:1008100035D82C4BE3181B01AA6894466344009911
:10082000019A19605A60089A9A60099ADA602E68EB
:10083000002C2AD02FD0337B9C422CD863001B196C
:10084000033B32689446634400229A705A701A70CF
:10085000717B22003000FFF761FF70738442A9D1E1
:10086000287D009A019B00F01FFC061E02D04B461B
:10087000002B16D00C9B002B9CD01E709AE7124BBD
:10088000124A3B210E4800F0EDFE114B114AA52102
:10089000084800F0E7FE054B054A6821054800F0CE
:1008A000E1FE2868210000F03BFEE3E7DC6F00106A
:1008B000C06D0010F86F00106C6E0010386E0010E4
:1008C00090700010FFFFFF0F846F0010006E00108B
:1008D0008C700010E06D0010F0B5D6464F464646CD
:1008E000C0B58CB00B908200B54BD55837E10023D2
:1008F0000024089309946A68EFF3108672B61368AF
:10090000002BFCD0BFF35F8F2F687C7B002C41D184
:1009100000239846002700206B68BFF35F8F0022FA
:100920001A6086F31088002F00D116E153461E028C
:10093000264341463000B847069007916A68EFF3B6
:10094000108972B61368002BFCD0BFF35F8F079B32
:10095000002B00DB89E02B69002B00D185E0B3423E
:1009600071D1089A099B08921E0006980799121ADD
:100970008B419E4203D805D10899914202D90122A8
:100980005242D317002B64DA8E4B8F4A3F218F4897
:1009900000F068FE002C1AD03A7B944217D88C4B9A
:1009A000E2181201AB689846904443461A685B68A7
:1009B000121A8B411000002B0FDD43461A685B684A
:1009C0000B9800F071FB002398460027A4E7814BA9
:1009D000814A3B21814800F045FE002B01D10028CF
:1009E000EBD10021380000F091FDA04219D143461F
:1009F0001A685B680892099343469F68DB689846CB
:100A0000002F14D0002C18D02B681B7B9C4214D8CC
:100A1000631EEA68D35C9A461B02184328610020D3
:100A20007AE76F4B6F4A8C216C4800F01BFE6E4BCF
:100A30006C4A9021694800F015FE664B6B4A4021D4
:100A4000664800F00FFE6A4B664A9F21634800F03B
:100A500009FE002104910131039102944146019164
:100A600000972800FFF77AFE6EE0079B002B0EDD53
:100A70002B69002B11D0B34225D100F0ADFA00292B
:100A800027DA504B504A3F21504800F0EBFD069AC0
:100A9000079B002B01D1002AEAD12B68002C69D0DA
:100AA0005A7B94423CD0002C34D01A7B944231D8EB
:100AB00062001219033A19688C4662449278002A3F
:100AC0002FD001222DE04A4B464AA221434800F094
:100AD000C9FD0890069A079B12184B41994202D80B
:100AE00004D1904202D901225242D317002B05DAD9
:100AF000344B354A3F21354800F0B4FD00210491C4
:100B00000131039102944146019100972800FFF7BB
:100B100025FE19E0374B384A6821384800F0A2FD1D
:100B20000122002A26D1DA7B002A29D1DC73002C8D
:100B300039D02B681B7B9C4235D8013CEB689C4626
:100B4000644423780133237000232B616A68BFF368
:100B50005F8F136089F310880120002829D000F0EE
:100B60003BFA002900DBC2E6164B174A3F21174823
:100B700000F078FD224B234AF621204800F072FD58
:100B8000002A0AD0197B8A4207D851008A18033AF2
:100B900019688C4662445470C8E7164B164A68219F
:100BA000164800F05FFD0B4B104A40210B4800F047
:100BB00059FD0CB01CBC90469946A246F0BDC046FB
:100BC000E01C0020946E0010A86D0010B06E0010A4
:100BD000FFFFFF0F846F0010006E00109070001078
:100BE000006F0010506E0010186F00100C6E001097
:100BF000246F0010DC6F0010C06D0010F86F001043
:100C0000606F0010F06D001010B50A4B5B68002B90
:100C100004D00A21084800F0DBFA10BD054C23007F
:100C2000064A1021206800F0A1FB03212000FFF7F5
:100C3000ADFCEEE720110020F41C0020FD050010A3
:100C400010B5064B5B68002B01D0044810BD044B67
:100C5000044A5C21044800F005FDC0462011002034
:100C6000B86F0010206E001090700010F0B5DE46D6
:100C700057464E464546E0B589B0804616001F00EF
:100C8000129B994614AB1B789A4600221F236B4493
:100C90001A7030E000280AD042461268127B904257
:100CA00005D8421E4146C9688A5C934643E0424BE0
:100CB000424A4021424800F0D5FC00F08DF900295D
:100CC00005DA404B404A3F21404800F0CBFC241855
:100CD0004D41A94202D804D1A04202D90124644264
:100CE000E517002D05DA374B374A3F21374800F02A
:100CF000B9FC26002F0043465B68EFF3108572B6FF
:100D00001A6854425441E4B2002CF9D1BFF35F8F0A
:100D10001F236B440493002303930293139B0193BB
:100D20004B46009332003B004046FFF717FD031E81
:100D3000B0D10022934641464968BFF35F8F00223D
:100D40000A6085F31088002B2AD01F236B441B7880
:100D5000002B02D15A4614020443002B22D05346E2
:100D6000002B1FD013992000C84704000D0003007A
:100D70000B431FD00029A0DA32003B00361BAF41E5
:100D8000BB4202D804D1B24202D901267642F717FB
:100D9000002FB0DA0B4B0C4A3F210C4800F062FCEC
:100DA00001246442200009B03CBC90469946A2460A
:100DB000AB46F0BD0024F5E7846F00100C6E001008
:100DC00090700010946E0010A86D0010B06E0010AE
:100DD000F0B587B006000F00FFF745FA002813D1E1
:100DE00006246442E517A4197D41BD4202D803D10F
:100DF000B44201D900240025002D08DA2C4B2D4ADD
:100E00003F212D4800F02EFC2C4800F0C5FC049436
:100E1000059500F0E1F8002905DA254B254A3F2128
:100E2000254800F01FFC241A8D41002D12DDFFF72C
:100E300007FF002302930193214B0093049A059B23
:100E4000FFF714FF002822DA3000390000F0D0F854
:100E500007B0F0BD002DF7D1002CE8D1F4E7002356
:100E600000E00023002BEFD1164B1A68EFF310813E
:100E700072B61368002BFCD0BFF35F8F114B1B6859
:100E8000BFF35F8F00221A6081F3108820BF04999E
:100E9000059A0D4B5B6A9A42E3D80B48806A8842F8
:100EA00003D29A42DBD00123DCE70123DAE7C04614
:100EB000946E0010A86D0010B06E0010D470001079
:100EC000CD050010F41C00200040054070B5040062
:100ED0000D0000F081F8002905DA0E4B0E4A3F2183
:100EE0000E4800F0BFFB02000B00001969418B4265
:100EF00002D804D1824202D901204042C117002900
:100F000005DA044B044A3F21044800F0ABFBFFF72D
:100F10005FFF70BD946E0010A86D0010B06E0010E1
:100F200010B5FA2292000023002102F019FFFFF70A
:100F3000CDFF10BD70B5EFF305833F20184010388A
:100F4000EFF3108472B6194B1B68002BFBD0BFF374
:100F50005F8F012319008140154A5163154A1278A9
:100F60001500C5402B4214D0114B5D6A8300124E10
:100F70009B599D4206D38300104D5B598A430D490E
:100F80000A7007E00A4A031D9B00995899500023F4
:100F900000E00023BFF35F8F0021044A116084F357
:100FA0001088002B00D0984770BDC046280100D0A3
:100FB000004005400A1D0020F81C00205C1C002099
:100FC00010B50100024A0348FFF79EFA10BDC04663
:100FD00040710010081D0020044B596A00E0190000
:100FE000024B986A5B6A9942F9D17047004005400C
:100FF000084B5B6A01E0074B5B6A8B42FBD301E065
:10100000044B5B6A8B4203D1024B9B6A8342F7D34A
:101010007047C0460040054070B504000D00EFF376
:10102000108672B61B4B1B68002BFBD0BFF35F8F83
:10103000002D1CD0200000F043FD174B98420BD030
:101040001900200000F044FD0121200000F030FDD7
:101050000123A340114A1360A400114BE550BFF3D4
:101060005F8F00220B4B1A6086F3108870BDA200C0
:1010700000210B4BD1500122A2400A490B78934327
:101080000B700549200000F04DFD0021200000F00C
:101090000FFDE4E7280100D0350F0010386005404F
:1010A0005C1C00200A1D0020F0B5DE4600B584B0AF
:1010B0000500140001921E000293FFF78DFF0394B8
:1010C0008E422CD9EFF3108B72B6294B1B68002B84
:1010D000FBD0BFF35F8F274A17780124AC40E3B2FF
:1010E0003B431370244B5C632A1D92000199D1503D
:1010F000AA002249029850501B6A23421BD11E4B62
:101100001B6C234211D00020BFF35F8F0022184BCD
:101110001A608BF3108804B004BC9346F0BD8E4275
:1011200001D18442CED80120F5E7154B154AC121E3
:10113000154800F097FAFFF74FFF8E4214D802D1FE
:10114000039B834210D80B4B1B789F420ED00A4B57
:101150001C625C631F222A40012393400B4A1360E8
:10116000044B1F700120CFE70020CDE70120CBE723
:10117000280100D00A1D002000400540F81C002076
:1011800064710010247100108871001080E200E08A
:1011900010B5EFF3108472B60A4B1B68002BFBD01E
:1011A000BFF35F8F01238340074A136207490A7820
:1011B0009A430A70BFF35F8F0022024B1A6084F3D8
:1011C000108810BD280100D0004005400A1D0020F5
:1011D000024B9C4661448900016070474000003426
:1011E00010B50400FFF7C4F901002000FFF7F0FF7D
:1011F000FF232371BFF35F8F10BD10B50400FFF70D
:10120000B7F901002000FFF7E3FFFF23237100235C
:101210006371BFF35F8F10BD10B500291FD0037B32
:1012200099421CD84B005B18033B0468A4466344F6
:1012300000291AD0002A1ED0914222D0002A26D09E
:10124000047BA24223D80468500080180338201879
:1012500081701978002920D041701A7010BD104B90
:10126000104A6821104800F0FDF9104B104A6F3108
:101270000D4800F0F7F90F4B0D4A70210A4800F0B5
:10128000F1F90D4B0A4A7121074800F0EBF9044BC4
:10129000044A6821044800F0E5F91A70DEE7C04608
:1012A000DC6F001078720010F86F00104C700010A6
:1012B00084720010587000106470001070B5060041
:1012C0000D001400002916D0002A01D1080013E0F7
:1012D000806873689847002806D12A0021003000F2
:1012E000FFF79AFF200007E0220029003000FFF7F7
:1012F00093FF280000E0100070BD000010B500232F
:10130000437301338373037BC373012308E05A00E3
:10131000D218033A01688C4662440133DBB2537041
:10132000027B93420AD2002B02D0027B9342EED979
:101330000B4B0C4A68210C4800F094F9002A09D0A4
:10134000924207D8016853009A18033A8A1800237A
:10135000537010BD024B034A6821034800F082F924
:10136000DC6F001078720010F86F001010B5017378
:1013700042608360FFF7C2FF10BD000070B504003B
:10138000002901D1080070BD002928D0037B9942B3
:1013900025D84B005B18033B0268944663445A7897
:1013A000002AEFD021D0007B82421ED85000801846
:1013B00003382568AC4660444678002545705D706A
:1013C0002000FFF77BFF050031002000FFF7D6FF6C
:1013D000020029002000FFF771FF0100D2E7064B51
:1013E000064A6821064800F03DF9034B034A68218C
:1013F000034800F037F9C046DC6F00107872001027
:10140000F86F001070B505000C001600002928D0F8
:101410002DD0037B99422AD84B005B18033B02680E
:10142000944663445A78002A27D19A78002A2AD110
:101430001978FFF7A3FF0300002E03D0EA7B002AF0
:1014400027D1EC73002B37D1002C49D02B7B9C4249
:1014500046D82A6863001C19033C141900236370E2
:1014600070BD224B224A3821224800F0FBF8224B63
:10147000224A6821224800F0F5F8224B1C4A3A2102
:101480001C4800F0EFF8204B194A3B21194800F0A6
:10149000E9F8002A0AD0297B8A4207D851008A1825
:1014A000033A29688C4662445470CAE7124B134AC7
:1014B0006821134800F0D6F8002B0BD02A7B93420A
:1014C00008D843001B18033B2A6894466344002253
:1014D0009A70B9E7084B094A6821094800F0C2F838
:1014E000054B064A6821064800F0BCF8EC72001073
:1014F00098720010F4720010DC6F00107872001007
:10150000F86F0010387300106073001070B504009D
:101510000A00457B2900FFF775FF6073280070BD46
:1015200010B5040000296AD0437B99420ED00029EF
:1015300011D0037B99420ED84B005B18033B026825
:10154000D0188378002B0CD1002059E00121FFF73F
:10155000DDFF012054E02B4B2B4A68212B4800F083
:1015600081F8002B1AD0227B934217D85A00D31847
:10157000033B2268D2181378994215D0002B16D05D
:10158000227B934213D85A00D318033B2268D21807
:101590005378994211D0002BF0D111E0194B1A4A1F
:1015A00068211A4800F05EF8437813700AE0154B82
:1015B000154A6821154800F055F843785370012307
:1015C000002B10D000238370437001222000FFF70E
:1015D00019FF0200617B88420BD02000FFF76EFEEE
:1015E000607301200CE00A4B0A4A67210A4800F0A8
:1015F00039F80A4B074A6D21074800F033F80020FC
:1016000010BDC046DC6F001078720010F86F00103B
:10161000C4720010AC720010F4720010CC72001092
:1016200000BEFDE70A4B1B68002B09D0084B1B6866
:101630001818084A824207D3054A106018007047FC
:10164000054A034B1A60F1E701204042F7E7C04624
:10165000DC1C002000000420101F002010B5FFF744
:10166000DFFF000010B582B00C001900002A0CD07A
:10167000084B002A0BD00192009323000200064879
:1016800002F07EFD0120FFF7CBFF044BF1E7034A98
:10169000F1E7C0468473001094730010907300103B
:1016A00070B52B4A2B4B1A602B4A2C4B1A602C4BD3
:1016B0009A68294B9343FAD12A4C01E008CC984709
:1016C000294B9C42FAD300F0FFF8284A234B1A60BA
:1016D000234B9B68DB43DB01FAD1254B40229A6701
:1016E0005A671A67DA66234C03E02000FFF785FD8E
:1016F0000834214B9C420FD22368002B07D0012BCA
:10170000F3D01E4B1E4A83211E48FFF7ABFF20007B
:10171000FFF766FD0834ECE71B4CA1681B4DC022A7
:10172000280002F0F3FBA560FEF79DFD002800D025
:1017300000BEFEF70DFF00F045FBFFF765FA144C05
:1017400001E008CC9847134B9C42FAD370BDC046C9
:10175000BFCDFBFE00E00040FE7F3C0000F00040FB
:1017600000C00040101A0020201A0020FFFFFF01D7
:1017700000F00140081A0020101A0020E873001041
:10178000C47300100874001000ED00E00000002099
:10179000201A00203C1A00200FB400B583B008487E
:1017A00002F0BCFC049B002B07D005A90191180096
:1017B00002F0C4FC034802F0B1FC0120FFF730FF47
:1017C000D4730010E4730010F0B5DE46574680B5C0
:1017D00083B007000D0092460A9A93424DD31A0E29
:1017E000110001921B02180000930A9A002301F0D5
:1017F000B5FC04007B00DB199E002E4B9C46664422
:101800007368834200D270603B1FDBB29B46012BA2
:1018100039D9C0239B013343802212011A60BB00D7
:10182000254A9958002905D0506901F055FC01302E
:101830000138FDD153465B0132685340E02213402A
:1018400080225201324313605B46012B26D980234C
:101850009B013343802212011A607460220000232E
:101860000098019901F07AFCBF00134BF850012059
:1018700003B00CBC92469B46F0BD104B104A2D2184
:101880001048FFF7EFFE012DC3D1C0239B01334366
:1018900003221A60B368DB07FCD5CBE731686940E7
:1018A00003230B401360B3680122AA401A42FAD006
:1018B000CDE7C046008000406C1C0020647400101E
:1018C000547400107874001030B583B00C2000F010
:1018D00013FBFEF733FE00280DD0002304E099002F
:1018E0002D482E4A88500133092BF8D92C4A2B4B0E
:1018F0005A6203B030BD00222A4B9A6700F004FB05
:101900000122294B1A60274B5B6C012BFBD1032270
:10191000264B1A60234B9B6B012BFBD102240094B6
:101920000533234A0121234800F05AFA0094052385
:10193000214A0121214800F053FA214B0093002253
:1019400002210420FFF740FF1E4D00952B000022CE
:1019500001210520FFF738FF0F4C009423000022DF
:1019600000210720FFF730FF009423000022002110
:101970000820FFF729FF0A4B0093230000220021D3
:101980000920FFF721FF00952B00002200210620EF
:10199000FFF71AFFADE7C046006CDC026C1C0020AC
:1019A0001BB70000008000403CB0004030B0004059
:1019B000002F68590080024000389C1C00C0024083
:1019C000001BB70040597307074B9B68103080001D
:1019D0001950BFF35F8FBFF35F8F0021034B196076
:1019E00082F310887047C04600ED00E0240100D06B
:1019F00010B5091A0B1F0A4A94466144094A9142DC
:101A000008D8DA0706D45B105B055B0D064818435F
:101A100080B210BD054B064A8B210648FFF722FE17
:101A2000FC070000FE0F000000E0FFFFCC76001076
:101A3000E4740010FC76001010B5091A04394C0843
:101A4000090B08D14905490D064A11430180064B8F
:101A50002343438010BD054B054A93210548FFF7FA
:101A600001FEC04600F0FFFF00F8FFFF48750010C0
:101A7000F0740010FC76001001238340034A1068C4
:101A80001840431E9841C0B27047C04600E100E0D4
:101A9000002902D1034B18607047034B1860034BB9
:101AA0001860F9E780E100E080E200E000E100E09A
:101AB00010B5012383401800FFF7EAFF10BD0000B6
:101AC000024B9B6810308000C058704700ED00E06A
:101AD00070B504000D00EFF3108672B60C4B1B6856
:101AE000002BFBD0BFF35F8F2000FFF7E9FF094B0E
:101AF000984201D0A84205D1320029002000FFF70A
:101B000063FF70BD044B054A6E210548FFF7AAFD2F
:101B1000240100D0CD01001094760010C87400108C
:101B2000FC760010F0B5CE4600B582B005000F007F
:101B3000EFF3108972B6564B1B68002BFBD0BFF336
:101B40005F8F544B9A682C001034A300D658524B28
:101B50009E4200D198E0BE4200D197E000964F4BE4
:101B6000F31A2F2B08D94A4631002800FFF72CFF23
:101B700002B004BC9146F0BD2800FFF77DFF019044
:101B800000212800FFF794FFBFF35F8FFEF76BFB88
:101B9000011E01D0844211D10123009C9C430020EE
:101BA000A3689F4212D00622A256002A0DDB5300E2
:101BB0009B189A002000394CA418F1E7384B394A99
:101BC0001E21FF313848FFF74DFD20009F4254D1C0
:101BD0000627E757002F36DB7A00D21991002F4BEA
:101BE0005B189A68A260DA79E27106229A56A271AD
:101BF0009B795BB2002B23DB201D284A8B181A1D12
:101C00009B88D90A1C2915D159054915023149006B
:101C10005118FFF7EDFEA0807B00DB199A001F4BE7
:101C20009B18224A11789971177001992800FFF7C3
:101C30003FFF98E71E4B1F4A99211B48FFF712FDF3
:101C4000BD200002E7E7002912D100280ED0FF23B3
:101C50008371194B8380154A1378A371174B0F4971
:101C6000641A644163431B0D1370DEE70A4EF2E70A
:101C7000201D1349FFF7E0FED7E7124B094A522116
:101C8000FF310948FFF7EEFC034E6CE7024E6AE7AE
:101C9000240100D000ED00E0CD010010481100202B
:101CA0006876001018750010FC760010091D0020E1
:101CB0001C7600100875001000BDFFFFAAAA0000E6
:101CC000821100208C760010F8B50400012606432E
:101CD000304BF31A2F2B28D8FEF7C5FA00282BD04B
:101CE000EFF3108572B62C4B1B68002BFBD0BFF3B3
:101CF0005F8F2A492300274A9B1A5B415943090DEC
:101D000049B2274B9B6880001B589E421BD0002382
:101D1000032B28D85A00D21890001E4A1218927924
:101D200052B28A4214D00133F2E71E4B1E4ABB2145
:101D300049001E48FFF796FC1D4B1B4A7A21FF31D4
:101D40001A48FFF78FFC164B9B681A4A1A500DE091
:101D500010485A00D718BE008619FF27B771164BD6
:101D6000B380012300E00023002B0BD0134B1A7823
:101D7000A2711970BFF35F8F0022074B1A6085F3C1
:101D80001088F8BD0E4B084AC52149000748FFF7E7
:101D900069FCC04648110020240100D0AAAA000016
:101DA00000ED00E0347600102C750010FC76001079
:101DB0005C760010CD01001000BDFFFF091D002062
:101DC000C47200100023044A03E004491160013387
:101DD0000432072BF9D9704700E400E0808080804E
:101DE000F0B5CE4600B505000C0017001E000C2013
:101DF00001F072F9814635494143380001F06CF930
:101E00000200103A98235B009A4232D8731E062BC8
:101E100035D8069B013B062B31D8069B9E4234D316
:101E20003F09B94537D83304069A16031E432B6879
:101E3000002B36DB264B9D4244D080214901254BA7
:101E40001960254B1960254A92680B009343FAD11B
:101E50002C60A8602A1DC0239B01134321221A6015
:101E60002A68002AFCDAEE6008221A6004BC914657
:101E7000F0BD1B4B1B4A16211B48FFF7F3FB1B4B06
:101E8000184A19211848FFF7EDFB194B154A1F2175
:101E90001548FFF7E7FB174B124A22211248FFF7BC
:101EA000E1FB2A683F2313409C42C3D1AB681B056A
:101EB0001B0D9842BED1EB68EE22D20213409E4227
:101EC000B8D1D3E780218901B9E7C04640420F006D
:101ED00000C0024000E0004000F0004000C00040B0
:101EE00050770010447700106C770010B477001022
:101EF000007800101878001080239B001843014BD5
:101F0000D862704700800540064BAA2212011A6071
:101F10002F22DA60044A054B1A60024B5B68002BE3
:101F2000FBDA70470040024000B0FA000060024057
:101F3000704710B5002800D110BD0B68496898475C
:101F4000FAE710B50400002307E09800C318580012
:101F50004B1C23600B781B18303B21680A78303A01
:101F6000D2B2092AF1D9180010BDF0B5D6464F46B5
:101F70004646C0B582B00500009101930A9B994680
:101F80000B9C0C9B98460D9B9B0717D04B4691468C
:101F90001E0022E0541C019B00992020B04701370D
:101FA0002200AF42F6D354460C95350046460C9BB2
:101FB00098464B460A93B1461E000EE02700A24603
:101FC00043460C93904606001D00EAE7013C571C6F
:101FD000305D019B0099A8473A00002CF6D14E468F
:101FE0000D9B9B070BD52C00474605E0551C019B1C
:101FF00000992020A0472A00931B9F42F6D810008A
:1020000002B01CBC90469946A246F0BDF0B5CE4643
:1020100000B586B0049205930C9D0D9C0EAE3378EE
:102020009946109A119B129EB7071CD4002B0CD016
:10203000F7070AD54F46002F02D10C37374204D09C
:10204000013B02E030272F550134944205D21F2C6A
:10205000F8D902E030272F550134F70703D59C4209
:1020600001D21F2CF6D9F70615D5770505D4002C1B
:1020700003D094421CD09C421AD00F9A102A23D02D
:102080000F9A102A28D00F9A022A2DD01F2C02D87E
:1020900030272F5501341F2C2FD84A46002A29D12A
:1020A000720736D4320728D520272F55013424E073
:1020B000671E002F06D00F9A102A01D03C00DCE7E3
:1020C000023CDAE73C00D8E7B206D9D41F2CD7D8B7
:1020D00078272F550134D9E7B206D4D51F2CD2D892
:1020E00058272F550134D1E71F2CCFD862272F5501
:1020F0000134CBE72D272F55013403960293019429
:102100000095059B049AFFF730FF06B004BC91468A
:10211000F0BD2B272F550134EFE7F0B5C64600B5CB
:1021200094B0089009910A920B931AAB10CB1B78CC
:1021300098461F9D002C01D110239D438027FF004E
:102140002F4015D0002C20D0002711E0AA061AD568
:102150004121C918C9B20A39C9B20CABD9551C9969
:10216000200000F0B9FF041E10D037001F2E0DD83C
:102170001C99200000F0B0FFCBB27E1C092BE5D8E3
:102180003033D9B2E9E76121E3E7002606951E9BCB
:1021900005931D9B04931C9B039343460293019656
:1021A0000CAB00930B9B0A9A09990898FFF72EFF36
:1021B00014B004BC9046F0BDF0B5DE46574680B57D
:1021C00099B00C900D910E920F93209C219D22AB03
:1021D0001B789B46249B0A93259B0B93289B9A462E
:1021E00023002B4303D1103352469A439246802654
:1021F000F60053461E4006D023002B432FD0002666
:102200005746099419E05746099416E0BA0621D5B5
:102210004122D218D2B20A3AD2B210AB9A550A9AD7
:102220000B9B0998290000F099FF09900D000B0005
:10223000034316D026001F2C0ED80A9A0B9B099830
:10224000290000F08BFFD3B2741C092BDED8303389
:10225000DAB2E2E76122DCE7BA46270003E00027B2
:1022600001E0BA46270053460693279B0593269B19
:1022700004930A9B03935B460293019710AB009370
:102280000F9B0E9A0D990C98FFF7C0FE19B00CBC6D
:1022900092469B46F0BD0000F0B5DE4657464646E6
:1022A000C0B594B004000691150007931C9E0896D3
:1022B0001D9F099732003B003000390001F0DDF925
:1022C000002800D0E9E001225242D04B3000390012
:1022D00001F0CEF9002800D0DFE001225242CC4BC1
:1022E0003000390001F0AEF9002800D0D5E000221E
:1022F00000230898099901F0A5F9002800D0E2E030
:10230000089A099B0A920B938023DB00209A1A40BB
:102310009246131E01D106331E930A980B990200B0
:102320000B000C920D9303000A00024300D1D3E08E
:102330000A00100D4005400DB64EB446604412032D
:10234000120B1E00B44B13431F0001F0A9F9B34A4E
:10235000B34B01F034F9B34AB34B01F009F90C90D7
:102360000D910022B14B3000390001F0F8F8B04A6D
:10237000B04B01F024F902000B000C980D9901F00C
:10238000F7F801F0A5F9060001F08AF9AA4AAB4B6B
:102390000C900D9101F013F90022A94B01F0E8F81F
:1023A00001F096F90700A74AA74B0C980D9901F088
:1023B00006F90C900D91380001F072F9A34AA44B74
:1023C00001F0FDF802000B000C980D9901F0C7F820
:1023D00002000B000E900F9101F0F1F81090119196
:1023E0009C4BFB181B050D9300230C930E980F9923
:1023F00002000B0001F0BCF8129013910E9A0F9B93
:1024000000208021C90501F0AAF80E900F9100224A
:10241000914B1098119901F0B4F800228F4B01F004
:10242000A7F802000B001098119901F0AAF80022F9
:102430008B4B01F09DF802000B001098119901F0F0
:10244000A0F802000B000E980F9901F091F802001D
:102450000B001298139901F094F800226E4B01F0D2
:1024600087F80C9A0D9B01F0AAF802000B000C9261
:102470000D930E900F9102000B000A980B9901F03A
:10248000E1F8002829D0013E0022744B0E980F99E4
:1024900001F077F80C900D911FE0209B04931F9B97
:1024A00003931E9B0293089A099B00920193079B3A
:1024B0002A000699200000F0F7F814B01CBC9046E2
:1024C0009A46A346F0BD089B0A93099B80221206F8
:1024D000944663440B9317E7002633006333C62BFF
:1024E0002BD80427209B1B0521D50C9A0D9B190086
:1024F00011430FD05B4A5C4B0A980B9901F0B0F87E
:1025000000281FD00022594B0A980B9901F09AF825
:10251000002817D01E9B9E4211DA9E1B731E1E932D
:102520008023DB00209A1A432092002700261F9B5D
:102530009F4211D2DB1B9B4610E00527D2E7002308
:102540001E93EDE71E9B002BF1D05346002BEED0DF
:102550001E9B013B1E93EAE700239B460223209A21
:102560001A40924603D0002F01D000239B46002E34
:1025700007D00C9A0D9B0A980B9901F002F80A906B
:102580000B91002200230898099901F05BF80028BC
:1025900070D1374B209A134004935B4603931E9BE4
:1025A00002930A9A0B9B00920193079B2A000699BB
:1025B000200000F079F8002F00D17EE7209B9B06D9
:1025C00063D545230893431C9846079B0200069950
:1025D0000898A047F217B1185140F30F7A1E052052
:1025E00005900492002203920A3202920193009114
:1025F000079B424606992000FFF78FFD5346002BAC
:1026000000D15AE702001F9E48E0C046FFFFEF7F5F
:10261000FFFFEFFF01FCFFFF0000F03FFB799F5041
:102620001344D33FB3C8608B288AC63F0000F83FED
:1026300061436F63A787D23F71A379094F930A4023
:102640000000E03F1655B5BBB16B0240EF39FAFE12
:10265000422EE63FFF03000000002C400000244013
:10266000000018402D431CEBE2361A3F80842E41B7
:10267000FFF7FFFF0A990A000B99802000068446A5
:1026800061440B000A920B9383E7652308939AE752
:10269000571C079B06992020A0473A00531B9E42D7
:1026A000F6D8100009E7C046F0B5D646474680B5D3
:1026B00097B00690079108920993209F1E9A1F9B3E
:1026C0001000190000F0D9FF00282AD1012252423F
:1026D000BA4B1E981F9900F0B5FF002830D1012297
:1026E0005242B74B1E981F9900F0C2FF00283AD003
:1026F0000423229A134032D0B24A002B31D1032353
:10270000229903912199029101930092099B089AC1
:1027100007990698FFF729FC17B00CBC90469A461B
:10272000F0BD229B0393219B029303230193A64BAD
:102730000093099B089A07990698FFF716FCEBE7A8
:10274000229B0393219B0293042301939F4B0093AD
:10275000099B089A07990698FFF707FCDCE79C4A53
:10276000CBE70423CCE700229A4B1E981F9900F078
:102770007FFF002817D10022974B1E981F9900F069
:1027800061FF00280FD1002200231E981F9900F03E
:1027900059FF002817D100239A46229B5B0500D4DD
:1027A000062700261FE0229B0493219B0393029798
:1027B0001E9B1F9C00930194099B089A07990698F9
:1027C000FFF76AFDA8E71E9A1F9B0020002100F07A
:1027D000C6FE1E901F9101239A46DEE730220EAB03
:1027E0009A55013F01361F2E01D8092FF6D81E98A1
:1027F0001F9900F06DFF040000F052FF02000B0073
:102800001E981F9900F0ABFEFA00744B9B181A68D3
:102810005B680C920D9300F0D2FE0A900B9100F0D1
:102820007BFF050000F038FF02000B000A980B99AF
:1028300000F095FE0A900B910022694B00F018FF02
:1028400000282CD00135280000F026FF02000B00E4
:102850000C980D9900F0FCFE002801D001340025F1
:10286000002F2AD1200000F01BFF02000B001E9851
:102870001F9900F074FE0022594B0A900B9100F052
:10288000E1FE002843D10022554B0A980B9900F035
:10289000EFFE00283BD1E30739D5013437E00022B1
:1028A0004F4B0A980B9900F0CDFE0028D8D1002D8F
:1028B00001D0EB07D4D50135D2E70A941F2E10D8EA
:1028C000013F741C0A21280000F006FC30310EABD9
:1028D00099550A21280000F0FFFB051E03D02600B1
:1028E000ECE70A9C08E0A0460A9C464604E030213A
:1028F0000EAA91551F0001361F2E02D87B1E002FF5
:10290000F5D11F2E03D82E220EAB9A5501361F2E5D
:1029100010D8751C0A21200000F0B6FB30310EAB38
:1029200099550A21200000F0AFFB041E01D02E00B3
:10293000EDE72E000323229A1340012B16D01F2E01
:1029400006D85346002B28D02D220EAB9A550136BF
:10295000229B0393219B029301960EAB0093099B4C
:10296000089A07990698FFF700FBD5E6219B002BF4
:102970000DD05346002B02D10C33134207D0219BBC
:10298000013B219303E030220EAB9A550136219B87
:102990009E42D4D21F2EF6D9D1E7229B5B0704D5E5
:1029A0002B220EAB9A550136D2E7229B1B07CFD5BF
:1029B00020220EAB9A550136CAE7C046FFFFEFFF53
:1029C000FFFFEF7F147A0010207A0010247A0010A5
:1029D0001C7A001065CDCD4165CDCDC1307A001097
:1029E0000000E03FF0B5DE4657464E464546E0B5AE
:1029F00093B083460B910A921193002912D00027BD
:102A00005E46119B1878002800D1E5E225280CD0FD
:102A10007C1C0A9B3A000B99B047119B0133119320
:102A20002700EEE7CD4B9B46E9E7013311930025E4
:102A300006E001231D43013211920124002C23D012
:102A4000119A1378203BD9B210291BD88B00C449A6
:102A5000CB589F4602231D43013211920124EDE71A
:102A600004231D43013211920124E7E708231D438B
:102A7000013211920124E1E710231D43013211922A
:102A80000124DBE70024D9E7119B1A781300303BBF
:102A9000DBB2092B10D92A2A13D0A346119B1A782E
:102AA0002E2A1ED0119A1378683BD9B2122959D810
:102AB0008B00AC49CB589F4611A8FFF742FA8346DA
:102AC000ECE71C9B1A1D1C921B68002B04DB9B4629
:102AD000119B01331193E1E7022215435B429B46B0
:102AE000F6E78022D20015435A1C11925A7813003F
:102AF000303BDBB2092B0BD92A2AD3D11C9B1A1DE0
:102B00001C921C68002C08DB119B01331193C9E750
:102B100011A8FFF716FA0400C4E70024F4E78023A5
:102B20005B002B43511C119152786C2A01D01D007F
:102B300018E0C0239B001D430131119112E0802356
:102B40002B43511C11915278682A01D01D0009E0D5
:102B5000C0231D430131119104E080235B001D431C
:102B600001321192119B18780300253BDAB2532AE7
:102B700000D927E293007C4AD3589F4680239B00CC
:102B80001D4301321192EDE780235B001D430132AA
:102B90001192E7E778280AD0582840D06F2841D012
:102BA000622842D010239D43063B9C4601E010233F
:102BB0009C4658283CD0692803D0642801D00C22B8
:102BC00095436B0501D501229543692833D06428CC
:102BD00031D0AB0500D5A4E0EB0500D5C6E06B060F
:102BE00000D5D8E02B0600D4DCE01C9A111D1C9106
:102BF00012681204120C05955B4604930394634615
:102C000002930023019300920A9B3A000B99300033
:102C1000FFF783FA0700119B01331193F1E61023AC
:102C20009C46C6E708239C46C3E702239C46C0E7B0
:102C300020221543BFE7AB051ED4EB054DD46B0630
:102C400063D42B0668D51C9A111D1C910023D25EFB
:102C5000D317D1185940D20F05955B4604930394BE
:102C600063460293019200910A9B3A000B9930004F
:102C7000FFF753FA0700CEE71C9BDA1D07218A43B2
:102C8000110008311C91116853689846DB170E93A8
:102C90000F930E9A0F9B100048400C90190040466D
:102CA00041400D910C980D99801A99410C900D910D
:102CB0004346DA0F08955B460793069463460493F0
:102CC000002305930292009001910A9B3A000B9910
:102CD0003000FFF771FA07009DE71C9A111D1C9147
:102CE0001268D317D1185940D20F05955B4604934B
:102CF000039463460293019200910A9B3A000B9958
:102D00003000FFF70AFA070085E71C9A111D1C9195
:102D10001168FF220A409BE71C9A111D1C91126842
:102D200096E71C9BDA1D07218A43110008311C918C
:102D30005368126800920193002208955B4607933E
:102D4000069463460493059202920A9B3A000B99FB
:102D50003000FFF731FA07005DE7C046311F001071
:102D60003478001078780010C47800101C9A111D77
:102D70001C911368009305955B4604930394634686
:102D80000293002301930A9B3A000B993000FFF74E
:102D9000C4F907003FE71C9A111D1C911168FF221E
:102DA0000A4028E71C9A111D1C91126823E7462847
:102DB00019D01C9B0733072293431A0008321C9238
:102DC0001A685B680092019304955B460393029432
:102DD0000A9B3A000B993000FFF766FC0700119B35
:102DE000013311930DE620231D43E2E767281FD02E
:102DF00047281DD045281FD047281DD01C9B0733CE
:102E0000072293431A0008321C921A685B680092EA
:102E1000019304955B46039302940A9B3A000B9935
:102E20003000FFF739FA0700119B01331193E8E5F1
:102E300080231B011D43DDE720231D43DEE7022322
:102E40002B409A461ED001251C9B1A1D1C927C1CEF
:102E500018780A9B3A000B99B0475346002B22D1B1
:102E6000119B013311932700CBE5541C0A9B0B994E
:102E70002020B0472B0022005D1C9F42F5D8BB46A6
:102E80001700E1E701233A005F46F5E7571C0A9B6C
:102E90000B992020C04725003A006C1CAE42F5D8A3
:102EA00014004646DCE72200B0465E46F5E71C9B70
:102EB0001A1D1C921B689846002C02D02300414624
:102EC00004E001235B42FAE7013113000A78002A8B
:102ED00002D05A1E002BF7D14346CB1A9A468023C4
:102EE000DB002B40994602D0A24500D9A24602231E
:102EF0002B40109315D03A004546B0464E461CE094
:102F0000571C0A9B0B992020B0472B003A005D1CF0
:102F10009C42F5D8A3465446AA464546B0464E467E
:102F20000BE03A005346A2465C46F0E71C00013530
:102F3000571C0A9B0B99C0473A002878002804D0F8
:102F4000002EF4D0631E002CF0D117004646109BD3
:102F5000002B0FD1119B0133119352E5551C0A9B95
:102F60000B992020B04723002A005C1C9F42F5D813
:102F70001700EFE75F465346F7E721232B431C9AE0
:102F8000111D1C9112680092059308230493039469
:102F900008330293002301930A9B3A000B993000F7
:102FA000FFF7BBF80700119B0133119329E57C1C47
:102FB0000A9B3A000B992520B047119B01331193CE
:102FC00027001EE57C1C0A9B3A000B99B047119B19
:102FD00001331193270014E5B3460A9A97420CD3A4
:102FE000013A0A9B0B990020D847380013B03CBC2B
:102FF00090469946A246AB46F0BD3A00F1E7C0467E
:1030000000B585B002900391009313000122524253
:1030100002A90248FFF7E6FC05B000BD331F00100F
:1030200001480421014B1847901100205130001035
:1030300010B5010018231B8814221088984710BD72
:1030400010B5010018231B8816221088984710BD60
:10305000F0B5C64600B507000E00002501239846CE
:1030600000E00135B5420AD2AC003C192068FFF7F8
:10307000DFFF20600028F4D100239846F1E74046A6
:1030800004BC9046F0BD0000124A936F9B0815D215
:103090009066D166002905D0FFE7FFE7FFE7516F93
:1030A000106F704704B580210906C21751400028EF
:1030B00000D0C84303F020FE002104BDF0B5146E1B
:1030C000556E576F166FFFF7E3FF14665566576727
:1030D0001667F0BD000000D0114A936F9B0813D211
:1030E00010665166002905D0FFE7FFE7FFE7516F43
:1030F000106F704704B5002801D00020C04303F0D2
:10310000FBFD002104BDC046F0B5146E556E576F2F
:10311000166FFFF7E5FF1466556657671667F0BD33
:10312000000000D094464E4A926F9208624601D247
:1031300030E0C046F0B54A4EB56F6D08FCD3346E32
:10314000756E776F366F00F025F89446444A146622
:103150005566576716676246F0BDC0469446404ABA
:10316000926F9208624601D258E0C046F0B53C4EDC
:10317000B56F6D08FCD3346E756E776F366F00F0E7
:103180004DF89446364A1466556657671667624688
:10319000F0BDC046002B24DB11D000293EDA00B57B
:1031A000C943404200D1013100F038F8C9434042E0
:1031B00000D10131DB43524200D1013300BD002A6E
:1031C000EBD1002801D1002905D00020C90FC90783
:1031D00001D1C043410800B503F066FD0022002381
:1031E00000BD00B500290ADBDB43524200D10133A8
:1031F00000F014F8C943404200D1013100BDC94379
:10320000404200D10131DB43524200D1013300F092
:1032100005F8DB43524200D1013300BD002923D120
:10322000002B18D1002A0CD0BC460D4F38667A66A8
:1032300000210023FFE7FFE7FFE77A6F386F67465B
:103240007047002801D00748010000B503F02CFDAD
:103250000022002300BD02000B0000200021704767
:10326000000000D0FFFFFFFF002B00D0BFE0130CD9
:1032700028D1002AE7D080B4114F39667A66FFE77B
:10328000FFE730B4040C7B6F396F1B0423433B66AC
:103290007A66FFE7FFE7FFE7C04684B27B6F3D6FCA
:1032A0001B0423433B667A66FFE7FFE7C046002323
:1032B0002C042D0C7A6F386F00196941B0BC70472F
:1032C000000000D0F0B594460025140E01D1120282
:1032D0000835140F01D112010435940F01D1920069
:1032E0000235D40F01D152000135D40B0134254FE2
:1032F0007C66254C3C660E0C93B2FFE7FFE7FFE7C8
:103300003C6F6643360C7703BE467343DF0B5B04AA
:10331000C01AB941130C7343DB18C91ACE086643AF
:10332000360CB64493B273431F0F1B01C01AB94148
:10333000130C73431F0B1B05C01AB941860D8F0276
:103340003E436643360C092D24DB520A7243801A31
:103350007703460A6643360C16235B1BDE40DF40CC
:10336000BF1964466643821B70460435063301006C
:10337000D940A840C01900D30131A24206D200238F
:10338000F0BD0000000000D0FFFFFFFF121B013066
:10339000F3D3F1E709277F1BFE406446A2B27243D4
:1033A000801A00D20139220C7243130C1204821AC3
:1033B00099410B007046043513370100F940A840CD
:1033C000801900D30131002B02D1A2420AD2F0BDF4
:1033D000013000D30131121BFAD2013BF8D1A242D5
:1033E00000D2F0BD013000D30131121BF7E7F0B578
:1033F0001C0C00D080E00CB400251C0A04D11B0278
:10340000160E3343120208351C0B04D11B01160F94
:103410003343120104359C0B04D19B00960F3343B8
:1034200092000235DC0B02D192185B4101351C0081
:10343000971864410134464F7C66464C3C660E0C3E
:10344000FFE7FFE7FFE7C0463C6F6643360C7703B4
:10345000BE4697B27743C01B00D20139C01B00D2D1
:1034600001399FB27743C91BC91B170C77437E04F0
:10347000FF0B801BB941CE086643360C0C2D33DBA5
:10348000B644120B1F053A431B0B97B27743C01B80
:1034900000D201399FB27743C91B170C77433E0412
:1034A0003F0C801BB941860D8F023E43664329279E
:1034B0007F1BFE400C3D7746AF40BF1930BCA2B227
:1034C000ABB272437343801A9941220C7243130CBE
:1034D0001204801A994102000B000137001BA94118
:1034E000F9D2781E0021F0BD0C277F1BFE407746E5
:1034F0007F0BAF40FF19E0E700245D1C07D0144F9D
:103500007D663966FFE7FFE7FFE7FFE73C6F95B2AF
:103510009EB265436643401BB141150C1E0C6543CA
:10352000664336042F0C3E432D04401BB1419942A3
:1035300004D202000B0020000021F0BD01D1904216
:10354000F7D3801A994101349942F2D3F6E700008B
:10355000000000D0FFFFFFFF48404140484018B442
:103560001B4B5B68FC46019308BD04DF3338001039
:1035700018B4174B1B68FC46019308BD00DF3D38AB
:1035800000109446134A926F920809D2624618B40A
:103590000F4BDB68FC46019308BD0CDFF53A0010C9
:1035A0000C4AF0B5146E556E576F166F6246FFF7F2
:1035B000EEFF084A1466556657671667F0BD18B4E3
:1035C000034B9B68FC46019308BD08DF9939001046
:1035D0000C1D0020000000D0FFB55040424050407C
:1035E00059404B40594000E0FFB5154F4C00640D69
:1035F00003D0BC4204D10C0314D80020090D0905E6
:103600005C00640D03D0BC4204D11C030AD8002224
:103610001B0D1B0501264B4009D44B4003D58B42A3
:1036200000D18242FFBD9942FCD19042FFBD0B43C5
:10363000DB1803431343F5D0C9434918FFBD00000D
:10364000FF07000000B5FFF7CFFF804100BDC04677
:1036500000B5FFF7C9FF01D9002000BD012000BD62
:1036600000B5FFF7B9FF01D9002000BD012000BD62
:1036700000B5FFF7B1FF804100BD012040054A00C1
:10368000121804D85A00121801D8002070470120DF
:1036900070470020704700000021002805D17047C6
:1036A000C1174840401AFAD0C90713B5064B1B682A
:1036B00098470CBC441CA2401005120B0349091B7F
:1036C00009051943114310BDF01C00201F04000020
:1036D00010B54C00620D8023D218DB00D21A5B05B6
:1036E0007E2A10DD9E3A13DACC17090349081943E4
:1036F0005242D140640001341532202A05DAD0400C
:103700000843604310BD002010BD0846604310BD53
:10371000C80FC018013810BD18B4044B5B6AFC46D2
:10372000019308BD24DFA53C001000000C1D002003
:1037300070B513231C78012C27D0012C12DD2048F2
:10374000FFF77EFC05001F48FFF77AFC023803787C
:103750009B007F2B1BDD802229001B4800F0D6FB3D
:10376000022C1AD0022C02DC174B184A9A64184813
:10377000FFF75EFC174B186070BD9900124A1348A2
:10378000885001331F2BF8D9D7E70023FAE7124BF3
:10379000124A32211248FDF765FF124B1A88B523F1
:1037A0001B029A4209D1104B1A88104B9A4204D13D
:1037B0000F4B1A880F4B9A42D4D00020FDF7ECFF34
:1037C00053440000534600000C1D0020F937001040
:1037D0004C330000F01C0020807A0010347B001075
:1037E000E07A001054380000D83800004946000044
:1037F0009C3800005946000007B56046002800D1FB
:1038000000BE01880A0A0230DF2AFAD1C9B2820852
:1038100004D3028840880004104300E00068024A94
:103820005050039007BD00000C1D00200FB403BCD6
:103830000CBCF0B50124E407634000E0F0B50C0DCA
:10384000CF0F661E3605891B640503D3C94340426A
:1038500000D30131640D03D0661CF60A07D0E41BC7
:1038600000207F00791C89078912803C24031D0DEC
:10387000DF0F6E1E36059B1B6D0503D3DB435242E3
:1038800000D301336D0D03D06E1CF60A07D0ED1B7B
:1038900000227F007B1C9B079B12803D2D032F1B6A
:1038A000661B58D4A446202E46DA20371400BC40AC
:1038B0001D00BD40F24033412A4380185941CB0FCF
:1038C00005D0C943C0430022644250415141624681
:1038D0004D0D28D10D0D07D100281FD024194041CE
:1038E0004941013A0D0DF9D0640006D3013000D3EF
:1038F0000131002C01D140084000013A0BD4941C46
:10390000E40A04D112051144DB071944F0BDD907BC
:10391000204B194300E0D9070020F0BD0029DDD17C
:10392000002CDBD1F0BD0132C6074008CD0728438B
:103930004908002EE1D0D9E73C2E29DA203E403755
:103940001400BC4000D00124F24014431A00BB40D4
:103950001C43D317ACE7AC46202F08DA203604000E
:10396000B4400D00B540F84039412843A5E73C2F4D
:103970000CDA203F40360400B44000D00124F84067
:1039800004430800B1400C43C117EAE710001900D6
:10399000002494E70000F07FF0B50C0D661E36059C
:1039A000891BE60A6405640D02D0651CED0A04D08B
:1039B000002001210905803C2403A4461C0D671E3C
:1039C0003F05DB1BE70A6405640D02D0651CED0AA8
:1039D00004D0002201231B05803C2403774064446B
:1039E00097B484B296B27443070C7E43150C6F43B0
:1039F00080B26843361802D3012000043F18300417
:103A0000350C00197D41844688B29AB250430C0CA3
:103A100062431F0C7C438EB27E43921902D301266F
:103A20003604A4191604170C3618674101BC81B27C
:103A30009AB25143040C62431B0C5C4380B258435E
:103A4000121802D30120000424181004130C40188B
:103A500063412D185E410020474106BC88B293B2F5
:103A600058430C0C6343120C544389B251435B1806
:103A700002D301210904641819041A0C09186241BF
:103A80006D1856410020474118BCF902720D1143D0
:103A9000F0026A0D1043ED020A0D03D16D19404189
:103AA0004941013B124E9B1B7600B3420ED26D0082
:103AB00007D30130002671416646354301D14008E5
:103AC00040001B05C918E4072144F0BD0BDA01339F
:103AD00006D1013004D101314F0D01D04908F2E780
:103AE000E1070020F0BD013631050020EBE70000C2
:103AF000FF030000F0B51C0D671E3F05DB1BE70A46
:103B00006405640D02D0661CF60A04D0002201236D
:103B10001B05803C2403D0252D060026F6432E6687
:103B20001E096E66CE0FF619B44649004F0D02D03D
:103B30007E1CF60A03D000200021403F3F033E1BBD
:103B4000B600B444013F7F05C91B49082E6F0136FA
:103B500076089C02950D25437543ED137543AD130F
:103B600001356D10F603761B0CB4CC02450D2C43C9
:103B7000A2B2B3B25A43270C7B43350C6F43A4B2B5
:103B80006C431B1902D3012424043F191C041D0C8F
:103B9000A4187D4124196D41009A91B2ACB26143E1
:103BA000170C7C432B0C5F4392B25A43A41802D3E8
:103BB00001221204BF182204230C52187B41019CDD
:103BC0006C431B19520ED9010A434401A01A81B259
:103BD000B2B2514303145A43360C734387B277434E
:103BE000D617D21900277E4136049B191704160CEC
:103BF0007F185E417316ED18F3010026803375417E
:103C0000A90F06D16400690AE8055B0A184309D2C6
:103C10002FE00422944480337541A90AA8059B0A29
:103C2000184326D3404149412404009A019B0D00CA
:103C30005543641B4343E41A95B286B27543170C8F
:103C40007E43030C5F4392B25A43B61802D301225B
:103C50001204BF183204330C52197B4152429C416A
:103C6000002C02D40022013051414008CA07104301
:103C7000490802B06246D7079210084BD218084B89
:103C80009A4203D212058918C919F0BD0020002AF2
:103C900001DC3900F0BD01331905F5E7FD03000033
:103CA000FE070000002200B5203200F004F80800F2
:103CB00000BD000000220B150AD410B5944600F098
:103CC00031F81414013400DA0021CB17144C2047CA
:103CD0000020002170476244343A0CD40C2A07DAE1
:103CE00004009140904052422032D440214310BD04
:103CF000D843D94310BD203207D40C4694405242D9
:103D000020321141D040204310BD0800C917203295
:103D100003D452422032104110BD1800190010BDCA
:103D2000D73C00100A0DCC0F531E1B05C91A5205B3
:103D300003D3C943404200D30131520D03D0531C79
:103D4000DB0A07D0121B00206400611C890789125E
:103D5000803A1203014BD21A70470000FF030000A3
:103D600051434343C9188C46110C83B24B4310B4E2
:103D7000040C614392B280B2504362431C041B0C9A
:103D8000001910BC59411304120CC0185141614470
:103D90007047000070B513231D782A48FFF750F9CB
:103DA0000400012D11D0012D09DDA31E1B789B00FD
:103DB0007F2B40DD80222100234800F0A7F8234814
:103DC000FFF736F9224B186070BD542201001E48DF
:103DD00000F09CF81F4B1A881F4B9A421CD1A72356
:103DE0009B011A881D4B9A4216D11D4B1A881D4BF8
:103DF0009A4211D11C4B1A8894239B019A420BD1F1
:103E00001A4B1A881A4B9A4206D11A4B1A681A4B47
:103E10009A4201D1152307E01848FDF7BDFC99002F
:103E2000094A1748885001331F2BF8D9144A064B0A
:103E30001A62DA61B7E7134B134A42211348FDF7C0
:103E400011FCC046534600000C1E00204C330000FD
:103E5000F01C0020EE290000C40F0000C20D00007D
:103E6000962B0000C0B50000182B0000CC2A0000E3
:103E700010B50000FC2C000051ED87649073001019
:103E8000913E0010487B0010CC7B00107C7B001022
:103E900007B56046002800D100BE01880A0A02303A
:103EA000DF2AFAD1C9B2820804D30288408800040C
:103EB000104300E00068024A5050039007BD000024
:103EC0000C1E002010B5040001F04CFF002804D0A7
:103ED0000419034B9C4200D810BD0248FDF75CFC5E
:103EE00000000420E07B001010B501F045FF10BD7C
:103EF00001480421014B1847A01100205130001047
:103F0000014B1B6818470000A0110020014B5B68A3
:103F100018470000A011002010B5FFF7D3FF10BD17
:103F200010B5FFF7E1FF10BD10B5FFF7DDFF10BDC5
:103F300010B50C00036811002000984710BD000068
:103F4000F8B507000D001600437C002B02D00024BA
:103F500000200CE0036811002800984729E03B7C12
:103F600010E0022116483B689847601C0134B442B7
:103F700014DA002CF3DD2B19013B1B780D3B594261
:103F80005941CBB22A5D0A2AF0D1002BEED1A042D2
:103F9000E7DA211A28183B689847E2E7B04209DBC4
:103FA000002E06DDAD19013D2B780D3B59425941DC
:103FB0003974F8BD311A28183B689847F0E7C046B5
:103FC000507C001070B505000368002B16D00C4B18
:103FD0001C6805E0291D2A682000FFF7B1FFE4688E
:103FE000002C09D02368002BF9D0064B1B68002B4E
:103FF000F0D09C42F3D1EDE700232B6070BDC046AA
:10400000D41C0020D81C002070B505000C000B68E3
:10401000802B05D023685A1C2260E418257170BDDE
:104020000800FFF7CFFFF5E710B582B0D0231B06DD
:1040300000241C5701A9074802F06EFE002806D193
:10404000019B9C4203D0034802F096FE012002B07F
:1040500010BDC046081A002010B5024802F01CFE30
:1040600010BDC046081A0020F0B5C64600B584B0A1
:1040700001900D0017001C00FFF7D6FF80466B1C57
:1040800005D0002C08D0194E194B1C680DE0019882
:1040900002F01AFC0500F4E7164EF5E72A00019934
:1040A0002000B047002F0CD1E468002C11D0236809
:1040B000002BF9D0104B1B68002BEFD09C42F3D1A2
:1040C000ECE702ABD91D0A230B7001222000B04798
:1040D000EAE74346002B06D1681E8541E8B204B0EA
:1040E00004BC9046F0BDFFF7B7FFF5E7313F001085
:1040F000D41C0020413F0010D81C002010B5064BF6
:104100001C6800E0E468002C04D06368002BF9D040
:104110009847F7E710BDC046D41C002070B50500D5
:1041200002F0D2FB04000023012201002800FFF767
:104130009BFFFFF7E3FF200070BD000070B5A2B049
:1041400004000E00FFF770FF05008422002101A883
:10415000FFF7D6FE3300220001A90848FEF750FF02
:10416000040001A8FFF72EFFFFF7C8FF002D02D1C2
:10417000200022B070BDFFF76FFFF9E70940001083
:104180000FB400B583B004A901C90191FFF7D6FFB0
:1041900003B008BC04B0184770B504000B684A6847
:1041A000D21A921049D0186820600B684A68D21A57
:1041B0009210012A45D95B6863600B684A68D21A7D
:1041C0009210022A41D99B68A3604A680B68D21AF0
:1041D0009210032A3DD9DB68E360FCF773F90125EF
:1041E0002B0022689340D02636067362A068FCF745
:1041F00069F92B00A26893407362E068FCF762F9EA
:104200002B00E2689340736204216068FCF742F976
:104210006268510807230B4023612A4062619A00BB
:10422000D21893000D4A944663441A68954380223D
:10423000520113431D60200070BD0021084800F0AA
:10424000E3F80121064800F0DFF80221044800F0FD
:10425000DBF80321024800F0D7F8C0460000054013
:10426000547C0010012302689340D022120653614F
:1042700003699A00D2189300084A94466344084A96
:104280001A6103699A00D218930063441A680221E4
:10429000114080225201134319607047000005400D
:1042A000D4300000002925DD0123190082689140E7
:1042B000D02212069161C1688B4053614068430867
:1042C00007221340012101409A00D2189300114A9D
:1042D00094466344002918D010200F4A82400029D8
:1042E00015D10E49186842400A40802149010B430C
:1042F0001A6070470123190082689140D02212068B
:104300005161C1688B409361D8E70020E5E704491B
:10431000E8E7C0460C00054050C30000FFFF000066
:104320000000FFFF10B50123190082689140D022E0
:104330001206916119008468A140916140684208A9
:1043400007210A400340910089188A000B498C46D6
:104350006244002B0DD01020FF218140002B0AD198
:10436000074813684B400340802149010A4313600A
:1043700010BD0020F0E70348F3E7C0460C000540FD
:10438000FFFF00000000FFFF10B5042000F044FC18
:10439000024B034A0360034900F01EFF1480001023
:1043A0008D4F0010F07F001070B50500082000F060
:1043B00033FC2900040000F059F8054A05492000A3
:1043C00000F00AFF200000F03DFC00F0FBFDC046BD
:1043D000815A00106C80001070B50500082000F0B4
:1043E0001BFC2900040000F053F8054A0549200091
:1043F00000F0F2FE200000F025FC00F0E3FDC046D6
:10440000D55A0010788000100FB42023F0B583B087
:1044100000AFFC1840CC300002F056FA80239B001D
:10442000C1180F4B32009C466B466044C008C00068
:104430001B1A9D46230068467C6000F0F1F90820B5
:1044400000F0EAFB6946040000F02CF8054A064932
:10445000200000F0C1FE200000F0F4FB00F0B2FDEF
:104460000E020000095B00108480001010B5074B9D
:1044700082B0040001AA08C000F06AF9200002B06E
:1044800010BD200000F006FC00F09CFDD080001064
:1044900010B50400FFF7EAFF014B2000236010BDB8
:1044A000E480001010B50400FFF7E0FF014B20008E
:1044B000236010BDF880001010B5040082B001AB7D
:1044C00000F03AF9200002B010BDC0460048704725
:1044D000A87C001000487047A07C0010026041607A
:1044E0007047C04610B54C680023A04201D01800A8
:1044F00010BD0B689B1A59425941CBB2F7E7C04631
:104500007047C0467047C04610B50400FFF708FD6D
:10451000200010BD10B50400FFF702FD200010BD03
:1045200010B504000B6886B068461B699847019A6D
:1045300000992000FFF7C0FF009802AB984201D01D
:10454000FFF7EEFC200006B010BD009802AB9842C9
:1045500001D0FFF7E5FC00F035FDC04670B5050061
:1045600082B00E1E21D0541A01940F2C0BD82B6848
:104570001800012C15D0002C0DD10021019A6A6081
:10458000995402B070BD002201A9280001F0D6FAAA
:10459000019B2860AB6022003100FFF7B7FC2B685D
:1045A000EBE732781A702B68E7E7002A02D003485D
:1045B000FFF7FAFE01920368DFE7C046B07C001007
:1045C00070B50400100002F073F923000833051ED3
:1045D000236008D002F078F92A1829002000FFF79C
:1045E000BDFF200070BD01225242F6E730B50368DE
:1045F00014005D690B4A83B0030095420BD16268D9
:1046000000209A4201D003B030BD2068401A4342D6
:104610004341D8B2F7E70A0001006846A84700996D
:10462000019BECE7DD44001010B5064C0649220062
:10463000064800F09FFC22000549064800F09AFC5D
:1046400010BDC0461811002005450010B41100200F
:1046500001450010B0110020164B10B5040098421F
:1046600024D80D308C4217D94B009C4200D21C003C
:104670002300200080221D330D30520193420BD9BC
:10468000A14209D294461B051B0D6444E41A094B50
:104690009C4207D820000D30FFF73EFC0023446009
:1046A000836010BD1C0020000D30F5E70248FFF7C5
:1046B00093FEC046FCFFFF3FEC7D0010F8B50C1ADE
:1046C000060000212000FFF7C7FF070005000C3798
:1046D000012C06D0002C0FD10A4B9D4206D1380088
:1046E000F8BD33780373074B9D42F8D000232C604C
:1046F0002C19AB602373F2E7220031003800FFF77A
:1047000005FCE9E74C1C002010B5FFF709FC10BDC3
:1047100010B5884204D0002804D0FFF7CFFF10BDA9
:104720000348FCE70029F8D00248FFF73DFEC046E9
:10473000581C0020C07D001010B5040008001100B6
:104740001A0041180023FFF7E3FF2060200010BD8E
:1047500070B505000C00160000290BD0080002F00F
:10476000B3F82118320000232000FFF7D1FF2860A2
:10477000280070BD01214942F4E7C046F0B5C646A5
:1047800000B59CB000AF0D1A80466C220F49381D51
:10479000FFF7BCFB2B006A467A33DB08DB00D31A39
:1047A0009D466B22391D6846FFF7B0FB68466E4692
:1047B0006B302A004146FFF7A9FB00236C1C34191B
:1047C0006A3423706846FFF7EFFDC046047E001090
:1047D000F0B5C64600B5012384B004AF88B004AC80
:1047E000804620000293013301930C4B18301B6864
:1047F0000E000093002300F063F80500B0420AD8D1
:10480000211A020018314046FFF780FBBD46280000
:1048100004BC9046F0BD01256D42F7E7C0110020B1
:10482000F0B5C646013900B507001500461804006A
:1048300002E02270013501342A78002A22D0B442E5
:1048400039D2252AF5D16978732906D07A291ED064
:104850002539484241416D18EBE71A68181D137855
:10486000002B03D109E00C008E4220D001322370CE
:104870001378611C002BF6D10C0002352A78030056
:10488000002ADCD1E01B227004BC9046F0BDA97860
:104890007529CED11A1D9046311B1A682000FFF7EA
:1048A00097FF002807DD241803354346C4E731008D
:1048B0003800FFF763FF21003800FFF75FFFC046B5
:1048C000F0B5C64600B51D0008AB1B788046140045
:1048D000069F002B19D00600200029000A22002381
:1048E000FEF73CFCBA181379013E33702000290012
:1048F0000A220023FEF732FC0D0004000143EBD135
:104900004346981B04BC9046F0BD4A23079A1340C7
:10491000402B15D0079A042352040FD446460F2289
:10492000FF1823001340FB5C013E337024092B0762
:104930001C4323002D092B43F3D1E1E71033EDE7AE
:104940000600072223001340FB181B79013E337039
:10495000E4086B071C432300ED082B43F2D1CFE79B
:104960000122244B1968114200D11A600122224B06
:104970001968114200D11A600122204B19681142B6
:1049800000D11A6001221E4B1968114200D11A6031
:1049900001221C4B1968114200D11A6001221A4BE6
:1049A0001968114200D11A600122184B196811428E
:1049B00000D11A600122164B1968114200D11A6009
:1049C0000122144B1968114200D11A600122124BC6
:1049D0001968114200D11A600122104B1968114266
:1049E00000D11A6001220E4B1968114200D11A60E1
:1049F0007047C046901B0020941B0020201C002004
:104A0000281C0020081C0020F01B0020F81B0020A0
:104A1000A01B0020181C0020101C0020001C0020DF
:104A2000E81B002010B50400034B0833036000F0BE
:104A300099F9200010BDC046A47E001010B50400F6
:104A4000054B0833036000F08DF920000C21FFF7BF
:104A50006BFA200010BDC046A47E0010F0B583B0F4
:104A60001D00089B06000F00140093420AD0B06896
:104A7000089A036800921E6A22002B003900B04792
:104A800003B0F0BD290000F073FB0028EFD0062032
:104A9000F6E7C046F0B5C64600B50D0084B0190073
:104AA00007001600984600F063FB041E0FD00D9B14
:104AB0000A9A1E711A60002D22DB94460C9B6544F5
:104AC000AB422DD001230D9A0024937113E00A9B71
:104AD0000C9A93421BD0B8680D9A036803920C9A03
:104AE000290002920B9A01920A9A0092DC69320024
:104AF0004346A0470400200004B004BC9046F0BD2B
:104B00000024AB1CF7D101230D9A9371F3E70B99A5
:104B1000380000F02DFB0028DDD00D9B5E71EAE728
:104B20000623D0E7F8B507000C0015001E0000F0C2
:104B300035F9002806D1B8682A00036821009F696A
:104B40003300B847F8BDC04670B51A4C08386168E4
:104B50000668002918D08519A94218D04A68002A89
:104B600020D0954204D321E011009D4204D21A00C6
:104B700053680C1D002BF7D111685518A8420ED0B0
:104B800043602368586070BD41606060FBE70B685C
:104B90009C464B686644066043606060F3E77618A5
:104BA0001660F0E700230A000434E5E7130004343C
:104BB0000A00E1E73C1C00200100083110B508297B
:104BC00000D208210723134C073199436368002B57
:104BD0000AD01A68914204D819E00268914205D9B6
:104BE000030058680028F8D1002010BD0433521A81
:104BF000072A08D94418406822606060186801607C
:104C00001C600830F1E7426808301A60EDE71800D0
:104C1000231DECE73C1C002070B580300500FFF739
:104C200051F9041E07D0802200212000FFF768F907
:104C30002000803070BD2800FFF7BEFF041EF2D1B7
:104C400000F04CF8074A8038936810B5984203D9B1
:104C5000D2689B18984202D3FFF746F910BDFFF7C0
:104C600073FFFBE73C1C002070B59E25084C2D010E
:104C70002800E560FFF726F9A060002804D0002393
:104C800060600560436070BDE0606060FBE7C04647
:104C90003C1C00207047C0467047C0460048704723
:104CA000D07E001010B504000421FFF73DF920006C
:104CB00010BDC04670B5804701F044F800F0FAFA24
:104CC00001F040F80D00040000F030FB6B1C01D037
:104CD00000F078F9200000F0D1F8C046024B10B582
:104CE0001868FFF7E7FFC046BC11002010B58047E9
:104CF000FFF7F4FF024B10B51868FFF7F7FFC04647
:104D0000B8110020014B18687047C046BC11002044
:104D1000014B18687047C046B811002030B585B007
:104D2000002314006A461371102200930393036852
:104D300002929D6922686B46A8476B461A79062342
:104D400000201340062B02D1009B0130236005B0E8
:104D500030BDC046009B934201D001207047062021
:104D6000FCE7C04610B50400034B0833036000F0B5
:104D7000FBF9200010BDC046B47F001010B5040040
:104D8000054B0833036000F0EFF920000821FFF71E
:104D9000CBF8200010BDC046B47F001070B51500E0
:104DA0001C0000F0E5F9002804D00823E360023B72
:104DB0002560237170BDC046F8B505000C001700D2
:104DC0001E0000F0D5F9002801D1032E00D9F8BD4E
:104DD00023683A005B69290020009847F7E7C0463E
:104DE00070B516001D00069A049B040093420ED075
:104DF0002900200000F0BCF9002806D0079B049A87
:104E00001E711A600123079A9371002070BD0599E5
:104E100000F0AEF90028EBD0079B5E71F5E7C046C5
:104E2000027803000020472A00D070475A784E2AA3
:104E3000FBD19A78552AF8D1DA78432AF5D11A7934
:104E4000432AF2D15A792B2AEFD19A792B2AECD125
:104E5000DB792A3A9A424041C0B2E6E710B5041E17
:104E600006D000F027FA2000FFF7DAFF002801D172
:104E7000FFF734FF203CE068FFF71CFFF0B5574612
:104E8000DE464E464546E0B585B00700FFF7C8FF51
:104E900000280ED03B00203B9C68DD683B6B38004F
:104EA00098467B6BBE6A994600F004FA2000FFF733
:104EB0001DFF380000F0FEF9FFF71CFF00F0FAF9C3
:104EC000FFF70CFF00F0F6F900F06AF927230768F6
:104ED000FB5C012B42D03B007833029343469B0896
:104EE0009B00019300234C469A46994620339846EE
:104EF000B844B24526DA2768002F00D03F1902AB2C
:104F000000223900404600F063F8002812D13B68C7
:104F100003901B6903AA9B46134901233800D84715
:104F2000002800D0814601239C46019BE2449C4618
:104F30006444DEE700F086F900F0F8F900F0F6F9D5
:104F400000F040F84B46002B0AD00420FFF764FE27
:104F5000064B074A0360044900F03EF93B68BCE792
:104F60002800FFF7A7FEC046F47E0010787F0010EF
:104F7000994C00100B0010B50100180000F0EAFE7B
:104F800010BDC04600487047E07F001010B5040017
:104F9000034B08330360FFF77DFE200010BDC046C1
:104FA0000C80001010B50400054B08330360FFF7B8
:104FB00071FE20000421FEF7B7FF200010BDC0469F
:104FC0000C8000101EB400F097F81EBC01F09CFE8F
:104FD000F0B5C64600B59846037882B00D00472B61
:104FE00020D000232A4C0193236820009B68984717
:104FF0000126002803D0019B01361B6801932B6812
:1050000001AA1F69210001232800B847002807D002
:105010004346019A1A60300002B004BC9046F0BDCD
:105020000026F8E743784E2BDBD18378552BD8D177
:10503000C378432B1CD0C378432BD2D10379432BA5
:10504000CFD143792B2BCCD183792B2BC9D1C379E9
:10505000012BC6D805D003005830203B1C680190B6
:10506000C2E7203800680300783B1C680190BBE76A
:105070000379462BDFD143794F2BDCD18379522B37
:10508000D9D1C379002BD6D10193024CACE7C046ED
:10509000EC7E0010E47E001010B5040000F084F8EF
:1050A00023002278203B472A05D08268002A20D19D
:1050B0008360012010BD62784E2AF6D1A278552A6D
:1050C000F3D1E278432AF0D12279432AEDD16279F3
:1050D0002B2AEAD1A2792B2AE7D1E279012AE4D856
:1050E000DA690132DA61012AE3D182689A61836068
:1050F000DFE7FFF7F3FDC04610B500F055F8836811
:10510000002B2ED020229A5C472A04D000228260F5
:105110002033180010BD263A9A5C4E2AF6D12C3A5C
:105120009A5C552AF2D1323A9A5C432AEED11F3A60
:105130009A5C432AEAD11E3A9A5C2B2AE6D1053AB8
:105140009A5C2B2AE2D1043A9A5C012ADED8DA6909
:10515000013ADA61002ADBD19A69826000229A6101
:10516000D6E7FFF7BBFDC0467047C046002070473A
:1051700010B5814211D0406803782A2B0BD04968C2
:105180000B782A3B5A425341C91801F0F1F94342C6
:105190005841C0B210BD0020FCE70120FAE7C0462C
:1051A00000487047301C002000487047301C002029
:1051B00010B501280CD80B00283BDB6858310C00D7
:1051C000002B01D0080098472000FFF73BFD10BDE1
:1051D00028394869FFF76EFDF8B504000F00160086
:1051E000FFF7E2FF43682500013343600123803D60
:1051F0002B60EE60AF60FFF78BFD26002861FFF7A4
:1052000081FD4723583E6861337023004E22573B8F
:105210001A7007325A7022004323553A13705370A4
:10522000183B9370D3700023513C2370044B300023
:105230002B6301F099FD300000F03CF8FFF74EFDC4
:10524000B151001010B5FFF7AFFF436804685A1C56
:105250004260002C0CD02022A25C472A0AD00022F7
:1052600002602034200001F077FD200000F022F8D9
:10527000FFF734FD263AA25C4E2AF0D12C3AA25C0C
:10528000552AECD1323AA25C432AE8D11F3AA25CFB
:10529000432AE4D11E3AA25C2B2AE0D1053AA25C53
:1052A0002B2ADCD1043AA25C012AD8D863695A427D
:1052B0006261D6E770B50400FFF776FF230021781E
:1052C0000268203B472905D0002A2CD10025036025
:1052D000280070BD61784E29F6D1A1785529F3D107
:1052E000E1784329F0D121794329EDD161792B2946
:1052F000EAD1A1792B29E7D1E1790129E4D85969CB
:1053000000290DDB013159614168013941609A4240
:1053100001D01A6103602000656A01F005FDD7E73E
:105320000125691AEFE7FFF7D9FCC04610B5FFF772
:1053300037FF0368002B09D020229A5C472A06D049
:10534000002220330260180001F0C6FC10BD263A8E
:105350009A5C4E2AF4D12C3A9A5C552AF0D1323A12
:105360009A5C432AECD11F3A9A5C432AE8D11E3A50
:105370009A5C2B2AE4D1053A9A5C2B2AE0D1043AB4
:105380009A5C012ADCD85A69002A08DB013A002A13
:105390000CD0511C01D05A61D8E7FFF79FFC0132B5
:1053A000002AF8D1196901605A61CFE71A692033E0
:1053B0000260180001F090FCC8E7C046F0B55746FF
:1053C000DE464E464546E0B58A4683B0502800D1B9
:1053D0007EE00F2404400C2C00D975E0404DA40061
:1053E0002C59A746557814782D0225439478240427
:1053F0002543D47824062C43151D002C08D0702694
:105400000640102E6AD040B25444002800DA2468C6
:1054100028001C6003B03CBC90469946A246AB46AF
:10542000F0BD557814782D02254394782404254343
:10543000D47824062C4315000835DEE75478157817
:1054400024022C4324042414951CD6E700218B4607
:105450007F311600002789463178751C4E460E4074
:10546000BE408C46594631436C468B466146E171DD
:10547000E179073749B22E000029EDDB1F2F25D82F
:105480006146490622D50126BE405C467642344339
:10549000B5E700218C467F311700002488463E780E
:1054A0007D1C4746614637408F400721894676B2CA
:1054B0003C43CC442F00002EF1DB9EE75478157856
:1054C00024022C43951C98E700F03CFC5C4694E7D2
:1054D000032103328A43150010CD99E7924692E7E3
:1054E0003880001010B5FF280ED070230340202B09
:1054F00016D00BD9402B0FD0502B05D0302B09D113
:10550000080001F0F1FB00E0002010BD002BFBD0F3
:10551000102BF9D000F016FC080001F00DFCF4E7A8
:10552000080001F0B1FBF0E7F8B506000F00140029
:10553000002845D001F000FC20607D1C3F78FF2F43
:1055400034D031003800FFF7CDFF2A000100231DC1
:105550003800FFF733FF05002B786A1C2375FF2BFB
:105560002AD01023002000217F2623751378551C94
:1055700032001A408A405BB2104307312A00002BE8
:10558000F4DB2A18E2602B78681C002100257F26B6
:1055900063753200037801301A408A405BB21543CC
:1055A0000731002BF5DB45192561F8BD60602B78CC
:1055B0006A1C2375FF2BD4D100231500E360E2E7BA
:1055C0000020B9E7F0B557464E46DE464546002373
:1055D000E0B597B00A9303338A4691460340012B06
:1055E00000D19EE0002B16D0022B12D14946504626
:1055F00001F06AFB0925002800D10825280017B012
:105600003CBC90469946A246AB46F0BD002B00D16B
:10561000FAE100F097FB012304930307E6D4534615
:105620000B930BAB00930C2200230021484601F0A2
:1056300043FB484601F0A8FB06900028D6D010ADE9
:105640002A0006994846FFF76FFF49460400287D67
:10565000FFF748FF0FABA8600F2200930021002343
:10566000484601F071FB01230F9F9F432B69013FC7
:10567000A34274D90DAB03930EAB9B467F266B7D83
:10568000002118009846FFF72DFF22000100039B20
:105690004046FFF793FE6C7D804600212000FFF717
:1056A00021FF424601005B462000FFF787FE6C7D2C
:1056B000804600212000FFF715FF424601000FAB96
:1056C0002000FFF77BFE0021020000201378541C0D
:1056D00032001A408A405BB2104307312200002B8F
:1056E000F4DB0D992B688C4663449F422FD2049BB8
:1056F000DB0747D50023002605935B460D22009368
:105700000021002348460A9C01F01EFB53460E9AD6
:105710005C621A62069A9E62DA62059A06251A632C
:105720006CE70823184003D002231843049076E75F
:1057300010AD0C6A002300950D220021484601F0AF
:1057400003FB109B9C4223D00223049367E70E992E
:105750008C4663449F4266D32B69A3428FD80023B3
:10576000002601240593049BDB0700D565E108238F
:10577000049A134200D073E10699012C1BD15046C4
:10578000FFF76CFB0823049A1342F8D0FFF7A6FA40
:1057900053460B930BAB00930C2200230021484689
:1057A00001F08AFA53461B6B0593002BE7D0534652
:1057B00003249E6AD96A002E00DAE8E00DAB039359
:1057C0000EAB9B4653460C930CAB00930022002378
:1057D0000021484601F070FA039B0122009300214A
:1057E000002348460D9601F067FA5B460F220093AE
:1057F00000210023484601F0A7FA01230E9A002158
:105800001340059A484613430E935B460F220093BC
:10581000002301F051FA0725022C00D0EEE6504695
:10582000FFF73AFCEAE60F9B0593002B00D083E0DC
:10583000002800D1DAE62B69441E9C46059B64448F
:10584000002B00D1D2E6002C00D180E00823049A7E
:105850001A40099200D1DFE052463F3313700733FC
:10586000537007339370123BD370033313710933B2
:105870005371033393710023D371002308937F3353
:1058800098464B46A94607930026002243462178B6
:10589000671C0B4093401E434BB207323C00002B69
:1058A000F4DB1F2A06D840230B4203D03F3B934032
:1058B0005B421E4339000024002243460878013130
:1058C000034093401C4343B20732002BF5DB1F2AF1
:1058D00006D84023034203D03F3B93405B421C4326
:1058E000002E3FD041DD4B46187DFF2800D191E0CE
:1058F00007230340022B00D189E000D886E6032B62
:1059000000D181E0042B00D083E6F20052424B46E6
:10591000DB6849469C46896862445B46FFF74EFD5A
:105920000E9900292ED05346002B00D08EE0002C7B
:1059300000D185E03C19A7E76A6894466344059363
:10594000002800D077E7059B002B00D14EE6049B92
:10595000DB0700D54AE60826049B1E4000D087E0FE
:1059600002242FE701230893E1E75346002B02D0DE
:10597000099B002B2BD0731C9B00139A5B429B58F6
:10598000002BD4D1079B4D4603249946EBE62A0011
:105990004846FFF7C9FD287D4946FFF7A3FD731C64
:1059A000A860ED689B00ED1A2B68002B56D00022F2
:1059B0002B1D0433191F096801320029F9D1534600
:1059C0009A62D8625246042355631363F6E60A9B33
:1059D000751C0F93139BAD005D1B29680029D1D066
:1059E0005346A2461C0003E00435296800291ED056
:1059F00069180FAB00222000FFF7EAFA0028F3D065
:105A0000230054469A4692E7B20052427FE7720062
:105A100052427CE700227AE75346DA795833012A6A
:105A200001D00A9329E7783B1B680A9325E7079B77
:105A3000A2464D460324994695E60EAB9B465CE68E
:105A4000079B9946089B002B81D1CFE50AAB00222A
:105A50005046FFF7BDFA002894D168E70022AEE770
:105A6000012C00D192E6002E00DBA7E6FFF742F9F9
:105A700000260224A6E6FFF71DFC87E64068704773
:105A80000D4B10B5083303604368040018000B4A3F
:105A90000C3882B0904205D12000FFF7FBF82000BF
:105AA00002B010BD043B1A68511E1960002AF3DCD5
:105AB00001A9FEF729FEEFE7C88000104C1C00206A
:105AC00010B50400FFF7DCFF2000FEF729FA2000E4
:105AD00010BDC04610B50400034B08330360FFF748
