:020000041000EA
:1000000000B5324B212058609868022188439860DF
:10001000D860186158612E4B002199600221596106
:100020000121F02299502B49196001219960352056
:1000300000F044F80222904214D00621196600F024
:1000400034F8196E01211966002018661A6600F04E
:100050002CF8196E196E196E052000F02FF8012189
:100060000842F9D1002199601B49196000215960AB
:100070001A491B48016001219960EB211966A021F2
:10008000196600F012F800219960164914480160C1
:100090000121996001BC002800D000471248134993
:1000A000086003C880F30888084703B5996A0420EC
:1000B0000142FBD001200142F8D103BD02B5186610
:1000C0001866FFF7F2FF186E186E02BD00000240BE
:1000D000000000180000070000035F00212200005C
:1000E000F4000018222000A00001001008ED00E03C
:1000F00000000000000000000000000074B24E7A12
:1001000000200420F7010010C3010010C5010010F9
:10011000C1010010C1010010C1010010C101001097
:10012000C1010010C1010010C1010010C701001081
:10013000C1010010C1010010C9010010CB01001065
:10014000CD010010CD010010CD010010CD01001037
:10015000CD010010CD010010CD010010CD01001027
:10016000CD010010CD010010CD010010CD01001017
:10017000CD010010CD010010CD010010CD01001007
:10018000CD010010CD010010CD010010CD010010F7
:10019000CD010010CD010010CD010010CD010010E7
:1001A000CD010010CD010010CD010010CD010010D7
:1001B000CD010010CD010010CD010010CD010010C7
:1001C00000BE00BE00BE00BE00BE00BE00F04BF888
:1001D000103800BEF2EB88719C490010B84900103D
:1001E0003402001090A31AE700202149086006C8D5
:1001F00081F3088810471F48006800282FD10DA4FC
:100200000ECC002902D000F012F8F9E71A491B4A77
:10021000002000E001C19142FCD1194988471949E9
:1002200088471949884700BEFDE701C901C29A42C3
:10023000FBD37047B8490010C0000020E819002027
:10024000E06200100000042000000420E0620010C2
:1002500000100420001004200000000070470B482C
:1002600001F0D4FB0047EFF30580C0B270470000F7
:1002700008ED00E0000000D0E81900201C1E00205E
:10028000A11100105D030010C912001057560000A4
:1002900006005250ABB360537C420010060052502F
:1002A000861C03028C420010060052505422A29D6C
:1002B0009442001005005250DE65F468E0620010C0
:1002C000F8B5C0460448054B10B5834203D0044B33
:1002D000002B00D0984710BDE8190020E819002035
:1002E0000000000006480749091A8B10C90FC918F9
:1002F00010B5491003D0044B002B00D0984710BD17
:10030000E8190020E81900200000000010B5074C93
:100310002378002B09D1FFF7D5FF054B002B02D026
:10032000044800E000BF0123237010BDE81A00203C
:100330000000000000420010054B10B5002B03D058
:100340000449054800E000BFFFF7CCFF10BDC046E0
:1003500000000000EC1A00200042001070B51920C7
:100360008AB000F077F8D023802204AC1B069204F8
:100370005A622200284B23CB23C21B681020136033
:1003800001F09AFC21001022050001F08FFC0022F0
:1003900000230092019300231020029301F08CFCB3
:1003A00006001022290010360090029601F07EFC13
:1003B00069462000019601F0CDFD0098002801D08B
:1003C00001F07EFC2000D026802501F01FFE3606BD
:1003D000AD041249200001F035FEFA20756180005D
:1003E00000F052FB200001F065FEFA20B5614000EC
:1003F00000F04AFB0A49200001F024FEFA20756152
:10040000800000F041FB200001F054FEFA20B561AD
:10041000400000F039FBDCE7004200106A180000E1
:1004200096E7FFFF094A830094464022634410B5D3
:100430001C68C0006240C024144080225201134353
:100440001C60034B9C466044416010BD04C00140E9
:10045000004001400123D022834012069362936141
:10046000094A83009446402263441968C0004A4008
:10047000C02111408022520113431960034B9C4656
:10048000052360444360704704C0014000400140C0
:10049000F8B5EFF3108772B60E4E3368002BFCD020
:1004A000BFF35F8FCB08C4180725A446C45C0123A3
:1004B0000D40AB4018002040234208D16246234340
:1004C0001370BFF35F8F306087F31088F8BD1000A2
:1004D00000F0FCFE2C0100D0024B18688007C00F12
:1004E0007047C04600C006400021044B044ABFF3D9
:1004F0005F8F02C39342FAD17047C046000100D01B
:10050000800100D0044A1078431CDBB2172B00D9BD
:10051000102313707047C046E010002083680B481A
:1005200010B5844661446244090112019A185918B1
:1005300054684B6801209C4201D802D00020C0B210
:1005400010BD12680B689A42F9D8F7E7FFFFFF0F5A
:100550000A4B1968EFF3108072B60A68002AFCD0C3
:10056000BFF35F8F1B68BFF35F8F00221A6080F3B9
:10057000108840BF002000217047C046001C0020AA
:10058000F8B557464E464546DE46E0B5434D8146F2
:100590008A466A68EFF3108872B61368002BFCD0A5
:1005A000BFF35F8F2E68B47B002C3ED067003368AA
:1005B0003F19033FDA195378B373002B00D1F3735B
:1005C0000023937053701370A968354A8C464946CE
:1005D000A218120162441160514651603149D36042
:1005E00091603268D219937053701370737B9B467D
:1005F000002B35D022001900B06873689847326824
:10060000002820D05B4658465B005B44D719033B6B
:10061000B870D118D35C002B00D07B705B460C7097
:1006200073735C451DD0002626E06B68BFF35F8FB7
:100630001C6088F31088012040423CBC90469946DB
:10064000A246AB46F8BD5B465B005B44033BD31858
:100650009C70D119D25D002A00D05A705B460B7095
:1006600074734A465346287D00F0F2FA061EDAD02B
:100670002100286800F056FDEB686A681B19013BF1
:100680001B78BFF35F8F0021116088F31088002072
:10069000002ED2D118022043CFE7C046E41000203C
:1006A000FFFFFF0F51050010F8B5574645464E466F
:1006B000DE46E0B599460CAB19780DAB1B7805000A
:1006C00090469A460768002912D1BE7B002E45D07D
:1006D00074003B68A419033C1B195A783100BA73A3
:1006E000002A00D1FA7300229A705A701A7003E03F
:1006F0000E004C006418033C2C4B00229C46AB6857
:1007000061449C464346090161440B604B464B6083
:100710000A9B8B600B9BCB603B681B199A705A70CD
:100720001A707B7B9B46002B2CD032005946B86850
:100730007B6898473A68002817D05B4658465B00AC
:100740005B441419033BA070D118D35C002B00D07C
:1007500063705B460E707B73B34514D030003CBCB5
:1007600090469946A246AB46F8BD5B465B005B44AB
:10077000033BD3189E701119125D002A00D05A70E5
:100780005B460B707E7342464B46287D00F060FA54
:10079000041E06D05346002B03D13100286800F018
:1007A000C1FC0E9B002BD9D01C70D7E7FFFFFF0FB9
:1007B000F0B5DE464E46574645460023E0B58DB0BF
:1007C0000A936B4B8200D3580B90994600239B46AB
:1007D0004B46079300F0DCF9079C06000F006268A7
:1007E000EFF3108572B61368002BFCD0220007943B
:1007F000BFF35F8F2468637B9946002B67D09268B4
:100800005C4B90464B441B01984443461A685B6816
:1008100010001900801BB94100295FDD0B9800F022
:1008200017FA00230026984600279A46079C63681B
:10083000BFF35F8F5A461A6085F310885346002B2A
:1008400008D10028C6D10DB03CBC90469946A246BE
:10085000AB46F0BD0A9B414618024B461843D047B1
:10086000089009916268EFF3108572B61368002B47
:10087000FCD00794BFF35F8F0899099A002A48DBE0
:10088000114303D0079B1B69002B5DD1079B1B689D
:10089000DA7B002A07D051008A1819688C4649462D
:1008A0006244033A51704A46DA734B46079A013B59
:1008B000D168CA5C0132CA545B46079A1361536817
:1008C000BFF35F8F5A461A6085F3108882E70023D2
:1008D0000026984600279A460020A7E7002901D164
:1008E00000289BD10021200000F07EFB43461E68BB
:1008F0005F689B68079A9A464346DB689846D368C8
:100900004B44013B1B780A931B02034313610020F5
:100910008CE72369002BB9D033003C005B1A94416B
:100920001A002300A74219D89F421BD059460491B0
:100930000121039149460291414601915146079890
:100940000091FFF7B1FEB7E700F022F9089A099B82
:1009500006000F0092197B419942E5D901225242CB
:10096000D317E3E79642E1D901225242D317DDE7DC
:10097000EC1B0020FFFFFF0F10B5124C6368002B2B
:1009800004D00A21104800F0F5F910BD23000F4AE9
:100990001021206800F046FA032000F0EDF8032053
:1009A00000F0C8F903200A4900F00CF9FFF7AAFD8E
:1009B000084B9C46032360442375074B800060600E
:1009C000DC60DEE7E4100020001C00201D050010A4
:1009D000B107001040000034EC1B0020F0B504000B
:1009E0000D0006267642F717C64636196F4100B548
:1009F0008F4213D810D000F0CBF832003B00121A0F
:100A00008B41002B14DC002B37D02900200000F094
:100A1000C9F804BC9046F0BD8642ECD900260027F8
:100A200000F0B6F832003B00121A8B41002BEADDD1
:100A300030003900FFF7A4FD0028E6DB00239846CC
:100A4000BC460F4A0F4F7B6A9C4504D8B96A8E4258
:100A5000DBD99C45D9D11168EFF3108072B60B68D1
:100A6000002BFCD0BFF35F8F1368BFF35F8F41464D
:100A7000196080F3108820BFE5E7002AC5D0D7E7CA
:100A8000001C00200040054070B5060000F080F812
:100A9000FA2204000D00002330000021920001F032
:100AA0007FF8001969418D4205D802D0FFF796FF03
:100AB00070BD8442FAD901204042C117F6E7C04612
:100AC000F0B5D6464F464646C0B5EFF305833F2204
:100AD000134018001038EFF3108C72B6204D2A68BE
:100AE000002AFCD0BFF35F8F0122110081401D4C12
:100AF000884661631C4917000E788A463100C14060
:100B00000F400A4215D019498200646A51588C423C
:100B100019D3174BD25843469E4353461E70BFF31A
:100B20005F8F00232B608CF31088002A06D090473B
:100B300004E0BFF35F8F2F608CF310881CBC9046DD
:100B40009946A246F0BD0B4A9B00904643441A6862
:100B50001A60BFF35F8F00232B608CF31088EDE7E2
:100B6000280100D000400540161C0020041C002075
:100B7000641B0020D03F054010B50100024A034825
:100B8000FFF786FC10BDC04610420010141C002068
:100B9000034B596A0A00986A596A8A42FAD1704727
:100BA00000400540064A536A9942FCD807D1044BDD
:100BB00002E05A6A914202D19A6A8242F9D370479E
:100BC0000040054070B504000D00EFF3108672B6CA
:100BD0001A4A1368002BFCD0BFF35F8F002D1BD087
:100BE000200000F001FD164981420AD0200000F0EB
:100BF00003FD0121200000F0E5FC0123A340114A80
:100C00001360114BA400E550BFF35F8F00220B4B24
:100C10001A6086F3108870BD0B4BA200D5500122DC
:100C2000A2400A4920000B7893430B70044900F05E
:100C30000DFD0021200000F0C5FCE5E7280100D0F3
:100C4000C10A001038600540641B0020161C0020FB
:100C5000F0B54F46D6464646C0B50700304C616AEF
:100C60000D00A66A616AA942FAD18B4208D805D064
:100C700001201CBC90469946A246F0BDB242F7D96D
:100C8000EFF3108972B6274801680029FCD0BFF342
:100C90005F8F01252449BD408C460978204C0E0009
:100CA0002E438846F1B28A46614650460870391D87
:100CB0001E48890065630A51B9000B50216A002063
:100CC000294219D0616A0800A66A616A8142FAD194
:100CD0008B4219D801D1B24216D8C2451DD0104B53
:100CE0001F201D625D6301230740BB40104A1E3870
:100CF0001360634642461A70BFF35F8F0022094BB0
:100D00001A6089F31088B4E70020BFF35F8F0022D8
:100D1000044B1A6089F31088ABE70120ECE7C0466A
:100D200000400540280100D0161C0020041C0020B3
:100D300080E200E010B5EFF3108472B60A490B6848
:100D4000002BFCD0BFF35F8F01238340074A084884
:100D5000136202789A430270BFF35F8F00230B6027
:100D600084F3108810BDC046280100D00040054023
:100D7000161C0020024B9C466144890001607047AC
:100D80004000003410B50400FFF7BCFB0100200058
:100D9000FFF7F0FFFF232371BFF35F8F10BDC04645
:100DA00010B50400FFF7AEFB01002000FFF7E2FFE3
:100DB000FF23A380BFF35F8F10BDC04670B5050051
:100DC0000E001400002924D0002A24D080686B680B
:100DD0009847296800280ED063001B197200033B56
:100DE0009219CB18033A9E7088188A5C002A14D195
:100DF000047030000EE073009B196200033B12196F
:100E0000CB18033A9C7088188A5C002A00D05A706C
:100E10000670200070BD0800FCE75A7004703000B6
:100E2000F8E7C04630B583600023CCB2437301338A
:100E3000047342608373C4730D000068012C06D9EB
:100E4000421C0133DBB2137003329C42F9D1FF2103
:100E500029404B005918002340180338437030BD17
:100E6000F8B5CE46474606000C0080B5002907D0ED
:100E70004D0003686D18033D5A195778002F04D1AF
:100E800020000CBC90469946F8BD7900C919033979
:100E900088464344597889460021597051707368D7
:100EA0003A002100806898473368002814D04246F1
:100EB0009A18947059195B5D002B00D053700F7015
:100EC000270049463000FFF7CBFF39000200300011
:100ED000FFF774FF0400D3E7424641465D19AF7047
:100EE0009A185B5C002B00D06B701470E9E7C04669
:100EF000F0B557464546DE464E46E0B50D006B0060
:100F000001685B19DF1E0400C85D83B00192CA1935
:100F100000284CD043001B18033BCB185E78B44626
:100F2000002E16D1019E002E3ED0E67B002E04D06E
:100F300073009B19CB18033B5D70E57300282FD11C
:100F40000023537003B03CBC90469946A246AB4682
:100F5000F0BD72006244033A89184A789046002234
:100F60004A7091465A70010032002000FFF726FFB8
:100F700043468246002B07D05B0021684344033B75
:100F8000CB185A78002A16D1424651462000FFF766
:100F900015FF2168019BCA19002BC6D10028CFD0AC
:100FA00043001B18033BCB1800219970C8E7019B35
:100FB000002BBAD1C4E750008018033809184878CC
:100FC000834648464870587041462000FFF7F6FEB9
:100FD000594680462000FFF743FF414602002000AB
:100FE000FFF7ECFE8046CFE7F0B54E464546DE46BD
:100FF0005746E0B5467B040075000068AD19033D17
:1010000083B00191415D421900294ED04B005B181D
:10101000033BC3185F78BC46002F18D1019D002DFB
:1010200040D0E57B002D04D06B005B19C318033B57
:101030005E70E673002931D1002330005370617374
:1010400003B03CBC90469946A246AB46F0BD7A0040
:101050006244033A801842789346002242709146D7
:101060005A7020003A00FFF7A9FE5B468046002B2D
:1010700007D05B0021685B44033BCB185A78002AF9
:1010800017D15A4641462000FFF798FE019B010008
:1010900020684219002BC4D10029CDD04B005B1829
:1010A000033BC31800209870C6E7019B002BB8D102
:1010B000C2E750008018033809184878824648462D
:1010C0004870587059462000FFF778FE5346834613
:1010D000002B07D05B0021685344033BCB185A78A0
:1010E000002A06D1594652462000FFF767FE834684
:1010F000C7E7500080180338091848464F784870F1
:10110000587051462000FFF759FE390081462000F3
:10111000FFF7A6FE494602002000FFF74FFE824679
:10112000E0E7C04670B5040000292CD0437B8B4219
:101130002ED0056848004018033828188278002A05
:1011400021D053009B18033BEA5CEE188A4202D17F
:101150001BE0002A08D053009B18033BEB185A7879
:101160008A42F6D142785A7000230122837043707C
:101170002000FFF7BDFE617B02002000FFF71EFE8E
:101180006073012000E0002070BD43783370EBE70E
:1011900001221900FFF7ACFE60730120F4E7C0469E
:1011A0002C4B2D4A70B51A602C4A2D4B2D491A60D4
:1011B00010008B689843FBD12B4C2C4B9C4209D2DE
:1011C000013B1D1BAD080135AD002D1908CC98471A
:1011D000AC42FBD100F098F8254A214B1A60214A15
:1011E0009368DB018033FBD14022224B224C234DFC
:1011F0009A675A671A67DA66AC4208D223682000F9
:10120000002B21D00834FFF7CBFDAC42F6D31C4CA9
:101210001C4DA168C022280000F048FDA560FFF722
:1012200063F900F04BFBFFF7A7FB174C174B9C42F1
:1012300009D2013B1D1BAD080135AD002D1908CCAD
:101240009847A542FBD170BD0834FFF79BFDAC4227
:10125000D4D3DCE700E00040BFCDFBFEFE7F3C00C6
:1012600000F0004000C00040D0190020E01900202C
:10127000FFFFFF0100F00140C8190020D019002035
:1012800000ED00E000000020E0190020E819002037
:1012900000BEFDE7094A03001068002805D0084990
:1012A000C3188B4207D81360704706480449C31817
:1012B00010608B42F7D901204042F5E7E41B002083
:1012C000000004201C1E002000BEFDE70FB400B586
:1012D000084883B000F020FE049B002B07D005A92E
:1012E0001800019100F072FB034800F015FE00BEEB
:1012F000FDE7C046344200104442001010B50148DA
:10130000FFF7E4FF4842001030B50C2083B000F036
:1013100039FBFFF7E1F800280ED0944B944A1A608D
:101320005A609A60DA601A615A619A61DA611A62E7
:10133000904A5A6203B030BD8F4CA06700F02AFB80
:1013400001228E4B1A60636C012BFCD103228C4B63
:101350001A60894A936B012BFCD102240121894A2E
:1013600089480533009400F0BBFA0523874A012120
:101370008748009400F0B4FA864B5A68FF2A02D8D6
:10138000802252005A608022784C7D4B21691201E4
:10139000804D1A60002905D0606900F065FB0130BE
:1013A0000138FDD1E0217B4B02201A6811408022D8
:1013B00052012A431160196848400321014011601D
:1013C00004219A681142FCD08022802192012A4394
:1013D00009011160802252005A606F4B23616F4BEC
:1013E0005968FF2900D85A6003226C48634B0121D9
:1013F0001A60020093681942FCD0E02513681D4072
:1014000080235B0103431D6012684A4003211140A1
:1014100019600221614A93681942FCD0802380211F
:101420009B0103430901196080215D4B4900516014
:1014300063615C4B5A68FF2A00D8596080225A4B7E
:10144000E1691201574D1A60002905D0606900F06A
:101450000BFB01300138FDD1E02252490B681A40E4
:1014600080235B012B431A60802380229B012B4346
:1014700012011A6080223E4B52004A60E3614B4BDE
:101480005968FF2900D85A608022494B216A12010D
:10149000464D1A60002905D0606900F0E5FA013078
:1014A0000138FDD1E02241490B681A4080235B01DD
:1014B0002B431A60802380229B012B4312011A6068
:1014C000802380225B004B60294BD2022362394B80
:1014D0005968914200D25A608022374B616A1201EA
:1014E000344D1A60002905D0606900F0BDFA013062
:1014F0000138FDD1E0222F490B681A4080235B019F
:101500002B431A60802380229B012B4312011A6017
:101510008023DB024B60174B6362284B5A68FF2A1B
:1015200002D8802252005A608022254BA169120104
:10153000224D1A60002905D0606900F095FA01304B
:101540000138FDD1E0221D490B681A4080235B0160
:101550002B431A60802380229B012B4312011A60C7
:1015600080235B004B600E4BA361E3E6741B0020FD
:10157000006CDC021BB70000008000403CB0004063
:1015800030B00040002F68590080024000389C1C99
:1015900000C0024030800040001BB7003C8000408B
:1015A000405973075480004054B0004060800040B0
:1015B00060B000406C8000406CB00040488000404B
:1015C00048B0004001238340002904D0034A13603F
:1015D000034A13607047034A1360FBE780E200E0B0
:1015E00000E100E080E100E0024B10309B688000E9
:1015F000C058704700ED00E070B50D00EFF31086A5
:1016000072B60F4A1368002BFCD0BFF35F8F0D4BEF
:1016100010309B6884001B590B4A934203D09D42B3
:1016200001D0FFF76BFE074B9B681D51BFF35F8F27
:10163000BFF35F8F0022024B1A6086F3108870BDE3
:10164000240100D000ED00E0CD010010F0B5DE4631
:1016500057464E464546E0B50C0083B0EFF3108A7E
:1016600072B65B4A1368002BFCD0BFF35F8F102269
:10167000914681444A46574B96009B689D59564B6C
:1016800098469D4205D0A54216D0544FEB1B2F2BF8
:1016900014D9504B9B689D51BFF35F8FBFF35F8F91
:1016A00000224B4B1A608AF3108803B03CBC904672
:1016B0009946A246AB46F0BD1D00EAE701238340F0
:1016C0009B465A46464B1B681A4000925A46454B69
:1016D0001A60BFF35F8FFEF7C6FD0190002803D0AC
:1016E000814501D0FFF70AFE01232A009A43130027
:1016F0003D49DB1B5B415943090D93689C4208D16E
:101700005BE043001B189B00FB189868A04211D0B7
:101710001A00062010560028F3DA009B002B05D093
:101720005A46324B1A602E4B1A60B2E75A462D4B7E
:101730001A60AEE706201856002822DB4200111876
:1017400089007C188846A1689960E179D9710621E1
:1017500061569971A1797F291FD8A488F91A640567
:10176000241544440919E0240905490D24022143A4
:10177000998012181E4B9200BF181A781870BA710F
:10178000CBE7019800280BD1FF3090711948908069
:10179000174A107811709871BFE7BD210902E7E779
:1017A000154A1649D21A083A5002400D0143998051
:1017B000134952080A43DA80AFE706201056130097
:1017C0000028BBDA019A002AEAD14546E0E7C04684
:1017D000240100D000ED00E0CD0100100C1100202C
:1017E00000E100E080E100E0AAAA000080E200E061
:1017F000151C002000BDFFFF4611002000F0FFFF78
:1018000000F8FFFFF8B5012504000543FEF72BFDA6
:101810000300EFF3108672B621490A68002AFCD053
:10182000BFF35F8F1F4A20001F49801A4041414388
:10183000090D1E489B00876849B2FF58AF421CD073
:101840000623D3568B421CD01223D3568B4222D070
:101850001E23D3568B4220D02A23D35603208B42FB
:1018600010D0134B1A781970A271BFF35F8F00224A
:101870000B4B1A6086F31088F8BD82680D48D05073
:10188000EFE7002043001B189B00D218FF23937141
:10189000094B9380E5E70120F4E70220F2E7C04618
:1018A000240100D00C110020AAAA000000ED00E0E5
:1018B000151C0020CD01001000BDFFFF054B064A9E
:1018C0001360064A136053609360D36013615361E1
:1018D000936170478080808000E400E004E400E0D1
:1018E000F8B504000C2017001D000E0000F0BCF835
:1018F0004101091A8B01591AC900091889013800D8
:1019000000F0B2F8069A2B04120313432268002A4F
:1019100021DB184AA21851424A41802149018C46D4
:1019200052420A40144962440A6014490A60144948
:1019300017008D68AF43FBD1C021221D89011143DF
:1019400021222660A0600A602268002AFCDAE36097
:1019500008230B60F8BD3F2221680A40B242D8D16B
:10196000A2681205120D8242D3D1E268002BD0D1B9
:10197000F0E7C0460040FDBF00E0004000F000403E
:1019800000C000408023024A9B000343D36270479B
:1019900000800540AA23064A1B0113602F23054936
:1019A000D360054B19605368002BFCDA7047C046C2
:1019B0000040024000B0FA000060024010B500286C
:1019C00000D110BD00F056FAFBE7C04610B5094A39
:1019D0000300146884B0002C08D00122009106484E
:1019E000524203A9A047012004B010BD00F094FAB0
:1019F0000020F9E7E81B0020BD1900100148042170
:101A0000014B1847601100202D1A0010142310B547
:101A10000100188804331B88984710BD162310B5A1
:101A20000100188802331B88984710BDF0B5C646E0
:101A300000B5002916D01423040001259846182764
:101A4000890046184346216818883B88984701C496
:101A5000431E984140420540A642F3D1280004BCF1
:101A60009046F0BD0125F9E7114A936F9B0813D208
:101A700010665166002905D0FFE7FFE7FFE7516FC9
:101A8000106F704704B5002801D00020C04302F059
:101A900067FB002104BDC046F0B5146E556E576F4C
:101AA000166FFFF7E5FF1466556657671667F0BDBA
:101AB000000000D0132370B51D78012D15D010DD66
:101AC0002748FFF7ABFF274C01008022200000F0E1
:101AD000EDF8022D06D02448FFF798FF234B18603D
:101AE00070BD204C224AA264F5E72E001D4C204A0E
:101AF000A3085B421E401D422FD0330022602020ED
:101B0000B1006118801B0A604A608A60CA600A617D
:101B10004A618A61CA610A624A628A62CA620A6367
:101B20004A638A63CA630A644A648A64CA640A6547
:101B30004A658A65CA650A664A668A66CA660A6727
:101B40004A674008102803D18A67CA67A264C2E7BF
:101B50001E339B00E250A264BDE70023CFE7C046DE
:101B600053440000181C00204C330000FC1B0020D4
:101B7000751B001007B5604601880A0A0230DF2A8B
:101B8000FAD1C9B2820804D3028840880004104305
:101B900000E00068014A5050039007BD181C002067
:101BA00051434343C9188C46110C83B24B4310B4C4
:101BB000040C614392B280B2504362431C041B0C7C
:101BC000001910BC59411304120CC0185141614452
:101BD00070470000132310B512481C78FFF71EFF52
:101BE0000100012C0AD003DD80220F4800F05EF8CE
:101BF0000E48FFF70BFF0E4B186010BD0A4C542225
:101C0000200000F053F80B4B6365A365E365236682
:101C10006366A366E36623676367A367E36723627C
:101C2000E361E5E753460000181D00204C33000037
:101C3000FC1B0020391C001007B5604601880A0A09
:101C40000230DF2AFAD1C9B2820804D30288408860
:101C50000004104300E00068014A5050039007BDA3
:101C6000181D002010B5040001F0B2FC002804D0BB
:101C7000034B04199C4200D810BD0248FFF726FB15
:101C8000000004205442001010B501F0ABFC10BD60
:101C900001480421014B1847701100202D1A001033
:101CA000014B1B681847000070110020014B5B6856
:101CB000184700007011002010B5FFF7D3FF10BDCA
:101CC00010B5FFF7E1FF10BD10B5FFF7DDFF10BD48
:101CD000030010B508001B681100984710BDC046EE
:101CE000F8B54746CE4680B5437C07000D00160088
:101CF000002B37D000240020002A1EDD4B1E984602
:101D00001B4B9946002C2BD043461B5D0D3B5A4282
:101D10005341DBB22A5D0A2A13D00134A642F1DC1A
:101D2000864203DD311A3B6828189847AD19013DFA
:101D30002B780D3B5A4253413B740CBC904699465C
:101D4000F8BD002BE9D1A04203DA211A3B6828181C
:101D50009847484602213B68013498472000DDE758
:101D60003B7CD7E70368110028009847E5E7C046A9
:101D7000C4420010F0B557464E464546DE461C00AC
:101D8000D023E0B51B061F68354B83B006000D005D
:101D9000180001A991469A4602F0F2F980460028FF
:101DA00008D1019B7FB29F4204D0504602F018FA3E
:101DB000012398466B1C03D1300002F01DF805008A
:101DC000002C2AD1274F284B1C68002C18D04B46DA
:101DD000002B24D1254B994602E0E468002C0FD05B
:101DE0002368002BF9D04B461B68002B01D0A3427F
:101DF000F3D120002A003100B847E468002CEFD16D
:101E00004346002B28D1681E8541E8B203B03CBC94
:101E100090469946A246AB46F0BD154FD3E7134B0B
:101E200099460A239B4602E0E468002CE8D0236828
:101E3000002BF9D04B461B68002B01D0A342F3D1F5
:101E40002A0031002000B8475A466B4620001A711C
:101E500001A90122B847E7E7504602F059F9D2E755
:101E6000C8190020E11C0010DC1B0020E01B002032
:101E7000D11C0010F0B54746CE4680B583B06B4606
:101E8000DF1CD02338701B061C68204B060001A9FC
:101E90001800984602F074F9051E22D01C4B1C68ED
:101EA000002C2AD01B4B994602E0E468002C10D08D
:101EB0002368002BF9D04B461B68002B01D0A342AE
:101EC000F3D1200001223900FFF70AFFE468002C5B
:101ED000EED1002D11D1300003B00CBC90469946D4
:101EE000F0BD019B64B29C420BD0404602F078F9F1
:101EF000074B01251C68002CD4D1404602F008F99C
:101F0000E9E7034B1C68002CCCD1E4E7C81900209A
:101F1000DC1B0020E01B002070B5040001F06CFF0A
:101F200000230100050001222000FFF723FF084BDA
:101F30001C68002C06D06368002B05D09847E46825
:101F4000002CF8D1280070BDE468002CF3D1F9E72B
:101F5000DC1B00200CC99B1A70B59B100400002BE1
:101F60003CD010682060012B47D951686160022B7A
:101F70003ED09168A160032B35D00125D368D026CF
:101F8000E360FEF767FA2B00226836069340A068EC
:101F90007362FEF75FFA2B00A268E06893407362F9
:101FA000FEF758FA2B00E2686068934004217362E0
:101FB000FEF738FA616820000A07520F9300226189
:101FC0009B18104A9B00944663441A682940954325
:101FD0008022520113431D60616170BD00220A48D6
:101FE000110000F0CFF803220748110000F0CAF8F2
:101FF00002220548110000F0C5F801220248110034
:1020000000F0C0F800000540C8420010012302683B
:1020100002219340D02212065361026993009B185B
:10202000064A9B009446064A63441A611A681140A6
:1020300080225201134319607047C04600000540DA
:10204000D4300000012310B51C0082689440D022D7
:102050001206002921DD9461C468A34053614068E1
:102060000207520F93009B180E4A9B009446CA1712
:10207000891851400C4A6344914200DD1100C207A7
:1020800008D40A4A186841400A40802149010B439C
:102090001A6010BD064A0904F4E75461C468A340FD
:1020A0009361DCE70C00054050C30000FFFF000017
:1020B0000000FFFF10B501242200836841689A40A8
:1020C000D0231B069A619A610A07520F93009B184E
:1020D000094A9B009446FF2063440C4209D00749FB
:1020E00000041A68424011408022520113431960D3
:1020F00010BD0349F5E7C0460C0005400000FFFF96
:10210000FFFF0000042010B500F0AEF9024B034AB7
:102110000349036000F094FEC043001069230010DF
:102120009C43001070B50500082000F09DF92900BF
:10213000040000F0EBFF2000044A054900F080FE97
:10214000200000F0A7F900F0CDF9C0465130001092
:102150002C45001070B50500082000F085F9290015
:10216000040000F0E5FF2000044A054900F068FE85
:10217000200000F08FF900F0B5F9C046A53000103E
:10218000384500100FB42023F0B583B000AFFC1821
:1021900020CC280001F030FE80239B00C118104B9A
:1021A0002A009C466B466044C008C0001B1A9D462E
:1021B0006E46230030007C6000F07EF8082000F0BE
:1021C00053F93100040000F0BDFF2000054A064924
:1021D00000F036FE200000F05DF900F083F9C04603
:1021E00007020000D930001044450010F0B505008A
:1021F0000C009DB000AF641B69220F49381DFFF72A
:1022000055FD23006A467033DB08DB00D31A9D4678
:102210006E466822391D3000FFF748FD300022006D
:1022200029006830FFF742FD00233419683430007C
:102230002370FFF777FFC04614430010F0B55746F0
:102240004546DE464E46E0B583B000AF84B0EA4670
:102250000C23534499461D00164B834614009846A0
:10226000796020000A21FFF7FFFB43465B5C013DDC
:1022700020000A212B70FFF7F7FB26000400092E2F
:10228000EFD84B465D1B7B689D420FD85346591BC8
:102290002A0058460C31FFF709FD2800BD4603B05F
:1022A0003CBC90469946A246AB46F0BD01256D4226
:1022B000F3E7C04680430010F0B5C646804600B53F
:1022C00015000139127841440F000400002A45D05E
:1022D00088420AD2252A0CD02A782270013501348E
:1022E0002A78002A1FD0BC42F4D321004046FFF7D1
:1022F0007DFF6A78732A1DD07A2A03D0252AEBD174
:102300000135EAE7AA78752AE6D11E00200004CE3E
:10231000391BFFF793FF0028E7DDEA780335330028
:102320002418002ADFD14346E01A0023237004BC9E
:102330009046F0BD02CB0E78002E0DD0A742D4D926
:10234000220001E09742D0D01000013106700E78D3
:1023500001321400002EF5D10235C1E70020E4E778
:10236000004870478C43001010B50400034B08333D
:10237000036000F08DF9200010BDC046B843001086
:1023800010B50400054B0833036000F081F920000C
:102390000421FFF799FC200010BDC046B84300108F
:1023A00070B51C4C08386368002B27D00668851967
:1023B000AB4223D81DD05A680434002A06D10EE05F
:1023C00051681C1D00291FD013000A009542F7D345
:1023D00004D12A6894466A6866445A6023681A6879
:1023E000991888420DD05B68066043602368586086
:1023F00006E01A685B689446664406604360606065
:1024000070BD96191E60FBE75B681A6899188842D0
:10241000E9D1F6E7441B0020020010B5083208306D
:1024200000D3082207230F49073248689A4300283F
:1024300013D0043103E0011D406800280DD003686B
:102440009A42F8D89B1A072B08D984184068236051
:102450006060086802600C60083010BD4368083096
:102460000B60FAE7441B002070B580300500FFF7D1
:10247000F9FB041E07D0802200212000FFF710FC8A
:102480002000803070BD2800FFF7C6FF041EF2D187
:1024900000F076FC074A8038936810B5984203D95B
:1024A000D2689B18984202D3FFF7EEFB10BDFFF7EE
:1024B00077FFFBE7441B002070B59E25084C2D01DB
:1024C0002800E560FFF7CEFBA060002804D00023C1
:1024D00060600560436070BDE0606060FBE7C0461F
:1024E000441B00201EB400F09BF81EBC01F040FE0F
:1024F000F0B5C64600B51E0003780C0082B0472B2D
:102500001ED000232C4D01932B6828009B68984710
:10251000012700280FD1236829001B692000984655
:1025200001AA0123C047002830D10027380002B09B
:1025300004BC9046F0BD019B01371B680193EAE79C
:1025400043784E2BDDD18378552BDAD1C378432BDA
:10255000D7D10379462B23D00379432BD1D14379AB
:102560002B2BCED183792B2BCBD1C379012BC8D880
:102570000FD00300203B58301D6801902B682800C5
:102580009B68984701270028C5D0D4E7019B33609A
:10259000CCE7203800680300783B1D680190EDE728
:1025A00043794F2BD8D18379522BD5D1C379002BC6
:1025B000D2D1024D0193A7E7E8430010E043001099
:1025C00010B5040000F078F823002278203B472A59
:1025D00005D08268002A20D18360012010BD627876
:1025E0004E2AF6D1A278552AF3D1E278432AF0D1C7
:1025F0002279432AEDD162792B2AEAD1A2792B2ABA
:10260000E7D1E279012AE4D8DA690132DA61012AF4
:10261000E3D182689A618360DFE700F0B1FBC046D6
:1026200010B500F049F88368002B2ED020229A5C68
:10263000472A04D0002282602033180010BD263AB9
:102640009A5C4E2AF6D12C3A9A5C552AF2D1323A4B
:102650009A5C432AEED11F3A9A5C432AEAD11E3A89
:102660009A5C2B2AE6D1053A9A5C2B2AE2D1043AED
:102670009A5C012ADED8DA69013ADA61002ADBD1F4
:102680009A69826000229A61D6E700F079FBC04621
:102690007047C0467047C04600487047CC430010A2
:1026A00010B504000421FFF70FFB200010BDC04649
:1026B00000487047381B002000487047381B002036
:1026C000F8B5DE46454657464E468B46E0B5050012
:1026D000502825D00F2028400C2800D976E03C4C0B
:1026E0008000205887465078147800022043947860
:1026F00024042043D47824060443101D002C08D061
:1027000070262E40102E00D193466DB25C44002DF1
:102710000CDB1C603CBC90469946A246AB46F8BD1B
:10272000032103328A43100010C8F2E72468F0E75F
:102730005078147800022043947824042043D478FD
:102740002406044310000830D8E754781078240297
:102750000443901CD2E754781078240204432404E4
:102760002414901CCAE77F21904600240027894644
:1027700046463178701C4E460E40BE4034434EB241
:1027800080460737002EF3DB1F2FB7D84906B5D593
:102790000126BE4076423443B2E7002188467F31AD
:1027A0001700002489463E00317801378A464946A1
:1027B000564631404646B1400C4307218C465146AF
:1027C0004EB23800E044002EEDDB97E700F0F8FE53
:1027D00080440010020010B50800FF2A15D07023B5
:1027E0001340302B17D004D8202B07D101F088FCE0
:1027F00003E0402B0BD101F0D3FC10BD202B02D8FD
:102800006023134201D000F0DBFE0020F5E700203A
:10281000502BF2D0F7E701F09BFCEEE7F8B505008E
:102820000E0014000020002D02D0280001F0B8FC9A
:102830002060771C3678FF2E29D160603B78781CA9
:102840002375FF2B33D01023002500217F2623750D
:102850003200037801301A408A405BB215430731D9
:10286000002BF5DB4519E560002500227F26037863
:1028700001306375310003780130194091405BB23B
:102880000D430732002BF5DB45192561F8BD290002
:102890003000FFF79FFF3A000100231D3000FFF7D3
:1028A0000FFF07003B78781C2375FF2BCBD100234B
:1028B000E360D9E7F0B5DE46454657464E4600236D
:1028C000E0B593B0089303338B4690460340012B49
:1028D00000D19FE0022B0FD14146584601F028FC61
:1028E0000924002800D10824200013B03CBC9046E5
:1028F0009946A246AB46F0BD002B00D027E2030765
:10290000EAD401230CAD02935B460C9300230C2206
:1029100000214046009501F003FC404601F068FCB0
:1029200003900028D8D02A0003994046FFF776FF8D
:1029300041460600287DFFF74DFF0BABA8600F2234
:1029400000939A4600210023404601F031FC012209
:102950000B9B9343013B99462B699E426BD27F2789
:102960006C7D00212000FFF735FF3200010009AB2C
:102970002000FFF7A5FE6C7D060000212000FFF778
:1029800029FF320001000AAB2000FFF799FE6C7DA1
:10299000060000212000FFF71DFF53460100320012
:1029A0002000FFF78DFE0024002103003A001B7871
:1029B00001301A408A405BB2060014430731002BF5
:1029C000F3DB099A2B68944663444B4519D9029B63
:1029D000DB072AD500230024049353460D220093DD
:1029E000002100234046089D01F0E2FB5B460B9A64
:1029F0009C621A62039A0624DA62049A5D621A6380
:102A000072E70A9A944663444B4574D82B69834213
:102A1000A6D8DCE708231A000240034214D00223A0
:102A20001A4302920C910CAD70E70823029A1342EC
:102A300007D000F0A5F902990A42CBD108230B4236
:102A4000F7D1584600F0AAFC0CAD0C6A00230D2209
:102A500000214046009501F0ABFB0C9B9C4202D04C
:102A60000223029350E75B460C220C9300210023C3
:102A70004046009501F054FB5B461B6B0493002B12
:102A8000DFD05B469C6ADB6A03930BAB9A46032656
:102A9000002C4DDB5B460B93534600220021009334
:102AA0004046002301F03CFB5346012200210093E5
:102AB000404600230B9401F033FB53460F220021C4
:102AC00000934046002301F073FB01230B9A002181
:102AD0001340049A404613430B9353460F2200932E
:102AE000002301F01DFB0724022E00D0FCE658460F
:102AF000FFF766FDF8E60B9B002B00D1ECE66A6859
:102B0000944663440493002C31D1002B00D1E3E6BA
:102B1000029BDB0700D5DFE60226BBE7079B544696
:102B2000AB469846B2464D46029BDB0700D554E7BC
:102B30002A0003994046FFF771FE4146287DFFF7C2
:102B400049FEE343E9689B00A860C9180B68002BA5
:102B500005D0002301339A008A58002AFAD15A4638
:102B6000936204230326D0621363516392E72B69B7
:102B7000661E9C46049B6644002B00D1ACE6002EEA
:102B800000D1CEE0029A08231100194006911342A9
:102B900000D1CDE05A463F331370073353700733EB
:102BA0009370123BD37003331371093353710333A2
:102BB00093710023D3710023424605937F2733008E
:102BC000A9460792002400211A0010783A0002401A
:102BD0008A400133144342B21D000731002AF3DB5F
:102BE0001F2906D84022024203D03F3A8A4052426F
:102BF0001443002600213A001878013302408A402D
:102C0000164342B20731002AF5DB1F2906D84023BC
:102C1000034203D03F3B8B405B421E43002C10D04D
:102C200012DC5B46002B02D0069B002B47D0E3430F
:102C30000F9A9B009B58002B2BD0002E6BD0AB190A
:102C4000C0E701230593F8E74B46187DFF2860D0C5
:102C500007230340022B59D02CD9032B2CD0042B53
:102C600075D1E20052424B46DB6849469C46896872
:102C700053466244FFF724FD0B99002909D05B46B7
:102C8000002BDAD00022584608ABFFF731FC0028B1
:102C9000D3D0079B4D469846029BDB0700D59CE6A8
:102CA000069B002B00D1F2E60326002C00DBF1E6A8
:102CB00000F072F8002B4AD1A2005242D3E7089BE1
:102CC0000F9A0B93E34390469B0098444346196840
:102CD000002938D05B465246AB46A2461D0044460A
:102CE000B046160004E061680434002900D115E7FD
:102CF0003300002228006118FFF7FAFB0028F2D009
:102D00002B00B2465D4646469B4696E7620052421D
:102D1000A9E70022A7E7079B9846059B002B00D157
:102D2000DAE5029BDB0700D5D6E500240226B1E6F2
:102D30005B46DA795833012A01D008933BE7783BA8
:102D40001B68089337E7079B4D469846ECE600F072
:102D500037FC00F0B3FB6CE670B5804700F030FC48
:102D600000F0ACFB00F02CFC0D00040000F0E0FBD8
:102D70006B1C02D1200000F021FBFFF7B3FBC04623
:102D8000024B10B51868FFF7E7FFC046841100201A
:102D900010B58047FFF7F4FF024B10B51868FFF736
:102DA000F7FFC04680110020014B18687047C046ED
:102DB00084110020014B18687047C0468011002024
:102DC00010B5012812D80B00283B1A68501E186055
:102DD000012A00D010BDDB6858310C00002B01D057
:102DE000080098472000FFF755FBF3E728394869AA
:102DF000FFF7B2FF70B505000026803DEA602E6047
:102E0000A9600400FFF7D6FF2861FFF7CDFF23007C
:102E10004722583B68611A7007325A7007329A701D
:102E200022004323553A13705370183B9370D370AC
:102E3000024B513C280026702B6370BDC12D001041
:102E400070B504000D001600FFF736FC4368320031
:102E50000133290043602000FFF7CCFF012303600A
:102E60002830040001F0B4F9200000F027FBFFF740
:102E700087FFC04610B5FFF71FFC436804680133A5
:102E80004360002C0CD02023E35C472B0AD00023A6
:102E900003602034200001F093F9200000F00EFBC5
:102EA000FFF76EFF263BE35C4E2BF0D12C3BE35C3F
:102EB000552BECD1323BE35C432BE8D11F3BE35C69
:102EC000432BE4D11E3BE35C2B2BE0D1053BE35CC1
:102ED0002B2BDCD1043BE35C012BD8D863695B422C
:102EE0006361D6E710B50400034B0833036000F0BC
:102EF000DBF9200010BDC046E844001010B5040006
:102F0000054B0833036000F0CFF920000C21FEF7D9
:102F1000DBFE200010BDC046E8440010F0B583B0D1
:102F20001E00089B05000F00140093420AD0A868F9
:102F3000089A036800921D6A220033003900A847EE
:102F400003B0F0BD310000F069F80028EFD0062092
:102F5000F6E7C046F0B5C64600B50D0084B01900CE
:102F6000060090461F0000F059F8041E18D10A9B75
:102F70000C9A934231D00D9AB068290003680392ED
:102F80000C9A02920B9A01920A9A0092DC694246CC
:102F90003B00A0470400200004B004BC9046F0BDF4
:102FA0000D9B0A9A1A6042461A71002D0EDB0A9B8D
:102FB00000249C460C9B65445D1B69424D410523E2
:102FC0006D421D400D9B01359D71E4E70024AB1C53
:102FD000E1D101230D9A9371DDE730000B9900F0E8
:102FE0001DF80028C7D042460D9B5A71D3E7C04652
:102FF000F8B507000C0015001E0000F091F900283C
:1030000006D1B8682A00036821009F693300B847D9
:10301000F8BDC0467047C0460020704710B58142D9
:1030200011D0406803782A2B0BD049680B782A3BD3
:103030005A425341C91800F09BFE43425841C0B266
:1030400010BD0020FCE70120FAE7C0464068704749
:103050000D4B10B5083303604368040018000B4A99
:103060000C3882B0904205D12000FFF711FB200000
:1030700002B010BD043B1A68511E1960002AF3DC2F
:1030800001A900F0BFF8EFE788450010541B0020AD
:1030900010B50400FFF7DCFF2000FEF711FE200052
:1030A00010BDC04610B50400034B08330360FFF7A2
:1030B000CFFF200010BDC0469C45001010B5040095
:1030C000044B08330360FFF7C3FF2000FEF7F8FD51
:1030D000200010BD9C45001010B50400034B0833C0
:1030E0000360FFF7B5FF200010BDC046B0450010DB
:1030F00010B50400044B08330360FFF7A9FF20005C
:10310000FEF7DEFD200010BDB045001010B5074BE6
:1031100082B0040001AA08C000F08AF8200002B0C2
:1031200010BD2000FFF7B4FAFFF7DCF9904500105E
:1031300010B50400FFF7EAFF014B2000236010BD2B
:10314000A445001010B50400FFF7E0FF014B20007C
:10315000236010BDB8450010164B10B5040098420E
:1031600025D8884215D94B00984200D21C00230074
:10317000200080221D330D305201934211D98C4220
:103180000FD994461B051B0D6444E41A094B9C425D
:103190000BD820000D30FEF78FFD002344608360C4
:1031A00010BD0028F7DAFEF7ADFF1C00F1E702487A
:1031B000FEF7D0FFFCFFFF3FC4450010F8B50C1A26
:1031C000060000212000FFF7C7FF070005000C37AD
:1031D000012C09D0220031003800FEF767FD084BB2
:1031E0009D4206D13800F8BD33780373044B9D42ED
:1031F000F8D000232C602C19AB602373F2E7C04693
:10320000541B002010B5FEF75BFD10BD10B58842C1
:1032100004D0002804D0FFF7D1FF10BD0248FCE71E
:103220000248FEF77FFFC046601B0020DC4500100F
:1032300070B505000C00160000290BD0080000F046
:10324000DBFD2118320000232000FFF7DFFF28609C
:10325000280070BD01214942F4E7C04630B585B071
:10326000002314006A46137110220093039303682D
:1032700002929D6922686B46A8476B461A7906231D
:1032800000201340062B02D1009B0130236005B0C3
:1032900030BDC046009B981A421E90410423404214
:1032A000984306307047C04610B50400034B0833FE
:1032B0000360FFF7AFFE200010BDC0463846001087
:1032C00010B50400054B08330360FFF7A3FE200090
:1032D0000821FEF7F9FC200010BDC046384600105A
:1032E00070B516001D00069A049B040093420ED090
:1032F00029002000FFF792FE002806D0079B049AC1
:103300001E711A600123079A9371002070BD059900
:10331000FFF784FE0028EBD0079B5E71F5E7C046FF
:1033200070B515001C00FFF779FE002804D00823B3
:10333000E360023B2560237170BDC046F8B505000F
:103340000C0017001E00FFF769FE002807D1032EAE
:1033500005D823683A00290020005B699847F8BD2A
:10336000027803000020472A00D070475A784E2A7E
:10337000FBD19A78552AF8D1DA78432AF5D11A790F
:10338000432AF2D15A792B2AEFD19A792B2AECD100
:10339000DB792A3A9A424041C0B2E6E710B5041EF2
:1033A00006D000F08BF82000FFF7DAFF002801D1EB
:1033B000FFF7E6FC203CE068FFF7CEFCF0B5DE4608
:1033C0004E4657464546E0B585B00600FFF7C8FFB4
:1033D000041E0BD03300203B9A68DC68B36A914628
:1033E0009A460023376B9846756B05E001238146AA
:1033F0009846050007008246300000F05FF843461B
:10340000002B01D0FFF7C8FC4846FFF7C1FC00F0D5
:1034100055F84346002B01D0FFF7B2FCFFF748F9FF
:1034200027230668F25C33007833012A00D1336821
:10343000BF080293BB000193002399462036CA457A
:1034400020DD2F68002F00D07F19002239003000C6
:1034500002ABFFF74DF8002801D0FFF70BFD3B68EA
:1034600003901B6938009B461149012303AAD847E2
:10347000002800D0804601239C46019BE1449C46E5
:103480006544DCE74346002B08D00420FEF7ECFF40
:10349000084B094A06490360FFF7D2FC2000FFF7FA
:1034A0005BFC00F045F800F043F8FFF71BF8C0465E
:1034B000F0430010744400109526001070B504000D
:1034C000FFF7FAF8220023780568203A472B04D04A
:1034D000002D2BD10260280070BD63784E2BF7D1F0
:1034E000A378552BF4D1E378432BF1D12379432BE7
:1034F000EED163792B2BEBD1A3792B2BE8D1E37998
:10350000012BE5D85369002B0DDB01335361436870
:10351000013B4360954201D0156102602000656A5D
:1035200000F036FED7E70121CB1AEFE7FFF728FCC2
:1035300010B5FFF7BDF80368002B09D020229A5C74
:10354000472A06D0002220330260180000F0F8FD60
:1035500010BD263A9A5C4E2AF4D12C3A9A5C552A30
:10356000F0D1323A9A5C432AECD11F3A9A5C432A52
:10357000E8D11E3A9A5C2B2AE4D1053A9A5C2B2AB0
:10358000E0D1043A9A5C012ADCD85A69002A08DBA7
:10359000511E012A0CD04A1C01D05961D8E7FFF70F
:1035A000EFFB511C0132F8D11A6902605961CFE773
:1035B0001A6920330260180000F0C2FDC8E7C04657
:1035C00010B5062000F08CFB0120FDF761FEC0461F
:1035D00010B5034B0100186800F00EF810BDC0468E
:1035E0008811002010B5034B0100186800F088FC1A
:1035F00010BDC04688110020F0B557464546DE464E
:103600004E46E0B50D000B3583B00700162D22D8CD
:10361000102900D9BBE000F0B5FA102518230220CC
:10362000D14EF3181A005C68083A944200D1BEE00B
:10363000032362689A431300E268A168CA6091603C
:103640000122E318596838000A435A6000F09CFAD6
:10365000200008309EE007239D4300D597E0A94253
:1036600000D994E000F08EFAF823FF339D4200D891
:10367000ADE1680A00D194E0042800D980E1382344
:103680009846A80980443930C100B74E71180839EE
:10369000CC68A14218D0032362689A431300521BDE
:1036A0000F2A00DD36E1002AC6DA03239C4608E033
:1036B0006246636893435A1B0F2A00DD2AE1002A01
:1036C000BADAE468A142F3D1320034690832944294
:1036D00000D177E003236168994389460B00491BB9
:1036E0000F2900DD77E1726132610029A8DA9F4A73
:1036F000914500D910E1DA08012391108B40D200E6
:10370000716892190B4391687360E260A1609460E4
:10371000CC60012182109140994259D80B4205D1C9
:1037200003229043490004300B42FBD00323984608
:10373000C3009946B144CC4682466346DC68A44542
:1037400007D129E1002A00DB32E1E468A44500D179
:1037500022E14246636893435A1B0F2AF2DD01209F
:103760008046611905436560A068E5680836C56054
:10377000A8604046F160B16010434860CE608E6042
:103780003800E25000F000FA2000083002E00C237C
:1037900000203B6003B03CBC90469946A246AB4635
:1037A000F0BD80213F238900402098466DE7DC680A
:1037B0000230A34200D03BE7320034690832944221
:1037C00000D087E701217368821091409942A5D902
:1037D0000323B46862689A439046AA4203D3531BFA
:1037E0000F2B00DD88E023004344614A0193614BC5
:1037F00093469A4612681B68EB18013200D139E1F2
:103800005D4A944663441B0B1B03009300993800E8
:1038100000F0BCF903008146013300D1F6E0019BC2
:10382000834200D9F0E051464968009B8C465146DE
:1038300063444B6001991A00494500D14FE15B4652
:103840001B68013300D154E14B4601995B1A9A1869
:1038500053465A6007234A461A40019200D113E1A9
:1038600008214B4689469B1A99440099434B494489
:103870009B1A5B1A1B051B0D0091380019009B4613
:1038800000F084F9431C00D14FE14B46C01A0300FD
:103890005B440093534652465B6801215B4453608E
:1038A0004A464846B260009A0A434260B44200D198
:1038B00023E142460F2A00D821E107200C3A824337
:1038C00060680140052011436160A118486088606C
:1038D0000F2A00D934E14A464C4652685146C96A1B
:1038E000994201D25146CB625146096B994200D3AD
:1038F0008EE051460B638BE00122290013431143F4
:10390000651961603800B5606B6000F03DF920001A
:1039100008303FE74046D7E65A0A042A6ED9142AEF
:1039200000D9C1E011005C325B31D20008235B4258
:103930009C46B218944463469A680323984694457B
:1039400000D19AE0434651689943494502D99268AB
:103950009445F7D1D3689C4673686146A260E160E4
:103960008C60D460D5E6C046C0150020FF01000081
:10397000B8150020041B00200F10000008100000E4
:10398000142852D9542800D996E06E239846280B63
:1039900080446F30C10078E608239B46073BDC4437
:1039A0009B46DA4443465246134200D0C5E64CE0FB
:1039B0000122E318596838000A435A60E368A26894
:1039C000D3609A6000F0E0F820000830E2E62B00B7
:1039D000E808083324E6012360191D43656070611F
:1039E0003061C26082601A004B460A434260380070
:1039F000E15000F0C9F820000830CBE69A09110028
:103A000039323831D20091E7B44260D0B46862688C
:103A100003239A43531BAA4202D30F2B00DD6BE70B
:103A2000380000F0B1F80020B4E65B2398468044EB
:103A30005C30C10029E608235B429C46E1444B46CA
:103A40009B6801384B4500D097E043460342F2D1D2
:103A500073688B4373604900994200D9B8E6002926
:103A600004D1B5E6042294464900E2440B42F9D061
:103A700050465DE610330093C8E68910023B8B4048
:103A800071680B43736068E7009B38004B441B056B
:103A90005B421B0D19009B4600F078F8431C00D0D8
:103AA000F3E600239B46F5E6542A2AD81A0B1100A8
:103AB0006F326E31D20039E7AA235B0098422AD8D0
:103AC000DD3B9846E80B80447830C100DDE5534685
:103AD0005B68009A9C46534662445A60AFE609050B
:103AE00000D0ACE6009AB468424401310A436260F7
:103AF000F4E65B464A461A60ACE64C46EEE64160A8
:103B00008EE7AA2149008A4224D8DA0B11007832C4
:103B10007731D2000AE71A4B984224D87C23984682
:103B2000A80C80447D30C100AFE5009A019B94460B
:103B30004A46083B63449B1A009300239B46A9E630
:103B400021003800083100F0DBF95346B4685B68A7
:103B50006268C3E60A498A420BD89A0C11007D328A
:103B60007C31D200E2E6FE217E2389007F20984648
:103B70008BE5FE227E219200D8E673686BE7C04693
:103B8000540500007047C0467047C046002370B51A
:103B9000064C050008002360FDF77CFB431C00D0A9
:103BA00070BD2368002BFBD02B60F9E7181E0020A6
:103BB00010B580210400FFF71FFDB7239B00E050E4
:103BC000002807D002000023803208C09042FCD1B8
:103BD000002010BD01204042FBE7C046B7239B00F8
:103BE000C25810B50023002A01D0180010BDFFF7FD
:103BF000DFFF0300F9E7C046F8B505000C0016002A
:103C00001F2909D8B727BF00C359002B09D0A4002A
:103C10001B1918681E60F8BD16230360012040427E
:103C2000F9E7FFF7C5FF002801D1EB59EFE70120C5
:103C30004042F0E770B505000C001F2922D8B723D9
:103C40009B00C358002B0ED08A009B181A68002ACC
:103C500009D0012A14D0511C0ED000212000196077
:103C60009047002070BD280000F07EF8220001007F
:103C7000280000F065F8F5E7162303600120F1E75E
:103C80000020EFE71623036001204042EAE7C04628
:103C900070B505000C001F291FD8B726B600835940
:103CA000002B10D0A2009B181A68002A09D0511CC2
:103CB00011D0012A0DD0002120001960904700206A
:103CC00070BD0120FCE7FFF773FF002805D1AB5959
:103CD000E8E70320F4E70220F2E701204042EFE7A3
:103CE00010B5034B01001868FFF7A4FF10BDC046D4
:103CF0008811002010B5044B0A001B680100180051
:103D0000FFF77AFF10BDC04688110020B722064B8E
:103D100092001B6810B59A580020002A00D010BDF0
:103D20001800FFF745FFFAE78811002010B5034B94
:103D300001001868FFF7ACFF10BDC04688110020D5
:103D4000002370B5074C050008001100236000F047
:103D5000CDF9431C00D070BD2368002BFBD02B6035
:103D6000F9E7C046181E002010B500F0B7F910BDE5
:103D7000024670B50A4392072AD11E4DEE0104C8CF
:103D800008C9541B9443344017D0D0B2D9B2401A5A
:103D90002106014310D190B299B2401A2104014387
:103DA0000AD110021902000A090A401A210201432D
:103DB00002D1100E190E401A70BD9A42DFD010BA0F
:103DC00019BA884201D9012070BD0020C04370BDDE
:103DD00002780B7801300131002A09D09A4207D1CC
:103DE00002780B7801300131002A01D09A42EFD0DD
:103DF000D01A70BD0101010110B5830727D00378E7
:103E0000002B26D00300032102E01A78002A1CD0E0
:103E100001330B42F9D119680F4A104C8A188A43B2
:103E200022420FD1043319680B4A8A188A4322426E
:103E300008D104331968084A8A188A432242F1D00B
:103E400000E001331A78002AFBD1181A10BD0300D4
:103E5000E1E70020FAE7C046FFFEFEFE808080809A
:103E6000F8B50C000600FFF78DFE204FBB685D68BB
:103E700003239D431E4B2C1B9C466444240B1D4B6B
:103E8000013C24039C4207DD00213000FFF77EFE49
:103E9000BB685B19984204D03000FFF775FE002024
:103EA000F8BD61423000FFF771FE431C0DD00122C6
:103EB000BB682D1B15435D600F4B30001A68141B47
:103EC0001C60FFF761FE0120EAE700213000FFF7E8
:103ED0005DFEBA68831A0F2BDEDD08490968401AB7
:103EE0000549086001210B435360D5E7C015002048
:103EF000EF0F0000FF0F0000081B0020B815002086
:103F0000F0B5D6464F4646460500C0B50C1E5CD0FF
:103F1000FFF738FE210008394F6801243B000322D7
:103F2000A343C81846689643B146664EB2688242BB
:103F300000D175E04A464260821894463C4229D13D
:103F40000F68C91B8A68DB199046624657680822C9
:103F500094462740B444BA46E04556D0CA689446D1
:103F600042466746D7606246474697605246002AF7
:103F700013D101224B44CF18BC468468524F1A43D8
:103F8000BC4200D17AE0C068E06084604A6062466A
:103F9000136005E057682742EBD01C434C60036078
:103FA0004A4A934216D8DB08FF3A9810FF3A8240FB
:103FB0007068DB00024372609E19B368CE608B604C
:103FC000B160D9602800FFF7DFFD1CBC9046994620
:103FD000A246F0BD5C0A042C3AD89C092000393472
:103FE0003830E4003419083CA268032794423ED0DC
:103FF0005068B843984202D992689442F8D1D46884
:10400000CC608A60A160D160DCE7002F55D1C26826
:104010004B4480681C43C26090604C60CB50D1E739
:104020004B443C4206D10A68891A88689B18CA68C2
:10403000C260906001221A434A60254AB16012684A
:104040009A42BFD8234B28001968FFF709FFB9E748
:10405000142C07D9542C19D81C0B20006F346E3047
:10406000E400BFE720005C345B30E400BAE70123E2
:1040700080108340706803437360C1E7E160A16012
:104080004A606246CC608C6013609BE7AA204000C7
:10409000844205D8DC0B200078347730E400A1E7B7
:1040A0000D48844205D89C0C20007D347C30E4000F
:1040B00098E7FE247E20A40094E71C434C60036034
:1040C00080E7C046C0150020C8150020FF01000091
:1040D000BC150020041B00205405000058220120BC
:1040E000014B40421A607047181E002058220120E0
:1040F000014B40421A607047181E0020F8B5C046B8
:1041000001B40248844601BC604700BF9B100020F8
:1041100001B40248844601BC604700BF5101002041
:1041200001B40248844601BC604700BF7905002005
:1041300001B40248844601BC604700BF491000201A
:1041400001B40248844601BC604700BF1D05002041
:1041500001B40248844601BC604700BF95100020AE
:1041600001B40248844601BC604700BF79010020C9
:1041700001B40248844601BC604700BF450C0020E2
:1041800001B40248844601BC604700BF0901002019
:1041900001B40248844601BC604700BF19050020F5
:1041A00001B40248844601BC604700BF751000207E
:1041B00001B40248844601BC604700BF2D050020C1
:1041C00001B40248844601BC604700BF750C002062
:1041D00001B40248844601BC604700BF150C0020B2
:1041E00001B40248844601BC604700BFC100002002
:1041F00001B40248844601BC604700BF8110002022
:104200000700000000000000080000000900000096
:10421000486172647761726520616C61726D2025FE
:104220006420616C726561647920636C61696D659D
:10423000640000000A2A2A2A2050414E4943202ABD
:104240002A2A0A000A000000486172642061737320
:10425000657274004F7574206F66206D656D6F72A6
:104260007900000052656C6561736500626F6F7460
:10427000325F77323571303830000000312E332E06
:10428000300000007069636F000000006D61696EAE
:10429000000000004A756E20313720323032320083
:1042A00006005250BBFF3CB684420010060052503C
:1042B000E182887F6C42001006005250D3F07542B4
:1042C000644200100D0A0000766563746F723A3A1A
:1042D0005F4D5F72616E67655F636865636B3A200F
:1042E0005F5F6E2028776869636820697320257A8C
:1042F0007529203E3D20746869732D3E73697A6587
:1043000028292028776869636820697320257A75D1
:10431000290000006E6F7420656E6F7567682073EA
:104320007061636520666F7220666F726D617420C4
:10433000657870616E73696F6E2028506C6561736B
:1043400065207375626D69742066756C6C2062758A
:1043500067207265706F7274206174206874747065
:10436000733A2F2F6763632E676E752E6F72672FF8
:10437000627567732F293A0A202020200000000070
:104380003031323334353637383900007374643A9B
:104390003A6261645F616C6C6F630000F04400100E
:1043A000A8430010FC4300105374396261645F61DC
:1043B0006C6C6F6300000000000000009C43001064
:1043C0006923001081230010612300107374643A84
:1043D0003A6261645F657863657074696F6E00004E
:1043E00040460010044400104046001024440010D1
:1043F000F044001048440010FC43001040460010F8
:104400005C4400104E31305F5F637878616269769A
:104410003131355F5F666F726365645F756E7769B2
:104420006E6445004E31305F5F6378786162697613
:104430003131395F5F666F726569676E5F6578639A
:10444000657074696F6E4500537431336261645FE7
:10445000657863657074696F6E0000005374396528
:104460007863657074696F6E0000000000000000E2
:10447000F043001095260010A12600109926001088
:10448000E62600109A2700104A270010E6260010A2
:1044900030270010CC270010CC270010CC270010AC
:1044A000CC2700106627001056270010E6260010C3
:1044B00030270010F0440010C044001008460010DF
:1044C0004E31305F5F637878616269763132305F98
:1044D0005F73695F636C6173735F747970655F6943
:1044E0006E666F450000000000000000B44400103C
:1044F000E52E0010FD2E00101930001019300010AC
:104500003D3300105D320010F12F0010552F0010C8
:104510001D2F0010404600101C45001053743974C4
:104520007970655F696E666F00000000F0440010EE
:1045300050450010FC430010F0440010604500108E
:104540002C450010F0440010744500102C4500105C
:10455000537431316C6F6769635F6572726F72009B
:10456000537431326C656E6774685F6572726F7216
:1045700000000000537431326F75745F6F665F72B4
:10458000616E676500000000000000002C4500100F
:1045900051300010913000104D300010000000002C
:1045A00038450010A5300010BD3000104D3000100F
:1045B0000000000044450010D9300010F130001018
:1045C0004D30001062617369635F737472696E6766
:1045D0003A3A5F535F637265617465006261736943
:1045E000635F737472696E673A3A5F535F636F6EAD
:1045F000737472756374206E756C6C206E6F7420AA
:1046000076616C6964000000F044001014460010EC
:10461000144500104E31305F5F63787861626976CF
:104620003131375F5F636C6173735F747970655F9D
:10463000696E666F4500000000000000084600102B
:10464000A9320010C13200101930001019300010CA
:104650003D3300105D32001021330010E1320010B4
:04466000953200107F
:1046640051E2FF7FB0B0AA00FFFF01080E041C0056
:10467400180E00003DE2FF7FB0B0AA00FFFF010862
:104684000E041C00180E000029E2FF7FAB02970104
:10469400B0B0B003FFFF010C34040000420450002A
:1046A4004C0E000080010181B0B0AB10000000008E
:1046B400F0800181B0AB08B100000000F5E1FF7F9C
:1046C400F0801201B0B0B0ABFF1019011028B2078E
:1046D4000000FC07049E0901C4085A000001000000
:1046E40000000000CDE1FF7FB0B0AA00FF10190167
:1046F4000C020608010C0410051E08000001007FCE
:1047040000007D0000000000000000008003018123
:10471400B0B0AB100000000099E1FF7FB0A8010029
:10472400FFFF01080C0416001C04000085E1FF7F54
:10473400F0800401B0B0B0ABFF1019010F480A5269
:104744000196014AE60100EE0104000001000000A8
:10475400000000005DE1FF7FB0B0AA00FFFF010090
:1047640074B20181B0AB3080000000008008018188
:10477400B0B0ABF0000000003F020181B0AB30806C
:104784000000000080060181B0B0ABF00000000022
:1047940070D9FF7FB0B0A88088D9FF7FC4FEFF7FA7
:1047A400B0D9FF7FD0FEFF7FD8D9FF7FDCFEFF7F2B
:1047B40038DAFF7FAB1C978080DAFF7F01000000AE
:1047C400F4DAFF7FAB10808094DBFF7F01000000F0
:1047D4001CDDFF7FD0FEFF7FE4DDFF7F01000000D2
:1047E400DCDEFF7FCCFEFF7FE8DFFF7FB0B0A88078
:1047F40028E0FF7FAB08B180B8E0FF7FC0FEFF7FF9
:1048040054E5FF7FE0FEFF7F74E5FF7F01000000B9
:104814007CE5FF7FB0B0A8808CE5FF7F010000003D
:104824009CE5FF7FB0B0A880C8E5FF7F01000000D1
:104834000CE6FF7FB0B0AA8038E6FF7FB0B0A88056
:10484400A0E6FF7F01000000D0E6FF7FB0AB02804E
:1048540000E7FF7FB8FEFF7F94E7FF7FAB08B180DE
:10486400B0E7FF7F01000000A0E8FF7FACFEFF7F00
:10487400BCE8FF7FB0B0A88040E9FF7FAB08B180FF
:1048840080E9FF7F0100000080E9FF7FB0B0A880CD
:104894009CE9FF7FB0B0AA80C0E9FF7FB0A9048083
:1048A400F0E9FF7F0100000090EAFF7FAB08B180D0
:1048B400ACEAFF7F0100000000EBFF7F70FEFF7F8A
:1048C400F8EBFF7F90FEFF7F64ECFF7FB0B0A88021
:1048D400ECECFF7F0100000054B9FF0FB0A9028087
:1048E400E8B9FF0FB0B0A8803CBAFF0F0100000088
:1048F40048BAFF0FB0B0AA807CBAFF0F64FEFF7FF6
:1049040044BBFF0F0100000040BBFF0FAA3F3980EA
:104914008CBBFF0FB0B0A88098BBFF0FB0B0AA80CB
:10492400D8BBFF0FB0B0A880ECBBFF0F01000000A4
:10493400E8BBFF0FB0B0A880F0BBFF0F0100000080
:1049440080BCFF0FAA0FB280E8BCFF0F20FEFF7FE0
:10495400CCBFFF0FB0B0A880E8BFFF0F1CFEFF7FE5
:104964005CC2FF0F01000000CCC3FF0F0084048071
:10497400DCC3FF0FB0B0A880DCC3FF0F08FEFF7FCD
:10498400C4C6FF0F00840480E8C6FF0FB0B0A8803F
:0849940000C7FF0F0100000045
:10499C00B4020010A80200109C020010A0420010EB
:0C49AC0090020010AC420010B842001055
:1049B800D02330B500251B0600245D5706E00368A8
:1049C800BFF35F8F1C6081F3108820BF0268EFF38C
:1049D800108172B61368002BFCD0BFF35F8F037988
:1049E8007F2BECD905710368BFF35F8F00221A6033
:1049F80081F3108830BDC046030010B50068EFF39E
:104A0800108472B60268002AFCD0BFF35F8F0422BC
:104A18009A56002A0BDB00290FD000200A601B6879
:104A2800BFF35F8F00221A6084F3108810BDD02274
:104A38001206126801201A71F1E70020EFE7C0465C
:104A48000268EFF3108172B61368002BFCD0BFF335
:104A58005F8FFF2303710368BFF35F8F00221A6023
:104A680081F3108840BF70477047C04603685A00FA
:104A780004D5802212061343C01870475B005B08F8
:104A8800FAE7C046F8B557464546DE464E469046D4
:104A9800E0B50700002924D04B1E9A46994600230A
:104AA8009B465B464B44DC0FE4186410E5007E1916
:104AB8003000FFF7DBFFA2450CD040450CD828009A
:104AC80008303818FFF7D2FF013840450AD2631C76
:104AD8009B46E6E7404505D9A34502D0631E9946A3
:104AE800DFE7002630003CBC90469946A246AB461C
:104AF800F8BDC0460300012805D0022807D00020D1
:104B0800002B02D070470348FCE70348FAE7034844
:104B1800F8E7C0462D0900202109002039090020A6
:104B280030B5234B050083B08C1E002B26D0200007
:104B380001A900E000BF00281CD001992200FFF75E
:104B4800A1FF041E16D0FFF791FF6368A864012B2C
:104B58002AD0201D002B23DBFFF788FF0023E86401
:104B68002B650368002B0FDBFFF780FF286100200F
:104B780003B030BD002309202B61F9E70D480E4929
:104B8800091AC9100191D9E71801000FFFF7B2FF00
:104B98002861431E98410823404298430930E7E7BB
:104BA8000123E8642B65DCE7002305202B61DFE7A0
:104BB80000000000944700109C490010036810B5DD
:104BC8000400DA0705D49B070AD5483000F08AFCB0
:104BD80023685A070AD51A070FD5DB0615D510BD65
:104BE800483000F07BFC23685A07F4D42000D0300A
:104BF80000F07CFC23681A07EFD420005130FF3006
:104C080000F078FC2368DB06E9D42000D130FF30BF
:104C180000F074FCE3E7C04603000068002800D0F9
:104C2800C0187047092070477047C04670B5040027
:104C38000D002000296CFFF773FF002811D12B6CA1
:104C48002A00636121000120236998470828F0D0D1
:104C5800072806D10020296CFFF7E6FF281D00F081
:104C680027FC00F095FEC046F0B5CE46474680B515
:104C7800C368304C9846A544836904001600043183
:104C8800402205A8994600F08BFE0023049325E0F6
:104C9800F022149B5200636104A97CA8039300F0DE
:104CA8007FFE2100280023697CAA98478A9B05007B
:104CB800039315934B46019304AB00932200230002
:104CC80031000120C047002822D1F0227CA95200DF
:104CD80004A800F065FE0026082D22D1149B2000B0
:104CE80019000393FFF71CFF09360700F5B20028E7
:104CF800CED0129B1021039315934B46019304AB1E
:104D080000932200230001202943C047002800D037
:104D180009273800F5239B009D440CBC9046994612
:104D2800F0BD072DF4D130001499FFF77DFF05A8D9
:104D380000F0BEFB2CFCFFFF406C704770B5CB6BDE
:104D4800FAB00B6405000E004022043103A800F0FD
:104D580027FE01235B42029306E029002B6902AA81
:104D68009847040008280AD1129B280019000193CB
:104D7800FFF7D6FE0028F0D009207AB070BD02A84F
:104D8800FFF71CFF062CF7D131002800FFF74EFF74
:104D980010B58261DA6BC1601A6419000022FFF74E
:104DA80063FF10BD436970B50B64C36804000D0050
:104DB800002B13D10A002369010002209847072815
:104DC80005D008280FD129002000FFF72FFF002069
:104DD800296CFFF729FF281D00F06AFB0122FFF765
:104DE80043FF00F0D5FD00F0D3FDC046C36810B501
:104DF800002B05D0CB6B00220B64FFF735FF10BDED
:104E0800FFF79CFFFBE7C0467047C0468368010078
:104E180010B5002B01D00120984710BD012915D0ED
:104E28000AD8002B10D10F2A0ED892008218526887
:104E3800009B00201A6006E001200339C9B28842AD
:104E480080414042013070470220FCE70120FAE728
:104E580000B585B003AB0A00009300210023FFF7DB
:104E6800DDFF039805B000BD012915D00AD8002B35
:104E780010D10F2A0ED8009B92001B68821853602D
:104E8800002006E001200339C9B28842804140422F
:104E9800013070470220FCE70120FAE700B585B031
:104EA80003AB039200930A0000230021FFF7DCFF05
:104EB80005B000BD70B51A4CD36BA544136405004A
:104EC8000C0019A8111D402200F06AFD01235B4265
:104ED800189314E00C2118A802AAFFF7DFFF21009D
:104EE80018A8A847002812D1069B18AA02A90830BA
:104EF80001939847060005280AD0092807D0289B5F
:104F080002A819000193FFF70BFE0028E2D009263A
:104F180018A8FFF753FE300090239B009D4470BDF6
:104F2800C0FDFFFFF0B557469246032245464E4660
:104F3800DE4699461300E0B58846CD6C494689B0EF
:104F48000340009308CD0695002900D180E01A0C93
:104F58001B040593022304A90B73FD3313409B0024
:104F68004A73ED18009B022B01D143469D6B4346C3
:104F78001B6DDB070FD5504605A900F065FB00281F
:104F880001D1082000E0092009B03CBC90469946B0
:104F9800A246AB46F0BD2F68002FECD00823034093
:104FA800029300230193013354469B464646BA4672
:104FB8004B46022B49D02B886F889A4604355B46AE
:104FC80038009843B36C0F21984680442000FFF7BF
:104FD8003FFF0023804506D853465A46934343442F
:104FE80098429B415B4202227F0017405946524635
:104FF8000A401743012F30D0022F4CD0002FC2D1C6
:10500800009A002A02D0002B00D09BE004352B68C0
:105018009A46002BCCD1200005A9A24600F014FB2B
:105028000028B0D1019B002BABD00F215046FFF7D1
:105038000FFF0E2102005046FFF730FF50460F21A8
:10504800724AFFF72BFF07209EE76F680835B6E71F
:105058001B02059304AB9A8184E7009A002A49D180
:10506800002B16D02B68DF0F6B689A1C00D18AE7DB
:10507800320058320492013300D1B6E0281DFFF700
:10508800CBFD3A00010004AB300000F099FC002889
:105098006CD10835BBE72A68009957007F080029BA
:1050A8000DD1002B04D0029B002B72D0002F3CD0D6
:1050B800002A00DA04350137BF00ED19A7E7336A83
:1050C8000D2120009846FFF7C3FE804501D02A68CD
:1050D800EEE7B36A9D42FAD10023F36204333363E7
:1050E8002B1DB76273632B68002B00DA87E001235E
:1050F8000193E0E70D212000376AFFF7A9FE8742F8
:10510800C7D1B36A9D42C4D1B046A2462800FFF772
:10511800ADFC0F2102005046FFF7C0FE5046424644
:105128000021FFF7BBFE07202EE7B046A2460D215F
:105138005046FFF78DFE4346049A18625A620620CD
:105148009D6221E72800FFF791FC0435A246B5636C
:105158000400300000F02CFC002800D113E7504672
:1051680022000F21FFF79AFE07200DE7A2460D2126
:1051780004005046FFF76CFEB04633003062022C44
:1051880039D1049A2C33F2627362434606209D6239
:10519800FAE62B1D9A460023984658339C46210070
:1051A8004A46B4445446A9468A463D0003924746B7
:1051B800E0460EE0434620000493FFF72DFD002251
:1051C800010004AB300000F0FBFB01370434002879
:1051D80004D1AF42EED14D46B046A8E72F004D4668
:1051E800039B544699462A6862E70D212000FFF781
:1051F8002FFEB04630624346049A5A62C5E7781CCF
:105208008000B046A246281881E7C046BD3300108A
:1052180010B50023FFF786FE10BDC04610B5012368
:10522800FFF780FE10BDC04610B50223FFF77AFED7
:1052380010BDC046F0B5CE46474680B505001400FF
:105248001E00C3B0032970D04DD8002900D174E0E6
:1052580001296CD1130C14049846240C012E00D19A
:10526800A8E0052E63D11B19202B60D842460F2ACF
:1052780000D8C0E0A146002C00D0D1E0AA6B20AF36
:10528800002C2ED0002399464346DB00FF1800234C
:10529800E400D158F95004339C42FAD14B46121914
:1052A800002B10D06F464046102800D210204B46E5
:1052B800D90000231038C0003818D458C45004331B
:1052C8009942FAD15218012E00D1CFE04346AA6381
:1052D8000F2B00D8CCE04B46002B02D0684600F0DC
:1052E80005F9002024E0042921D1002B1FD1102A20
:1052F8001DD8102203681A4200D0A9E020AF380058
:1053080000F0FEF800230120AA6B010099400C422E
:1053180002D040CA99007E500133042BF5D13800E1
:10532800AA6300F0EBF8002002E0032B1FD0022054
:1053380043B00CBC90469946F0BD002BF7D1012133
:105348008846291D00238C461004AA6B000C414690
:105358009940084203D0664680CA990077500133C5
:10536800102BF4D10020A304E2D4AA63E0E71404CC
:10537800160C240C3319102BD9D8082203681A42AA
:105388006DD120AF380000F0B7F8F600AB6B002CF9
:105398000AD0F61AE400321F1C19BA181900096855
:1053A80004339950A342F9D13800AB6300F0A2F856
:1053B8000020BDE71B19102BB9D843460F2BB6D8D0
:1053C8002B681E4206D00322280093432B604830E6
:1053D80000F086F820AF380000F082F80023AA6BAE
:1053E8009946002C00D04FE704323800AA6300F039
:1053F80075F800209CE7102B45D91022524291469F
:10540800994401222B681A4207D0934302222800AC
:1054180013432B60483000F067F84B46002B35D01B
:1054280004222B681A4227D143460F2B03D820AFFA
:10543800380000F059F86F46380000F059F8102489
:105448004346AA6BE41A002C00DC2CE720AF1BE7CC
:1054580093430360D130FF3000F052F84EE7934396
:1054680003605130FF3000F047F88AE720AFBBE710
:1054780020A800F037F82EE7280093432B60D0309F
:1054880000F036F8D0E700239946BAE743460F2BD9
:1054980000D9F3E620AF380000F026F8AA6B002CFC
:1054A80000D0EFE6380000F01DF8002040E7C046C5
:1054B800011C343138C9043B9C461D60A646011CBA
:1054C80020313CC990469946A246AB46011C08319A
:1054D800FCC941680068E54600BDC0467047C04643
:1054E8007047C0467047C0467047C0467047C046C0
:1054F8007047C0467047C0467047C0467047C046B0
:105508007047C04601B401A801B585B0FFB408A82A
:1055180041464A4653465C4665463EC001A83EC8D9
:105528000F98009000230CB401A9FFF707FC109B0B
:1055380012B0184701B401A801B585B0FFB408A896
:1055480041464A4653465C4665463EC001A83EC8A9
:105558000F98009000230CB401A9FFF723FC109BBF
:1055680012B0184701B401A801B585B0FFB408A866
:1055780041464A4653465C4665463EC001A83EC879
:105588000F98009000230CB401A9FFF72FFC109B83
:1055980012B0184701B401A801B585B0FFB408A836
:1055A80041464A4653465C4665463EC001A83EC849
:1055B8000F98009000230CB401ABFFF7E9FB109B98
:1055C80012B0184701B401A801B585B0FFB408A806
:1055D80041464A4653465C4665463EC001A83EC819
:1055E8000F98009000230CB401AAFFF763FC109BEE
:1055F80012B01847027A0300002A0BD1427A002A17
:105608000FD0013A42724268111D416003211268AD
:10561800017202E0013A02720268100E12021A6068
:105628007047B020FCE7C04600B585B003AB0093D7
:105638000C2200230021FFF7F1FB039805B000BD01
:1056480010B5FFF7F1FF10BDF0B54E464546574679
:10565800DE460023E0B587B003930F339846083B36
:10566800994680231B0305000E009A463000FFF779
:10567800C1FF0400B02800D1C1E0030629D503000A
:1056880042469343DBB2802B53D0902B3DD0A02BC6
:105698006BD0B02B00D17EE0C02B00D195E0030089
:1056A8004A469343DBB2D02B0AD15346024001321B
:1056B8001A43052301212800FFF7BCFD0028D5D097
:1056C8000924200007B03CBC90469946A246AB4648
:1056D800F0BDFF23820013401F1D05AB9B460093BE
:1056E8000D22002300212800FFF798FB630639D418
:1056F800059B9C4667445B460597009300230D2253
:1057080000212800FFF7B0FBB0E7833B03400D2BD7
:10571800D6D005AF02400023002128000097FFF7EC
:105728007DFB00230D22002128000097FFF79CFB3A
:105738009CE704023000FFF75DFF802720433F020B
:10574800B842BDD004010005020C00230021280046
:10575800FFF770FD0028B3D13C4200D186E7012352
:10576800039383E7059BDF1BC5E7FF234A461B011D
:105778001900824311410A001A40030702D5802309
:10578800DB011A43002300212800FFF753FD0028FE
:1057980000D16BE794E7B12845D0B22800D19FE04B
:1057A800B32855D0FC230340B42B00D188E74A46E0
:1057B8005346024001321A43012101232800FFF712
:1057C80039FD002800D151E77AE7C6284BD0C72811
:1057D8005DD003004A469343DBB2C02B6CD0C82887
:1057E80071D0C92800D06BE73000FFF703FFF02322
:1057F80002031B03134042460240013258E7039B51
:105808000024002B00D05CE705AE0E220021280002
:105818000096FFF703FB00230F22002128000096C3
:10582800FFF722FB4DE73000FFF7E4FE021E00D130
:1058380046E7030041468B43DBB2002B00D03FE72D
:1058480000212800FFF7F6FC002800D10EE737E713
:105858003000FFF7CFFEF02302031B03134042463C
:1058680002400132A7E73000FFF7C4FEF02302032D
:105878001B0313404246024001321A43032303210B
:105888002800FFF7D7FC002800D1EFE618E7300022
:10589800FFF7B0FE021E00D112E7030041468B431A
:1058A800DBB2002B00D00BE704212800FFF7C2FC75
:1058B800002800D1DAE603E74346A0221C40013461
:1058C80012032243DAE73000FFF794FE4346020052
:1058D8009A43D2B210321840120301300243E8E66C
:1058E80005AB00939B460D22002300212800FFF7FB
:1058F80095FA3000FFF77EFE03061AD57F27B03CE5
:10590800059B3840A0409C46604405903000073411
:10591800FFF770FE0306F3D481217F2389008C46AC
:105928000340A340059A62449B1805935B46009385
:10593800E4E60224F0E7C046030000B5DB6C85B05E
:105948005A680800120201921A0008326946029247
:1059580003220A73DB794B7301A9FFF775FE05B0C3
:1059680000BDC04610B5FFF76BFE806C10BDC04689
:1059780010B5FFF765FEC36CD8790230800018189F
:1059880010BDC04610B500F003F810B5FFF7FAFFD8
:1059980001B40248844601BC604700BFC13500100D
:1059A80001B40248844601BC604700BFAD1C00102A
:1059B80001B40248844601BC604700BFC1250010FD
:1059C80001B40248844601BC604700BFF1240010BE
:1059D80010000000FC10002000000000E819002062
:1059E8009C1B00200000000000000000AC1B0020F1
:1059F800000000000000000010000000000000008F
:105A0800000001000000000000000000000002008B
:105A1800000000000000000000000300000000007B
:105A2800000000000000FF000000000000B548680A
:105A380001318E460047704609380149884700BD44
:105A48000518001000000000000000000000000021
:105A5800503300004C330000543300005233000030
:105A68004D5300004D430000533400004334000000
:105A7800812D0010C1350010901100200000000099
:105A8800000000007C140020E41400204C150020C5
:105A980000000000000000000000000000000000FE
:105AA80000000000000000000000000000000000EE
:105AB80000000000000000000000000000000000DE
:105AC80000000000000000000000000000000000CE
